{
  "contracts/ERC725.sol": {
    "CeloERC725": {
      "abi": [
        {
          "inputs": [
            {
              "internalType": "uint256",
              "name": "",
              "type": "uint256"
            },
            {
              "internalType": "uint256",
              "name": "",
              "type": "uint256"
            }
          ],
          "name": "AllTokensGift",
          "outputs": [
            {
              "internalType": "string",
              "name": "",
              "type": "string"
            }
          ],
          "stateMutability": "view",
          "type": "function"
        },
        {
          "inputs": [
            {
              "internalType": "uint256",
              "name": "",
              "type": "uint256"
            },
            {
              "internalType": "uint256",
              "name": "",
              "type": "uint256"
            }
          ],
          "name": "AllUserToken",
          "outputs": [
            {
              "internalType": "string",
              "name": "",
              "type": "string"
            }
          ],
          "stateMutability": "view",
          "type": "function"
        },
        {
          "inputs": [
            {
              "internalType": "uint256",
              "name": "BidId",
              "type": "uint256"
            }
          ],
          "name": "BidURI",
          "outputs": [
            {
              "internalType": "string",
              "name": "",
              "type": "string"
            }
          ],
          "stateMutability": "view",
          "type": "function"
        },
        {
          "inputs": [
            {
              "internalType": "uint256",
              "name": "_eventId",
              "type": "uint256"
            }
          ],
          "name": "DistributeToken",
          "outputs": [],
          "stateMutability": "nonpayable",
          "type": "function"
        },
        {
          "inputs": [
            {
              "internalType": "string",
              "name": "_TokenID",
              "type": "string"
            }
          ],
          "name": "GetGiftURIFromToken",
          "outputs": [
            {
              "internalType": "string",
              "name": "",
              "type": "string"
            }
          ],
          "stateMutability": "view",
          "type": "function"
        },
        {
          "inputs": [
            {
              "internalType": "string",
              "name": "_TokenID",
              "type": "string"
            }
          ],
          "name": "GetGiftedFromToken",
          "outputs": [
            {
              "internalType": "string",
              "name": "",
              "type": "string"
            }
          ],
          "stateMutability": "view",
          "type": "function"
        },
        {
          "inputs": [
            {
              "internalType": "string",
              "name": "_user",
              "type": "string"
            }
          ],
          "name": "GetNFTsByUserAddrs",
          "outputs": [
            {
              "internalType": "string[]",
              "name": "",
              "type": "string[]"
            }
          ],
          "stateMutability": "view",
          "type": "function"
        },
        {
          "inputs": [
            {
              "internalType": "string",
              "name": "_TokenID",
              "type": "string"
            }
          ],
          "name": "UnWrapGift",
          "outputs": [
            {
              "internalType": "uint256",
              "name": "",
              "type": "uint256"
            }
          ],
          "stateMutability": "nonpayable",
          "type": "function"
        },
        {
          "inputs": [],
          "name": "_EventTokenSearchIds",
          "outputs": [
            {
              "internalType": "uint256",
              "name": "",
              "type": "uint256"
            }
          ],
          "stateMutability": "view",
          "type": "function"
        },
        {
          "inputs": [
            {
              "internalType": "uint256",
              "name": "",
              "type": "uint256"
            },
            {
              "internalType": "uint256",
              "name": "",
              "type": "uint256"
            }
          ],
          "name": "_SearchedStore",
          "outputs": [
            {
              "internalType": "string",
              "name": "",
              "type": "string"
            }
          ],
          "stateMutability": "view",
          "type": "function"
        },
        {
          "inputs": [
            {
              "internalType": "string",
              "name": "_TokenID",
              "type": "string"
            },
            {
              "internalType": "string",
              "name": "_GiftURI",
              "type": "string"
            }
          ],
          "name": "_SetGift",
          "outputs": [
            {
              "internalType": "uint256",
              "name": "",
              "type": "uint256"
            }
          ],
          "stateMutability": "nonpayable",
          "type": "function"
        },
        {
          "inputs": [],
          "name": "_UserTokenIds",
          "outputs": [
            {
              "internalType": "uint256",
              "name": "",
              "type": "uint256"
            }
          ],
          "stateMutability": "view",
          "type": "function"
        },
        {
          "inputs": [
            {
              "internalType": "uint256",
              "name": "_tokenId",
              "type": "uint256"
            }
          ],
          "name": "_getSearchedTokenURI",
          "outputs": [
            {
              "internalType": "string",
              "name": "",
              "type": "string"
            }
          ],
          "stateMutability": "view",
          "type": "function"
        },
        {
          "inputs": [
            {
              "internalType": "uint256",
              "name": "bidId",
              "type": "uint256"
            },
            {
              "internalType": "string",
              "name": "_bidURI",
              "type": "string"
            }
          ],
          "name": "_setBidURI",
          "outputs": [],
          "stateMutability": "nonpayable",
          "type": "function"
        },
        {
          "inputs": [
            {
              "internalType": "uint256",
              "name": "_eventId",
              "type": "uint256"
            },
            {
              "internalType": "string",
              "name": "_raised",
              "type": "string"
            }
          ],
          "name": "_setEventRaised",
          "outputs": [],
          "stateMutability": "nonpayable",
          "type": "function"
        },
        {
          "inputs": [
            {
              "internalType": "uint256",
              "name": "eventId",
              "type": "uint256"
            },
            {
              "internalType": "string",
              "name": "_eventWallet",
              "type": "string"
            },
            {
              "internalType": "string",
              "name": "_eventURI",
              "type": "string"
            }
          ],
          "name": "_setEventURI",
          "outputs": [],
          "stateMutability": "nonpayable",
          "type": "function"
        },
        {
          "inputs": [
            {
              "internalType": "uint256",
              "name": "TokenBidId",
              "type": "uint256"
            },
            {
              "internalType": "uint256",
              "name": "TokenId",
              "type": "uint256"
            },
            {
              "internalType": "string",
              "name": "_BidURI",
              "type": "string"
            }
          ],
          "name": "_setTokenBid",
          "outputs": [],
          "stateMutability": "nonpayable",
          "type": "function"
        },
        {
          "inputs": [
            {
              "internalType": "uint256",
              "name": "EventTokenId",
              "type": "uint256"
            },
            {
              "internalType": "uint256",
              "name": "EventId",
              "type": "uint256"
            },
            {
              "internalType": "string",
              "name": "_tokenURI",
              "type": "string"
            }
          ],
          "name": "_setTokenEvent",
          "outputs": [],
          "stateMutability": "nonpayable",
          "type": "function"
        },
        {
          "inputs": [
            {
              "internalType": "uint256",
              "name": "tokenId",
              "type": "uint256"
            },
            {
              "internalType": "string",
              "name": "_tokenURI",
              "type": "string"
            }
          ],
          "name": "_setTokenURI",
          "outputs": [],
          "stateMutability": "nonpayable",
          "type": "function"
        },
        {
          "inputs": [
            {
              "internalType": "address",
              "name": "_claimer",
              "type": "address"
            },
            {
              "internalType": "string",
              "name": "_tokenURI",
              "type": "string"
            },
            {
              "internalType": "uint256",
              "name": "_eventid",
              "type": "uint256"
            }
          ],
          "name": "claimToken",
          "outputs": [
            {
              "internalType": "uint256",
              "name": "",
              "type": "uint256"
            }
          ],
          "stateMutability": "nonpayable",
          "type": "function"
        },
        {
          "inputs": [
            {
              "internalType": "uint256",
              "name": "_tokenId",
              "type": "uint256"
            },
            {
              "internalType": "string",
              "name": "_bidURI",
              "type": "string"
            },
            {
              "internalType": "string",
              "name": "_updatedURI",
              "type": "string"
            },
            {
              "internalType": "string",
              "name": "_highestBidder",
              "type": "string"
            },
            {
              "internalType": "uint256",
              "name": "_eventid",
              "type": "uint256"
            },
            {
              "internalType": "string",
              "name": "_raised",
              "type": "string"
            }
          ],
          "name": "createBid",
          "outputs": [],
          "stateMutability": "nonpayable",
          "type": "function"
        },
        {
          "inputs": [
            {
              "internalType": "string",
              "name": "_eventWallet",
              "type": "string"
            },
            {
              "internalType": "string",
              "name": "_eventURI",
              "type": "string"
            }
          ],
          "name": "createEvent",
          "outputs": [
            {
              "internalType": "uint256",
              "name": "",
              "type": "uint256"
            }
          ],
          "stateMutability": "nonpayable",
          "type": "function"
        },
        {
          "inputs": [
            {
              "internalType": "string",
              "name": "_TokenID",
              "type": "string"
            },
            {
              "internalType": "string",
              "name": "_Recipient",
              "type": "string"
            },
            {
              "internalType": "string",
              "name": "_GiftURI",
              "type": "string"
            }
          ],
          "name": "createTokenGift",
          "outputs": [
            {
              "internalType": "uint256",
              "name": "",
              "type": "uint256"
            }
          ],
          "stateMutability": "nonpayable",
          "type": "function"
        },
        {
          "inputs": [
            {
              "internalType": "uint256",
              "name": "eventId",
              "type": "uint256"
            }
          ],
          "name": "eventURI",
          "outputs": [
            {
              "internalType": "string[3]",
              "name": "",
              "type": "string[3]"
            }
          ],
          "stateMutability": "view",
          "type": "function"
        },
        {
          "inputs": [
            {
              "internalType": "string",
              "name": "_bidURI",
              "type": "string"
            }
          ],
          "name": "getBidIdByUri",
          "outputs": [
            {
              "internalType": "uint256",
              "name": "",
              "type": "uint256"
            }
          ],
          "stateMutability": "view",
          "type": "function"
        },
        {
          "inputs": [
            {
              "internalType": "uint256",
              "name": "TokenID",
              "type": "uint256"
            }
          ],
          "name": "getBidsSearchToken",
          "outputs": [
            {
              "internalType": "string[]",
              "name": "",
              "type": "string[]"
            }
          ],
          "stateMutability": "view",
          "type": "function"
        },
        {
          "inputs": [
            {
              "internalType": "uint256",
              "name": "_eventId",
              "type": "uint256"
            }
          ],
          "name": "getEventRaised",
          "outputs": [
            {
              "internalType": "string",
              "name": "",
              "type": "string"
            }
          ],
          "stateMutability": "view",
          "type": "function"
        },
        {
          "inputs": [
            {
              "internalType": "uint256",
              "name": "EventId",
              "type": "uint256"
            },
            {
              "internalType": "string",
              "name": "_tokenURI",
              "type": "string"
            }
          ],
          "name": "getGetEventsTokenID",
          "outputs": [
            {
              "internalType": "uint256",
              "name": "",
              "type": "uint256"
            }
          ],
          "stateMutability": "view",
          "type": "function"
        },
        {
          "inputs": [
            {
              "internalType": "string",
              "name": "Wallet",
              "type": "string"
            }
          ],
          "name": "getSearchEventbyWallet",
          "outputs": [
            {
              "internalType": "string[]",
              "name": "",
              "type": "string[]"
            }
          ],
          "stateMutability": "view",
          "type": "function"
        },
        {
          "inputs": [
            {
              "internalType": "uint256",
              "name": "EventID",
              "type": "uint256"
            }
          ],
          "name": "getTokensSearchEvent",
          "outputs": [
            {
              "internalType": "string[]",
              "name": "",
              "type": "string[]"
            }
          ],
          "stateMutability": "nonpayable",
          "type": "function"
        },
        {
          "inputs": [
            {
              "internalType": "uint256",
              "name": "TokenID",
              "type": "uint256"
            }
          ],
          "name": "getTotalBid",
          "outputs": [
            {
              "internalType": "string[]",
              "name": "",
              "type": "string[]"
            }
          ],
          "stateMutability": "view",
          "type": "function"
        },
        {
          "inputs": [
            {
              "internalType": "string",
              "name": "_eventURI",
              "type": "string"
            }
          ],
          "name": "geteventIdByUri",
          "outputs": [
            {
              "internalType": "uint256",
              "name": "",
              "type": "uint256"
            }
          ],
          "stateMutability": "view",
          "type": "function"
        },
        {
          "inputs": [
            {
              "internalType": "string",
              "name": "_tokenURI",
              "type": "string"
            }
          ],
          "name": "geteventIdFromTokenURI",
          "outputs": [
            {
              "internalType": "string",
              "name": "",
              "type": "string"
            }
          ],
          "stateMutability": "view",
          "type": "function"
        },
        {
          "inputs": [
            {
              "internalType": "string",
              "name": "_tokenURI",
              "type": "string"
            }
          ],
          "name": "gettokenIdByUri",
          "outputs": [
            {
              "internalType": "uint256",
              "name": "",
              "type": "uint256"
            }
          ],
          "stateMutability": "view",
          "type": "function"
        },
        {
          "inputs": [
            {
              "internalType": "uint256",
              "name": "EventID",
              "type": "uint256"
            }
          ],
          "name": "gettokenSearchEventTotal",
          "outputs": [
            {
              "internalType": "string[]",
              "name": "",
              "type": "string[]"
            }
          ],
          "stateMutability": "view",
          "type": "function"
        },
        {
          "inputs": [],
          "name": "owner",
          "outputs": [
            {
              "internalType": "address",
              "name": "",
              "type": "address"
            }
          ],
          "stateMutability": "view",
          "type": "function"
        },
        {
          "inputs": [
            {
              "internalType": "string",
              "name": "_str",
              "type": "string"
            }
          ],
          "name": "strToUint",
          "outputs": [
            {
              "internalType": "uint256",
              "name": "res",
              "type": "uint256"
            }
          ],
          "stateMutability": "pure",
          "type": "function"
        },
        {
          "inputs": [
            {
              "internalType": "uint256",
              "name": "tokenId",
              "type": "uint256"
            }
          ],
          "name": "tokenURI",
          "outputs": [
            {
              "internalType": "string",
              "name": "",
              "type": "string"
            }
          ],
          "stateMutability": "view",
          "type": "function"
        },
        {
          "inputs": [],
          "name": "totalEvent",
          "outputs": [
            {
              "internalType": "uint256",
              "name": "",
              "type": "uint256"
            }
          ],
          "stateMutability": "view",
          "type": "function"
        },
        {
          "inputs": [],
          "name": "totalSupply",
          "outputs": [
            {
              "internalType": "uint256",
              "name": "",
              "type": "uint256"
            }
          ],
          "stateMutability": "view",
          "type": "function"
        }
      ],
      "devdoc": {
        "kind": "dev",
        "methods": {},
        "version": 1
      },
      "evm": {
        "bytecode": {
          "linkReferences": {},
          "object": "608060405234801561001057600080fd5b50613d9e806100206000396000f3fe608060405234801561001057600080fd5b50600436106102485760003560e01c80638da5cb5b1161013b578063cd62ca1a116100b8578063e08033d31161007c578063e08033d314610809578063e1af189e14610825578063e257a94c14610855578063e8736f4014610885578063eb1d234d146108a357610248565b8063cd62ca1a1461072d578063ce9175911461075d578063d45fc5161461078d578063d654e993146107bd578063d8c23d34146107d957610248565b8063aed47961116100ff578063aed479611461063d578063b10a5dfa1461066d578063b5dd0f5b1461069d578063c5ef3ec5146106cd578063c87b56dd146106fd57610248565b80638da5cb5b14610573578063932a196b146105915780639dace298146105c15780639f9b376f146105dd578063a0fd0c6a1461060d57610248565b806335011d90116101c95780635154380a1161018d5780635154380a146104a957806361958158146104d95780637411c4bb146104f55780637cedbc1e146105255780637eadfa6a1461055557610248565b806335011d90146103e15780633592dd80146104115780633d4089c91461042d578063446a92e3146104495780634eb083ec1461047957610248565b806318160ddd1161021057806318160ddd146103035780631e65e11714610321578063209d72e61461035157806328520ab71461038157806329ccdcad146103b157610248565b8063015388681461024d57806306d9a55c146102695780630e1e27dd14610299578063144cbca6146102c95780631677bf08146102e7575b600080fd5b6102676004803603810190610262919061319f565b6108d3565b005b610283600480360381019061027e9190613383565b610913565b60405161029091906136b5565b60405180910390f35b6102b360048036038101906102ae919061300a565b6109c3565b6040516102c091906136b5565b60405180910390f35b6102d1610b26565b6040516102de91906136d7565b60405180910390f35b61030160048036038101906102fc919061319f565b610b2c565b005b61030b610b58565b60405161031891906136d7565b60405180910390f35b61033b6004803603810190610336919061300a565b610b61565b6040516103489190613693565b60405180910390f35b61036b6004803603810190610366919061300a565b610d85565b60405161037891906136b5565b60405180910390f35b61039b6004803603810190610396919061319f565b610ee8565b6040516103a891906136d7565b60405180910390f35b6103cb60048036038101906103c6919061300a565b610fc1565b6040516103d891906136d7565b60405180910390f35b6103fb60048036038101906103f69190612f9b565b6110b6565b60405161040891906136d7565b60405180910390f35b61042b600480360381019061042691906133c3565b61110c565b005b61044760048036038101906104429190613172565b611150565b005b610463600480360381019061045e9190613172565b6112e2565b60405161047091906136b5565b60405180910390f35b610493600480360381019061048e9190613172565b611387565b6040516104a091906136b5565b60405180910390f35b6104c360048036038101906104be9190613172565b61142c565b6040516104d09190613693565b60405180910390f35b6104f360048036038101906104ee91906131fb565b6115dc565b005b61050f600480360381019061050a9190613053565b611653565b60405161051c91906136d7565b60405180910390f35b61053f600480360381019061053a9190613172565b611765565b60405161054c91906136b5565b60405180910390f35b61055d61181e565b60405161056a91906136d7565b60405180910390f35b61057b611828565b6040516105889190613656565b60405180910390f35b6105ab60048036038101906105a6919061300a565b61184e565b6040516105b891906136d7565b60405180910390f35b6105db60048036038101906105d69190613286565b6118d1565b005b6105f760048036038101906105f29190613383565b611a61565b60405161060491906136b5565b60405180910390f35b61062760048036038101906106229190613172565b611b11565b6040516106349190613671565b60405180910390f35b61065760048036038101906106529190613172565b611bf1565b6040516106649190613693565b60405180910390f35b61068760048036038101906106829190613383565b611da1565b60405161069491906136b5565b60405180910390f35b6106b760048036038101906106b2919061300a565b611e51565b6040516106c491906136b5565b60405180910390f35b6106e760048036038101906106e2919061300a565b611fb4565b6040516106f491906136d7565b60405180910390f35b61071760048036038101906107129190613172565b6120c7565b60405161072491906136b5565b60405180910390f35b6107476004803603810190610742919061300a565b612180565b60405161075491906136d7565b60405180910390f35b610777600480360381019061077291906130cb565b612203565b60405161078491906136d7565b60405180910390f35b6107a760048036038101906107a2919061300a565b612338565b6040516107b491906136d7565b60405180910390f35b6107d760048036038101906107d291906133c3565b6123a7565b005b6107f360048036038101906107ee9190613172565b6123eb565b6040516108009190613693565b60405180910390f35b610823600480360381019061081e919061319f565b612630565b005b61083f600480360381019061083a919061300a565b61265c565b60405161084c9190613693565b60405180910390f35b61086f600480360381019061086a9190613053565b612890565b60405161087c91906136d7565b60405180910390f35b61088d612903565b60405161089a91906136d7565b60405180910390f35b6108bd60048036038101906108b89190613172565b612909565b6040516108ca9190613693565b60405180910390f35b80600e60008481526020019081526020016000206000600281106108fa576108f9613caa565b5b01908051906020019061090e929190612d2d565b505050565b600a602052816000526040600020816002811061092f57600080fd5b0160009150915050805461094290613b40565b80601f016020809104026020016040519081016040528092919081815260200182805461096e90613b40565b80156109bb5780601f10610990576101008083540402835291602001916109bb565b820191906000526020600020905b81548152906001019060200180831161099e57829003601f168201915b505050505081565b606060005b600354811015610ae757828051906020012060086000838152602001908152602001600020600160028110610a00576109ff613caa565b5b01604051610a0e919061363f565b60405180910390201415610ad45760086000828152602001908152602001600020600060028110610a4257610a41613caa565b5b018054610a4e90613b40565b80601f0160208091040260200160405190810160405280929190818152602001828054610a7a90613b40565b8015610ac75780601f10610a9c57610100808354040283529160200191610ac7565b820191906000526020600020905b815481529060010190602001808311610aaa57829003601f168201915b5050505050915050610b21565b8080610adf90613ba3565b9150506109c8565b506040518060400160405280600481526020017f6e6f6e650000000000000000000000000000000000000000000000000000000081525090505b919050565b60065481565b80601060008481526020019081526020016000209080519060200190610b53929190612d2d565b505050565b60008054905090565b606060008060005b600254811015610bdf578480519060200120600f6000838152602001908152602001600020600060038110610ba157610ba0613caa565b5b01604051610baf919061363f565b60405180910390201415610bcc578280610bc890613ba3565b9350505b8080610bd790613ba3565b915050610b69565b5060008267ffffffffffffffff811115610bfc57610bfb613cd9565b5b604051908082528060200260200182016040528015610c2f57816020015b6060815260200190600190039081610c1a5790505b50905060005b600254811015610d79578580519060200120600f6000838152602001908152602001600020600060038110610c6d57610c6c613caa565b5b01604051610c7b919061363f565b60405180910390201415610d6657600f6000828152602001908152602001600020600160038110610caf57610cae613caa565b5b018054610cbb90613b40565b80601f0160208091040260200160405190810160405280929190818152602001828054610ce790613b40565b8015610d345780601f10610d0957610100808354040283529160200191610d34565b820191906000526020600020905b815481529060010190602001808311610d1757829003601f168201915b5050505050828481518110610d4c57610d4b613caa565b5b60200260200101819052508280610d6290613ba3565b9350505b8080610d7190613ba3565b915050610c35565b50809350505050919050565b606060005b600554811015610ea9578280519060200120600a6000838152602001908152602001600020600060028110610dc257610dc1613caa565b5b01604051610dd0919061363f565b60405180910390201415610e9657600a6000828152602001908152602001600020600160028110610e0457610e03613caa565b5b018054610e1090613b40565b80601f0160208091040260200160405190810160405280929190818152602001828054610e3c90613b40565b8015610e895780601f10610e5e57610100808354040283529160200191610e89565b820191906000526020600020905b815481529060010190602001808311610e6c57829003601f168201915b5050505050915050610ee3565b8080610ea190613ba3565b915050610d8a565b506040518060400160405280600281526020017f7b7d00000000000000000000000000000000000000000000000000000000000081525090505b919050565b600080600090505b600354811015610fb557610f0384612b3c565b8051906020012060086000838152602001908152602001600020600060028110610f3057610f2f613caa565b5b01604051610f3e919061363f565b6040518091039020148015610f945750828051906020012060086000838152602001908152602001600020600160028110610f7c57610f7b613caa565b5b01604051610f8a919061363f565b6040518091039020145b15610fa25780915050610fbb565b8080610fad90613ba3565b915050610ef0565b50600090505b92915050565b600080600090505b6007548110156110aa578280519060200120600b600083815260200190815260200160002060016003811061100157611000613caa565b5b0160405161100f919061363f565b60405180910390201415611097576040518060400160405280600581526020017f46616c7365000000000000000000000000000000000000000000000000000000815250600b600083815260200190815260200160002060026003811061107957611078613caa565b5b01908051906020019061108d929190612d2d565b50809150506110b1565b80806110a290613ba3565b915050610fc9565b5060075490505b919050565b60006110c4600054846108d3565b6110d1600354838561110c565b6000808154809291906110e390613ba3565b9190505550600360008154809291906110fb90613ba3565b919050555060005490509392505050565b604051806040016040528061112084612b3c565b8152602001828152506008600085815260200190815260200160002090600261114a929190612db3565b50505050565b600061115b826123eb565b905060005b6006548110156112dd57600061118f83838151811061118257611181613caa565b5b602002602001015161184e565b90506000600e60008381526020019081526020016000206001600281106111b9576111b8613caa565b5b0180546111c590613b40565b80601f01602080910402602001604051908101604052809291908181526020018280546111f190613b40565b801561123e5780601f106112135761010080835404028352916020019161123e565b820191906000526020600020905b81548152906001019060200180831161122157829003601f168201915b505050505090506112578161125284612b3c565b612c9d565b6040518060400160405280600881526020017f46696e6973686564000000000000000000000000000000000000000000000000815250600f60008781526020019081526020016000206002600381106112b3576112b2613caa565b5b0190805190602001906112c7929190612d2d565b50505080806112d590613ba3565b915050611160565b505050565b6060600d6000838152602001908152602001600020805461130290613b40565b80601f016020809104026020016040519081016040528092919081815260200182805461132e90613b40565b801561137b5780601f106113505761010080835404028352916020019161137b565b820191906000526020600020905b81548152906001019060200180831161135e57829003601f168201915b50505050509050919050565b60606010600083815260200190815260200160002080546113a790613b40565b80601f01602080910402602001604051908101604052809291908181526020018280546113d390613b40565b80156114205780601f106113f557610100808354040283529160200191611420565b820191906000526020600020905b81548152906001019060200180831161140357829003601f168201915b50505050509050919050565b60606000600a67ffffffffffffffff81111561144b5761144a613cd9565b5b60405190808252806020026020018201604052801561147e57816020015b60608152602001906001900390816114695790505b5090506000805b6004548110156115d15761149885612b3c565b80519060200120600960008381526020019081526020016000206000600281106114c5576114c4613caa565b5b016040516114d3919061363f565b604051809103902014156115be576009600082815260200190815260200160002060016002811061150757611506613caa565b5b01805461151390613b40565b80601f016020809104026020016040519081016040528092919081815260200182805461153f90613b40565b801561158c5780601f106115615761010080835404028352916020019161158c565b820191906000526020600020905b81548152906001019060200180831161156f57829003601f168201915b50505050508383815181106115a4576115a3613caa565b5b602002602001018190525081806115ba90613ba3565b9250505b80806115c990613ba3565b915050611485565b508192505050919050565b60405180606001604052808381526020018281526020016040518060400160405280600581526020017f46616c7365000000000000000000000000000000000000000000000000000000815250815250600f600085815260200190815260200160002090600361164d929190612e06565b50505050565b600080600090505b600554811015611707578380519060200120600a600083815260200190815260200160002060006002811061169357611692613caa565b5b016040516116a1919061363f565b604051809103902014156116f45782600a60008381526020019081526020016000206001600281106116d6576116d5613caa565b5b0190805190602001906116ea929190612d2d565b508091505061175f565b80806116ff90613ba3565b91505061165b565b50604051806040016040528084815260200183815250600a60006005548152602001908152602001600020906002611740929190612db3565b506005600081548092919061175490613ba3565b919050555060055490505b92915050565b6060600c600083815260200190815260200160002060006002811061178d5761178c613caa565b5b01805461179990613b40565b80601f01602080910402602001604051908101604052809291908181526020018280546117c590613b40565b80156118125780601f106117e757610100808354040283529160200191611812565b820191906000526020600020905b8154815290600101906020018083116117f557829003601f168201915b50505050509050919050565b6000600254905090565b601260009054906101000a900473ffffffffffffffffffffffffffffffffffffffff1681565b600080600090505b6000548110156118c6578280519060200120600e600083815260200190815260200160002060006002811061188e5761188d613caa565b5b0160405161189c919061363f565b604051809103902014156118b357809150506118cc565b80806118be90613ba3565b915050611856565b50600090505b919050565b600061198c83600e60008a81526020019081526020016000206000600281106118fd576118fc613caa565b5b01805461190990613b40565b80601f016020809104026020016040519081016040528092919081815260200182805461193590613b40565b80156119825780601f1061195757610100808354040283529160200191611982565b820191906000526020600020905b81548152906001019060200180831161196557829003601f168201915b5050505050610ee8565b905084600e60008981526020019081526020016000206000600281106119b5576119b4613caa565b5b0190805190602001906119c9929190612d2d565b5083600e60008981526020019081526020016000206001600281106119f1576119f0613caa565b5b019080519060200190611a05929190612d2d565b50611a1181848761110c565b611a1b8383610b2c565b611a2860045488886123a7565b60046000815480929190611a3b90613ba3565b919050555060016000815480929190611a5390613ba3565b919050555050505050505050565b600b6020528160005260406000208160038110611a7d57600080fd5b01600091509150508054611a9090613b40565b80601f0160208091040260200160405190810160405280929190818152602001828054611abc90613b40565b8015611b095780601f10611ade57610100808354040283529160200191611b09565b820191906000526020600020905b815481529060010190602001808311611aec57829003601f168201915b505050505081565b611b19612e59565b600f6000838152602001908152602001600020600380602002604051908101604052809291906000905b82821015611be6578382018054611b5990613b40565b80601f0160208091040260200160405190810160405280929190818152602001828054611b8590613b40565b8015611bd25780601f10611ba757610100808354040283529160200191611bd2565b820191906000526020600020905b815481529060010190602001808311611bb557829003601f168201915b505050505081526020019060010190611b43565b505050509050919050565b60606000600a67ffffffffffffffff811115611c1057611c0f613cd9565b5b604051908082528060200260200182016040528015611c4357816020015b6060815260200190600190039081611c2e5790505b5090506000805b600454811015611d9657611c5d85612b3c565b8051906020012060096000838152602001908152602001600020600060028110611c8a57611c89613caa565b5b01604051611c98919061363f565b60405180910390201415611d835760096000828152602001908152602001600020600160028110611ccc57611ccb613caa565b5b018054611cd890613b40565b80601f0160208091040260200160405190810160405280929190818152602001828054611d0490613b40565b8015611d515780601f10611d2657610100808354040283529160200191611d51565b820191906000526020600020905b815481529060010190602001808311611d3457829003601f168201915b5050505050838381518110611d6957611d68613caa565b5b60200260200101819052508180611d7f90613ba3565b9250505b8080611d8e90613ba3565b915050611c4a565b508192505050919050565b600c6020528160005260406000208160028110611dbd57600080fd5b01600091509150508054611dd090613b40565b80601f0160208091040260200160405190810160405280929190818152602001828054611dfc90613b40565b8015611e495780601f10611e1e57610100808354040283529160200191611e49565b820191906000526020600020905b815481529060010190602001808311611e2c57829003601f168201915b505050505081565b606060005b600754811015611f75578280519060200120600b6000838152602001908152602001600020600160038110611e8e57611e8d613caa565b5b01604051611e9c919061363f565b60405180910390201415611f6257600b6000828152602001908152602001600020600260038110611ed057611ecf613caa565b5b018054611edc90613b40565b80601f0160208091040260200160405190810160405280929190818152602001828054611f0890613b40565b8015611f555780601f10611f2a57610100808354040283529160200191611f55565b820191906000526020600020905b815481529060010190602001808311611f3857829003601f168201915b5050505050915050611faf565b8080611f6d90613ba3565b915050611e56565b506040518060400160405280600581526020017f46616c736500000000000000000000000000000000000000000000000000000081525090505b919050565b600080600090505b82518110156120c05760006030848381518110611fdc57611fdb613caa565b5b602001015160f81c60f81b60f81c611ff49190613a81565b60ff16108061203257506009603084838151811061201557612014613caa565b5b602001015160f81c60f81b60f81c61202d9190613a81565b60ff16115b156120415760009150506120c2565b60018184516120509190613a4d565b61205a9190613a4d565b600a61206691906138d5565b603084838151811061207b5761207a613caa565b5b602001015160f81c60f81b60f81c6120939190613a81565b60ff166120a091906139f3565b826120ab91906137fb565b915080806120b890613ba3565b915050611fbc565b505b919050565b6060600e60008381526020019081526020016000206000600281106120ef576120ee613caa565b5b0180546120fb90613b40565b80601f016020809104026020016040519081016040528092919081815260200182805461212790613b40565b80156121745780601f1061214957610100808354040283529160200191612174565b820191906000526020600020905b81548152906001019060200180831161215757829003601f168201915b50505050509050919050565b600080600090505b6002548110156121f8578280519060200120600f60008381526020019081526020016000206001600381106121c0576121bf613caa565b5b016040516121ce919061363f565b604051809103902014156121e557809150506121fe565b80806121f090613ba3565b915050612188565b50600090505b919050565b600080600090505b600754811015612320578480519060200120600b600083815260200190815260200160002060016003811061224357612242613caa565b5b01604051612251919061363f565b6040518091039020141561230d5783600b600083815260200190815260200160002060006003811061228657612285613caa565b5b01908051906020019061229a929190612d2d565b506040518060400160405280600481526020017f5472756500000000000000000000000000000000000000000000000000000000815250600b60008381526020019081526020016000206002600381106122f7576122f6613caa565b5b01908051906020019061230b929190612d2d565b505b808061231890613ba3565b91505061220b565b5061232b8483611653565b5060055490509392505050565b600080600090505b60015481101561239c578280519060200120600d6000838152602001908152602001600020604051612372919061363f565b6040518091039020141561238957809150506123a2565b808061239490613ba3565b915050612340565b50600090505b919050565b60405180604001604052806123bb84612b3c565b815260200182815250600960008581526020019081526020016000209060026123e5929190612db3565b50505050565b60606000805b60035481101561246f5761240484612b3c565b805190602001206008600083815260200190815260200160002060006002811061243157612430613caa565b5b0160405161243f919061363f565b6040518091039020141561245c57818061245890613ba3565b9250505b808061246790613ba3565b9150506123f1565b5060008167ffffffffffffffff81111561248c5761248b613cd9565b5b6040519080825280602002602001820160405280156124bf57816020015b60608152602001906001900390816124aa5790505b509050600060068190555060005b600354811015612625576124e085612b3c565b805190602001206008600083815260200190815260200160002060006002811061250d5761250c613caa565b5b0160405161251b919061363f565b60405180910390201415612612576008600082815260200190815260200160002060016002811061254f5761254e613caa565b5b01805461255b90613b40565b80601f016020809104026020016040519081016040528092919081815260200182805461258790613b40565b80156125d45780601f106125a9576101008083540402835291602001916125d4565b820191906000526020600020905b8154815290600101906020018083116125b757829003601f168201915b505050505082600654815181106125ee576125ed613caa565b5b60200260200101819052506006600081548092919061260c90613ba3565b91905055505b808061261d90613ba3565b9150506124cd565b508092505050919050565b80600d60008481526020019081526020016000209080519060200190612657929190612d2d565b505050565b606060008060005b6007548110156126da578480519060200120600b600083815260200190815260200160002060006003811061269c5761269b613caa565b5b016040516126aa919061363f565b604051809103902014156126c75782806126c390613ba3565b9350505b80806126d290613ba3565b915050612664565b5060008267ffffffffffffffff8111156126f7576126f6613cd9565b5b60405190808252806020026020018201604052801561272a57816020015b60608152602001906001900390816127155790505b50905060005b600754811015612884578580519060200120600b600083815260200190815260200160002060006003811061276857612767613caa565b5b01604051612776919061363f565b604051809103902014156128715761284461283f600b60008481526020019081526020016000206001600381106127b0576127af613caa565b5b0180546127bc90613b40565b80601f01602080910402602001604051908101604052809291908181526020018280546127e890613b40565b80156128355780601f1061280a57610100808354040283529160200191612835565b820191906000526020600020905b81548152906001019060200180831161281857829003601f168201915b5050505050611fb4565b6120c7565b82848151811061285757612856613caa565b5b6020026020010181905250828061286d90613ba3565b9350505b808061287c90613ba3565b915050612730565b50809350505050919050565b600061289f60025484846115dc565b6128e06002546040518060400160405280600181526020017f3000000000000000000000000000000000000000000000000000000000000000815250610b2c565b600260008154809291906128f390613ba3565b9190505550600254905092915050565b60075481565b60606000805b60035481101561298d5761292284612b3c565b805190602001206008600083815260200190815260200160002060006002811061294f5761294e613caa565b5b0160405161295d919061363f565b6040518091039020141561297a57818061297690613ba3565b9250505b808061298590613ba3565b91505061290f565b5060008167ffffffffffffffff8111156129aa576129a9613cd9565b5b6040519080825280602002602001820160405280156129dd57816020015b60608152602001906001900390816129c85790505b5090506000805b600354811015612b30576129f786612b3c565b8051906020012060086000838152602001908152602001600020600060028110612a2457612a23613caa565b5b01604051612a32919061363f565b60405180910390201415612b1d5760086000828152602001908152602001600020600160028110612a6657612a65613caa565b5b018054612a7290613b40565b80601f0160208091040260200160405190810160405280929190818152602001828054612a9e90613b40565b8015612aeb5780601f10612ac057610100808354040283529160200191612aeb565b820191906000526020600020905b815481529060010190602001808311612ace57829003601f168201915b5050505050838381518110612b0357612b02613caa565b5b60200260200101819052508180612b1990613ba3565b9250505b8080612b2890613ba3565b9150506129e4565b50819350505050919050565b60606000821415612b84576040518060400160405280600181526020017f30000000000000000000000000000000000000000000000000000000000000008152509050612c98565b600082905060005b60008214612bb6578080612b9f90613ba3565b915050600a82612baf9190613851565b9150612b8c565b60008167ffffffffffffffff811115612bd257612bd1613cd9565b5b6040519080825280601f01601f191660200182016040528015612c045781602001600182028036833780820191505090505b5090505b60008514612c9157600182612c1d9190613a4d565b9150600a85612c2c9190613bec565b6030612c3891906137fb565b60f81b818381518110612c4e57612c4d613caa565b5b60200101907effffffffffffffffffffffffffffffffffffffffffffffffffffffffffffff1916908160001a905350600a85612c8a9190613851565b9450612c08565b8093505050505b919050565b60405180606001604052808381526020018281526020016040518060400160405280600581526020017f46616c7365000000000000000000000000000000000000000000000000000000815250815250600b60006007548152602001908152602001600020906003612d10929190612e06565b5060076000815480929190612d2490613ba3565b91905055505050565b828054612d3990613b40565b90600052602060002090601f016020900481019282612d5b5760008555612da2565b82601f10612d7457805160ff1916838001178555612da2565b82800160010185558215612da2579182015b82811115612da1578251825591602001919060010190612d86565b5b509050612daf9190612e80565b5090565b8260028101928215612df5579160200282015b82811115612df4578251829080519060200190612de4929190612d2d565b5091602001919060010190612dc6565b5b509050612e029190612e9d565b5090565b8260038101928215612e48579160200282015b82811115612e47578251829080519060200190612e37929190612d2d565b5091602001919060010190612e19565b5b509050612e559190612e9d565b5090565b60405180606001604052806003905b6060815260200190600190039081612e685790505090565b5b80821115612e99576000816000905550600101612e81565b5090565b5b80821115612ebd5760008181612eb49190612ec1565b50600101612e9e565b5090565b508054612ecd90613b40565b6000825580601f10612edf5750612efe565b601f016020900490600052602060002090810190612efd9190612e80565b5b50565b6000612f14612f0f84613717565b6136f2565b905082815260208101848484011115612f3057612f2f613d0d565b5b612f3b848285613afe565b509392505050565b600081359050612f5281613d3a565b92915050565b600082601f830112612f6d57612f6c613d08565b5b8135612f7d848260208601612f01565b91505092915050565b600081359050612f9581613d51565b92915050565b600080600060608486031215612fb457612fb3613d17565b5b6000612fc286828701612f43565b935050602084013567ffffffffffffffff811115612fe357612fe2613d12565b5b612fef86828701612f58565b925050604061300086828701612f86565b9150509250925092565b6000602082840312156130205761301f613d17565b5b600082013567ffffffffffffffff81111561303e5761303d613d12565b5b61304a84828501612f58565b91505092915050565b6000806040838503121561306a57613069613d17565b5b600083013567ffffffffffffffff81111561308857613087613d12565b5b61309485828601612f58565b925050602083013567ffffffffffffffff8111156130b5576130b4613d12565b5b6130c185828601612f58565b9150509250929050565b6000806000606084860312156130e4576130e3613d17565b5b600084013567ffffffffffffffff81111561310257613101613d12565b5b61310e86828701612f58565b935050602084013567ffffffffffffffff81111561312f5761312e613d12565b5b61313b86828701612f58565b925050604084013567ffffffffffffffff81111561315c5761315b613d12565b5b61316886828701612f58565b9150509250925092565b60006020828403121561318857613187613d17565b5b600061319684828501612f86565b91505092915050565b600080604083850312156131b6576131b5613d17565b5b60006131c485828601612f86565b925050602083013567ffffffffffffffff8111156131e5576131e4613d12565b5b6131f185828601612f58565b9150509250929050565b60008060006060848603121561321457613213613d17565b5b600061322286828701612f86565b935050602084013567ffffffffffffffff81111561324357613242613d12565b5b61324f86828701612f58565b925050604084013567ffffffffffffffff8111156132705761326f613d12565b5b61327c86828701612f58565b9150509250925092565b60008060008060008060c087890312156132a3576132a2613d17565b5b60006132b189828a01612f86565b965050602087013567ffffffffffffffff8111156132d2576132d1613d12565b5b6132de89828a01612f58565b955050604087013567ffffffffffffffff8111156132ff576132fe613d12565b5b61330b89828a01612f58565b945050606087013567ffffffffffffffff81111561332c5761332b613d12565b5b61333889828a01612f58565b935050608061334989828a01612f86565b92505060a087013567ffffffffffffffff81111561336a57613369613d12565b5b61337689828a01612f58565b9150509295509295509295565b6000806040838503121561339a57613399613d17565b5b60006133a885828601612f86565b92505060206133b985828601612f86565b9150509250929050565b6000806000606084860312156133dc576133db613d17565b5b60006133ea86828701612f86565b93505060206133fb86828701612f86565b925050604084013567ffffffffffffffff81111561341c5761341b613d12565b5b61342886828701612f58565b9150509250925092565b600061343e83836135be565b905092915050565b61344f81613ab5565b82525050565b600061346082613777565b61346a81856137b2565b93508360208202850161347c85613748565b8060005b858110156134b857848403895281516134998582613432565b94506134a483613798565b925060208a01995050600181019050613480565b50829750879550505050505092915050565b60006134d582613782565b6134df81856137bd565b9350836020820285016134f185613752565b8060005b8581101561352d578484038952815161350e8582613432565b9450613519836137a5565b925060208a019950506001810190506134f5565b50829750879550505050505092915050565b6000815461354c81613b40565b61355681866137ce565b945060018216600081146135715760018114613582576135b5565b60ff198316865281860193506135b5565b61358b85613762565b60005b838110156135ad5781548189015260018201915060208101905061358e565b838801955050505b50505092915050565b60006135c98261378d565b6135d381856137d9565b93506135e3818560208601613b0d565b6135ec81613d1c565b840191505092915050565b60006136028261378d565b61360c81856137ea565b935061361c818560208601613b0d565b61362581613d1c565b840191505092915050565b61363981613ae7565b82525050565b600061364b828461353f565b915081905092915050565b600060208201905061366b6000830184613446565b92915050565b6000602082019050818103600083015261368b8184613455565b905092915050565b600060208201905081810360008301526136ad81846134ca565b905092915050565b600060208201905081810360008301526136cf81846135f7565b905092915050565b60006020820190506136ec6000830184613630565b92915050565b60006136fc61370d565b90506137088282613b72565b919050565b6000604051905090565b600067ffffffffffffffff82111561373257613731613cd9565b5b61373b82613d1c565b9050602081019050919050565b6000819050919050565b6000819050602082019050919050565b60008190508160005260206000209050919050565b600060039050919050565b600081519050919050565b600081519050919050565b6000602082019050919050565b6000602082019050919050565b600081905092915050565b600082825260208201905092915050565b600081905092915050565b600082825260208201905092915050565b600082825260208201905092915050565b600061380682613ae7565b915061381183613ae7565b9250827fffffffffffffffffffffffffffffffffffffffffffffffffffffffffffffffff0382111561384657613845613c1d565b5b828201905092915050565b600061385c82613ae7565b915061386783613ae7565b92508261387757613876613c4c565b5b828204905092915050565b6000808291508390505b60018511156138cc578086048111156138a8576138a7613c1d565b5b60018516156138b75780820291505b80810290506138c585613d2d565b945061388c565b94509492505050565b60006138e082613ae7565b91506138eb83613ae7565b92506139187fffffffffffffffffffffffffffffffffffffffffffffffffffffffffffffffff8484613920565b905092915050565b60008261393057600190506139ec565b8161393e57600090506139ec565b8160018114613954576002811461395e5761398d565b60019150506139ec565b60ff8411156139705761396f613c1d565b5b8360020a91508482111561398757613986613c1d565b5b506139ec565b5060208310610133831016604e8410600b84101617156139c25782820a9050838111156139bd576139bc613c1d565b5b6139ec565b6139cf8484846001613882565b925090508184048111156139e6576139e5613c1d565b5b81810290505b9392505050565b60006139fe82613ae7565b9150613a0983613ae7565b9250817fffffffffffffffffffffffffffffffffffffffffffffffffffffffffffffffff0483118215151615613a4257613a41613c1d565b5b828202905092915050565b6000613a5882613ae7565b9150613a6383613ae7565b925082821015613a7657613a75613c1d565b5b828203905092915050565b6000613a8c82613af1565b9150613a9783613af1565b925082821015613aaa57613aa9613c1d565b5b828203905092915050565b6000613ac082613ac7565b9050919050565b600073ffffffffffffffffffffffffffffffffffffffff82169050919050565b6000819050919050565b600060ff82169050919050565b82818337600083830152505050565b60005b83811015613b2b578082015181840152602081019050613b10565b83811115613b3a576000848401525b50505050565b60006002820490506001821680613b5857607f821691505b60208210811415613b6c57613b6b613c7b565b5b50919050565b613b7b82613d1c565b810181811067ffffffffffffffff82111715613b9a57613b99613cd9565b5b80604052505050565b6000613bae82613ae7565b91507fffffffffffffffffffffffffffffffffffffffffffffffffffffffffffffffff821415613be157613be0613c1d565b5b600182019050919050565b6000613bf782613ae7565b9150613c0283613ae7565b925082613c1257613c11613c4c565b5b828206905092915050565b7f4e487b7100000000000000000000000000000000000000000000000000000000600052601160045260246000fd5b7f4e487b7100000000000000000000000000000000000000000000000000000000600052601260045260246000fd5b7f4e487b7100000000000000000000000000000000000000000000000000000000600052602260045260246000fd5b7f4e487b7100000000000000000000000000000000000000000000000000000000600052603260045260246000fd5b7f4e487b7100000000000000000000000000000000000000000000000000000000600052604160045260246000fd5b600080fd5b600080fd5b600080fd5b600080fd5b6000601f19601f8301169050919050565b60008160011c9050919050565b613d4381613ab5565b8114613d4e57600080fd5b50565b613d5a81613ae7565b8114613d6557600080fd5b5056fea2646970667358221220b4086f36f4f546c2217a09a2cfb8eb19ffd7e5b67dfe6b591289faff829d3a7064736f6c63430008060033",
          "opcodes": "PUSH1 0x80 PUSH1 0x40 MSTORE CALLVALUE DUP1 ISZERO PUSH2 0x10 JUMPI PUSH1 0x0 DUP1 REVERT JUMPDEST POP PUSH2 0x3D9E DUP1 PUSH2 0x20 PUSH1 0x0 CODECOPY PUSH1 0x0 RETURN INVALID PUSH1 0x80 PUSH1 0x40 MSTORE CALLVALUE DUP1 ISZERO PUSH2 0x10 JUMPI PUSH1 0x0 DUP1 REVERT JUMPDEST POP PUSH1 0x4 CALLDATASIZE LT PUSH2 0x248 JUMPI PUSH1 0x0 CALLDATALOAD PUSH1 0xE0 SHR DUP1 PUSH4 0x8DA5CB5B GT PUSH2 0x13B JUMPI DUP1 PUSH4 0xCD62CA1A GT PUSH2 0xB8 JUMPI DUP1 PUSH4 0xE08033D3 GT PUSH2 0x7C JUMPI DUP1 PUSH4 0xE08033D3 EQ PUSH2 0x809 JUMPI DUP1 PUSH4 0xE1AF189E EQ PUSH2 0x825 JUMPI DUP1 PUSH4 0xE257A94C EQ PUSH2 0x855 JUMPI DUP1 PUSH4 0xE8736F40 EQ PUSH2 0x885 JUMPI DUP1 PUSH4 0xEB1D234D EQ PUSH2 0x8A3 JUMPI PUSH2 0x248 JUMP JUMPDEST DUP1 PUSH4 0xCD62CA1A EQ PUSH2 0x72D JUMPI DUP1 PUSH4 0xCE917591 EQ PUSH2 0x75D JUMPI DUP1 PUSH4 0xD45FC516 EQ PUSH2 0x78D JUMPI DUP1 PUSH4 0xD654E993 EQ PUSH2 0x7BD JUMPI DUP1 PUSH4 0xD8C23D34 EQ PUSH2 0x7D9 JUMPI PUSH2 0x248 JUMP JUMPDEST DUP1 PUSH4 0xAED47961 GT PUSH2 0xFF JUMPI DUP1 PUSH4 0xAED47961 EQ PUSH2 0x63D JUMPI DUP1 PUSH4 0xB10A5DFA EQ PUSH2 0x66D JUMPI DUP1 PUSH4 0xB5DD0F5B EQ PUSH2 0x69D JUMPI DUP1 PUSH4 0xC5EF3EC5 EQ PUSH2 0x6CD JUMPI DUP1 PUSH4 0xC87B56DD EQ PUSH2 0x6FD JUMPI PUSH2 0x248 JUMP JUMPDEST DUP1 PUSH4 0x8DA5CB5B EQ PUSH2 0x573 JUMPI DUP1 PUSH4 0x932A196B EQ PUSH2 0x591 JUMPI DUP1 PUSH4 0x9DACE298 EQ PUSH2 0x5C1 JUMPI DUP1 PUSH4 0x9F9B376F EQ PUSH2 0x5DD JUMPI DUP1 PUSH4 0xA0FD0C6A EQ PUSH2 0x60D JUMPI PUSH2 0x248 JUMP JUMPDEST DUP1 PUSH4 0x35011D90 GT PUSH2 0x1C9 JUMPI DUP1 PUSH4 0x5154380A GT PUSH2 0x18D JUMPI DUP1 PUSH4 0x5154380A EQ PUSH2 0x4A9 JUMPI DUP1 PUSH4 0x61958158 EQ PUSH2 0x4D9 JUMPI DUP1 PUSH4 0x7411C4BB EQ PUSH2 0x4F5 JUMPI DUP1 PUSH4 0x7CEDBC1E EQ PUSH2 0x525 JUMPI DUP1 PUSH4 0x7EADFA6A EQ PUSH2 0x555 JUMPI PUSH2 0x248 JUMP JUMPDEST DUP1 PUSH4 0x35011D90 EQ PUSH2 0x3E1 JUMPI DUP1 PUSH4 0x3592DD80 EQ PUSH2 0x411 JUMPI DUP1 PUSH4 0x3D4089C9 EQ PUSH2 0x42D JUMPI DUP1 PUSH4 0x446A92E3 EQ PUSH2 0x449 JUMPI DUP1 PUSH4 0x4EB083EC EQ PUSH2 0x479 JUMPI PUSH2 0x248 JUMP JUMPDEST DUP1 PUSH4 0x18160DDD GT PUSH2 0x210 JUMPI DUP1 PUSH4 0x18160DDD EQ PUSH2 0x303 JUMPI DUP1 PUSH4 0x1E65E117 EQ PUSH2 0x321 JUMPI DUP1 PUSH4 0x209D72E6 EQ PUSH2 0x351 JUMPI DUP1 PUSH4 0x28520AB7 EQ PUSH2 0x381 JUMPI DUP1 PUSH4 0x29CCDCAD EQ PUSH2 0x3B1 JUMPI PUSH2 0x248 JUMP JUMPDEST DUP1 PUSH4 0x1538868 EQ PUSH2 0x24D JUMPI DUP1 PUSH4 0x6D9A55C EQ PUSH2 0x269 JUMPI DUP1 PUSH4 0xE1E27DD EQ PUSH2 0x299 JUMPI DUP1 PUSH4 0x144CBCA6 EQ PUSH2 0x2C9 JUMPI DUP1 PUSH4 0x1677BF08 EQ PUSH2 0x2E7 JUMPI JUMPDEST PUSH1 0x0 DUP1 REVERT JUMPDEST PUSH2 0x267 PUSH1 0x4 DUP1 CALLDATASIZE SUB DUP2 ADD SWAP1 PUSH2 0x262 SWAP2 SWAP1 PUSH2 0x319F JUMP JUMPDEST PUSH2 0x8D3 JUMP JUMPDEST STOP JUMPDEST PUSH2 0x283 PUSH1 0x4 DUP1 CALLDATASIZE SUB DUP2 ADD SWAP1 PUSH2 0x27E SWAP2 SWAP1 PUSH2 0x3383 JUMP JUMPDEST PUSH2 0x913 JUMP JUMPDEST PUSH1 0x40 MLOAD PUSH2 0x290 SWAP2 SWAP1 PUSH2 0x36B5 JUMP JUMPDEST PUSH1 0x40 MLOAD DUP1 SWAP2 SUB SWAP1 RETURN JUMPDEST PUSH2 0x2B3 PUSH1 0x4 DUP1 CALLDATASIZE SUB DUP2 ADD SWAP1 PUSH2 0x2AE SWAP2 SWAP1 PUSH2 0x300A JUMP JUMPDEST PUSH2 0x9C3 JUMP JUMPDEST PUSH1 0x40 MLOAD PUSH2 0x2C0 SWAP2 SWAP1 PUSH2 0x36B5 JUMP JUMPDEST PUSH1 0x40 MLOAD DUP1 SWAP2 SUB SWAP1 RETURN JUMPDEST PUSH2 0x2D1 PUSH2 0xB26 JUMP JUMPDEST PUSH1 0x40 MLOAD PUSH2 0x2DE SWAP2 SWAP1 PUSH2 0x36D7 JUMP JUMPDEST PUSH1 0x40 MLOAD DUP1 SWAP2 SUB SWAP1 RETURN JUMPDEST PUSH2 0x301 PUSH1 0x4 DUP1 CALLDATASIZE SUB DUP2 ADD SWAP1 PUSH2 0x2FC SWAP2 SWAP1 PUSH2 0x319F JUMP JUMPDEST PUSH2 0xB2C JUMP JUMPDEST STOP JUMPDEST PUSH2 0x30B PUSH2 0xB58 JUMP JUMPDEST PUSH1 0x40 MLOAD PUSH2 0x318 SWAP2 SWAP1 PUSH2 0x36D7 JUMP JUMPDEST PUSH1 0x40 MLOAD DUP1 SWAP2 SUB SWAP1 RETURN JUMPDEST PUSH2 0x33B PUSH1 0x4 DUP1 CALLDATASIZE SUB DUP2 ADD SWAP1 PUSH2 0x336 SWAP2 SWAP1 PUSH2 0x300A JUMP JUMPDEST PUSH2 0xB61 JUMP JUMPDEST PUSH1 0x40 MLOAD PUSH2 0x348 SWAP2 SWAP1 PUSH2 0x3693 JUMP JUMPDEST PUSH1 0x40 MLOAD DUP1 SWAP2 SUB SWAP1 RETURN JUMPDEST PUSH2 0x36B PUSH1 0x4 DUP1 CALLDATASIZE SUB DUP2 ADD SWAP1 PUSH2 0x366 SWAP2 SWAP1 PUSH2 0x300A JUMP JUMPDEST PUSH2 0xD85 JUMP JUMPDEST PUSH1 0x40 MLOAD PUSH2 0x378 SWAP2 SWAP1 PUSH2 0x36B5 JUMP JUMPDEST PUSH1 0x40 MLOAD DUP1 SWAP2 SUB SWAP1 RETURN JUMPDEST PUSH2 0x39B PUSH1 0x4 DUP1 CALLDATASIZE SUB DUP2 ADD SWAP1 PUSH2 0x396 SWAP2 SWAP1 PUSH2 0x319F JUMP JUMPDEST PUSH2 0xEE8 JUMP JUMPDEST PUSH1 0x40 MLOAD PUSH2 0x3A8 SWAP2 SWAP1 PUSH2 0x36D7 JUMP JUMPDEST PUSH1 0x40 MLOAD DUP1 SWAP2 SUB SWAP1 RETURN JUMPDEST PUSH2 0x3CB PUSH1 0x4 DUP1 CALLDATASIZE SUB DUP2 ADD SWAP1 PUSH2 0x3C6 SWAP2 SWAP1 PUSH2 0x300A JUMP JUMPDEST PUSH2 0xFC1 JUMP JUMPDEST PUSH1 0x40 MLOAD PUSH2 0x3D8 SWAP2 SWAP1 PUSH2 0x36D7 JUMP JUMPDEST PUSH1 0x40 MLOAD DUP1 SWAP2 SUB SWAP1 RETURN JUMPDEST PUSH2 0x3FB PUSH1 0x4 DUP1 CALLDATASIZE SUB DUP2 ADD SWAP1 PUSH2 0x3F6 SWAP2 SWAP1 PUSH2 0x2F9B JUMP JUMPDEST PUSH2 0x10B6 JUMP JUMPDEST PUSH1 0x40 MLOAD PUSH2 0x408 SWAP2 SWAP1 PUSH2 0x36D7 JUMP JUMPDEST PUSH1 0x40 MLOAD DUP1 SWAP2 SUB SWAP1 RETURN JUMPDEST PUSH2 0x42B PUSH1 0x4 DUP1 CALLDATASIZE SUB DUP2 ADD SWAP1 PUSH2 0x426 SWAP2 SWAP1 PUSH2 0x33C3 JUMP JUMPDEST PUSH2 0x110C JUMP JUMPDEST STOP JUMPDEST PUSH2 0x447 PUSH1 0x4 DUP1 CALLDATASIZE SUB DUP2 ADD SWAP1 PUSH2 0x442 SWAP2 SWAP1 PUSH2 0x3172 JUMP JUMPDEST PUSH2 0x1150 JUMP JUMPDEST STOP JUMPDEST PUSH2 0x463 PUSH1 0x4 DUP1 CALLDATASIZE SUB DUP2 ADD SWAP1 PUSH2 0x45E SWAP2 SWAP1 PUSH2 0x3172 JUMP JUMPDEST PUSH2 0x12E2 JUMP JUMPDEST PUSH1 0x40 MLOAD PUSH2 0x470 SWAP2 SWAP1 PUSH2 0x36B5 JUMP JUMPDEST PUSH1 0x40 MLOAD DUP1 SWAP2 SUB SWAP1 RETURN JUMPDEST PUSH2 0x493 PUSH1 0x4 DUP1 CALLDATASIZE SUB DUP2 ADD SWAP1 PUSH2 0x48E SWAP2 SWAP1 PUSH2 0x3172 JUMP JUMPDEST PUSH2 0x1387 JUMP JUMPDEST PUSH1 0x40 MLOAD PUSH2 0x4A0 SWAP2 SWAP1 PUSH2 0x36B5 JUMP JUMPDEST PUSH1 0x40 MLOAD DUP1 SWAP2 SUB SWAP1 RETURN JUMPDEST PUSH2 0x4C3 PUSH1 0x4 DUP1 CALLDATASIZE SUB DUP2 ADD SWAP1 PUSH2 0x4BE SWAP2 SWAP1 PUSH2 0x3172 JUMP JUMPDEST PUSH2 0x142C JUMP JUMPDEST PUSH1 0x40 MLOAD PUSH2 0x4D0 SWAP2 SWAP1 PUSH2 0x3693 JUMP JUMPDEST PUSH1 0x40 MLOAD DUP1 SWAP2 SUB SWAP1 RETURN JUMPDEST PUSH2 0x4F3 PUSH1 0x4 DUP1 CALLDATASIZE SUB DUP2 ADD SWAP1 PUSH2 0x4EE SWAP2 SWAP1 PUSH2 0x31FB JUMP JUMPDEST PUSH2 0x15DC JUMP JUMPDEST STOP JUMPDEST PUSH2 0x50F PUSH1 0x4 DUP1 CALLDATASIZE SUB DUP2 ADD SWAP1 PUSH2 0x50A SWAP2 SWAP1 PUSH2 0x3053 JUMP JUMPDEST PUSH2 0x1653 JUMP JUMPDEST PUSH1 0x40 MLOAD PUSH2 0x51C SWAP2 SWAP1 PUSH2 0x36D7 JUMP JUMPDEST PUSH1 0x40 MLOAD DUP1 SWAP2 SUB SWAP1 RETURN JUMPDEST PUSH2 0x53F PUSH1 0x4 DUP1 CALLDATASIZE SUB DUP2 ADD SWAP1 PUSH2 0x53A SWAP2 SWAP1 PUSH2 0x3172 JUMP JUMPDEST PUSH2 0x1765 JUMP JUMPDEST PUSH1 0x40 MLOAD PUSH2 0x54C SWAP2 SWAP1 PUSH2 0x36B5 JUMP JUMPDEST PUSH1 0x40 MLOAD DUP1 SWAP2 SUB SWAP1 RETURN JUMPDEST PUSH2 0x55D PUSH2 0x181E JUMP JUMPDEST PUSH1 0x40 MLOAD PUSH2 0x56A SWAP2 SWAP1 PUSH2 0x36D7 JUMP JUMPDEST PUSH1 0x40 MLOAD DUP1 SWAP2 SUB SWAP1 RETURN JUMPDEST PUSH2 0x57B PUSH2 0x1828 JUMP JUMPDEST PUSH1 0x40 MLOAD PUSH2 0x588 SWAP2 SWAP1 PUSH2 0x3656 JUMP JUMPDEST PUSH1 0x40 MLOAD DUP1 SWAP2 SUB SWAP1 RETURN JUMPDEST PUSH2 0x5AB PUSH1 0x4 DUP1 CALLDATASIZE SUB DUP2 ADD SWAP1 PUSH2 0x5A6 SWAP2 SWAP1 PUSH2 0x300A JUMP JUMPDEST PUSH2 0x184E JUMP JUMPDEST PUSH1 0x40 MLOAD PUSH2 0x5B8 SWAP2 SWAP1 PUSH2 0x36D7 JUMP JUMPDEST PUSH1 0x40 MLOAD DUP1 SWAP2 SUB SWAP1 RETURN JUMPDEST PUSH2 0x5DB PUSH1 0x4 DUP1 CALLDATASIZE SUB DUP2 ADD SWAP1 PUSH2 0x5D6 SWAP2 SWAP1 PUSH2 0x3286 JUMP JUMPDEST PUSH2 0x18D1 JUMP JUMPDEST STOP JUMPDEST PUSH2 0x5F7 PUSH1 0x4 DUP1 CALLDATASIZE SUB DUP2 ADD SWAP1 PUSH2 0x5F2 SWAP2 SWAP1 PUSH2 0x3383 JUMP JUMPDEST PUSH2 0x1A61 JUMP JUMPDEST PUSH1 0x40 MLOAD PUSH2 0x604 SWAP2 SWAP1 PUSH2 0x36B5 JUMP JUMPDEST PUSH1 0x40 MLOAD DUP1 SWAP2 SUB SWAP1 RETURN JUMPDEST PUSH2 0x627 PUSH1 0x4 DUP1 CALLDATASIZE SUB DUP2 ADD SWAP1 PUSH2 0x622 SWAP2 SWAP1 PUSH2 0x3172 JUMP JUMPDEST PUSH2 0x1B11 JUMP JUMPDEST PUSH1 0x40 MLOAD PUSH2 0x634 SWAP2 SWAP1 PUSH2 0x3671 JUMP JUMPDEST PUSH1 0x40 MLOAD DUP1 SWAP2 SUB SWAP1 RETURN JUMPDEST PUSH2 0x657 PUSH1 0x4 DUP1 CALLDATASIZE SUB DUP2 ADD SWAP1 PUSH2 0x652 SWAP2 SWAP1 PUSH2 0x3172 JUMP JUMPDEST PUSH2 0x1BF1 JUMP JUMPDEST PUSH1 0x40 MLOAD PUSH2 0x664 SWAP2 SWAP1 PUSH2 0x3693 JUMP JUMPDEST PUSH1 0x40 MLOAD DUP1 SWAP2 SUB SWAP1 RETURN JUMPDEST PUSH2 0x687 PUSH1 0x4 DUP1 CALLDATASIZE SUB DUP2 ADD SWAP1 PUSH2 0x682 SWAP2 SWAP1 PUSH2 0x3383 JUMP JUMPDEST PUSH2 0x1DA1 JUMP JUMPDEST PUSH1 0x40 MLOAD PUSH2 0x694 SWAP2 SWAP1 PUSH2 0x36B5 JUMP JUMPDEST PUSH1 0x40 MLOAD DUP1 SWAP2 SUB SWAP1 RETURN JUMPDEST PUSH2 0x6B7 PUSH1 0x4 DUP1 CALLDATASIZE SUB DUP2 ADD SWAP1 PUSH2 0x6B2 SWAP2 SWAP1 PUSH2 0x300A JUMP JUMPDEST PUSH2 0x1E51 JUMP JUMPDEST PUSH1 0x40 MLOAD PUSH2 0x6C4 SWAP2 SWAP1 PUSH2 0x36B5 JUMP JUMPDEST PUSH1 0x40 MLOAD DUP1 SWAP2 SUB SWAP1 RETURN JUMPDEST PUSH2 0x6E7 PUSH1 0x4 DUP1 CALLDATASIZE SUB DUP2 ADD SWAP1 PUSH2 0x6E2 SWAP2 SWAP1 PUSH2 0x300A JUMP JUMPDEST PUSH2 0x1FB4 JUMP JUMPDEST PUSH1 0x40 MLOAD PUSH2 0x6F4 SWAP2 SWAP1 PUSH2 0x36D7 JUMP JUMPDEST PUSH1 0x40 MLOAD DUP1 SWAP2 SUB SWAP1 RETURN JUMPDEST PUSH2 0x717 PUSH1 0x4 DUP1 CALLDATASIZE SUB DUP2 ADD SWAP1 PUSH2 0x712 SWAP2 SWAP1 PUSH2 0x3172 JUMP JUMPDEST PUSH2 0x20C7 JUMP JUMPDEST PUSH1 0x40 MLOAD PUSH2 0x724 SWAP2 SWAP1 PUSH2 0x36B5 JUMP JUMPDEST PUSH1 0x40 MLOAD DUP1 SWAP2 SUB SWAP1 RETURN JUMPDEST PUSH2 0x747 PUSH1 0x4 DUP1 CALLDATASIZE SUB DUP2 ADD SWAP1 PUSH2 0x742 SWAP2 SWAP1 PUSH2 0x300A JUMP JUMPDEST PUSH2 0x2180 JUMP JUMPDEST PUSH1 0x40 MLOAD PUSH2 0x754 SWAP2 SWAP1 PUSH2 0x36D7 JUMP JUMPDEST PUSH1 0x40 MLOAD DUP1 SWAP2 SUB SWAP1 RETURN JUMPDEST PUSH2 0x777 PUSH1 0x4 DUP1 CALLDATASIZE SUB DUP2 ADD SWAP1 PUSH2 0x772 SWAP2 SWAP1 PUSH2 0x30CB JUMP JUMPDEST PUSH2 0x2203 JUMP JUMPDEST PUSH1 0x40 MLOAD PUSH2 0x784 SWAP2 SWAP1 PUSH2 0x36D7 JUMP JUMPDEST PUSH1 0x40 MLOAD DUP1 SWAP2 SUB SWAP1 RETURN JUMPDEST PUSH2 0x7A7 PUSH1 0x4 DUP1 CALLDATASIZE SUB DUP2 ADD SWAP1 PUSH2 0x7A2 SWAP2 SWAP1 PUSH2 0x300A JUMP JUMPDEST PUSH2 0x2338 JUMP JUMPDEST PUSH1 0x40 MLOAD PUSH2 0x7B4 SWAP2 SWAP1 PUSH2 0x36D7 JUMP JUMPDEST PUSH1 0x40 MLOAD DUP1 SWAP2 SUB SWAP1 RETURN JUMPDEST PUSH2 0x7D7 PUSH1 0x4 DUP1 CALLDATASIZE SUB DUP2 ADD SWAP1 PUSH2 0x7D2 SWAP2 SWAP1 PUSH2 0x33C3 JUMP JUMPDEST PUSH2 0x23A7 JUMP JUMPDEST STOP JUMPDEST PUSH2 0x7F3 PUSH1 0x4 DUP1 CALLDATASIZE SUB DUP2 ADD SWAP1 PUSH2 0x7EE SWAP2 SWAP1 PUSH2 0x3172 JUMP JUMPDEST PUSH2 0x23EB JUMP JUMPDEST PUSH1 0x40 MLOAD PUSH2 0x800 SWAP2 SWAP1 PUSH2 0x3693 JUMP JUMPDEST PUSH1 0x40 MLOAD DUP1 SWAP2 SUB SWAP1 RETURN JUMPDEST PUSH2 0x823 PUSH1 0x4 DUP1 CALLDATASIZE SUB DUP2 ADD SWAP1 PUSH2 0x81E SWAP2 SWAP1 PUSH2 0x319F JUMP JUMPDEST PUSH2 0x2630 JUMP JUMPDEST STOP JUMPDEST PUSH2 0x83F PUSH1 0x4 DUP1 CALLDATASIZE SUB DUP2 ADD SWAP1 PUSH2 0x83A SWAP2 SWAP1 PUSH2 0x300A JUMP JUMPDEST PUSH2 0x265C JUMP JUMPDEST PUSH1 0x40 MLOAD PUSH2 0x84C SWAP2 SWAP1 PUSH2 0x3693 JUMP JUMPDEST PUSH1 0x40 MLOAD DUP1 SWAP2 SUB SWAP1 RETURN JUMPDEST PUSH2 0x86F PUSH1 0x4 DUP1 CALLDATASIZE SUB DUP2 ADD SWAP1 PUSH2 0x86A SWAP2 SWAP1 PUSH2 0x3053 JUMP JUMPDEST PUSH2 0x2890 JUMP JUMPDEST PUSH1 0x40 MLOAD PUSH2 0x87C SWAP2 SWAP1 PUSH2 0x36D7 JUMP JUMPDEST PUSH1 0x40 MLOAD DUP1 SWAP2 SUB SWAP1 RETURN JUMPDEST PUSH2 0x88D PUSH2 0x2903 JUMP JUMPDEST PUSH1 0x40 MLOAD PUSH2 0x89A SWAP2 SWAP1 PUSH2 0x36D7 JUMP JUMPDEST PUSH1 0x40 MLOAD DUP1 SWAP2 SUB SWAP1 RETURN JUMPDEST PUSH2 0x8BD PUSH1 0x4 DUP1 CALLDATASIZE SUB DUP2 ADD SWAP1 PUSH2 0x8B8 SWAP2 SWAP1 PUSH2 0x3172 JUMP JUMPDEST PUSH2 0x2909 JUMP JUMPDEST PUSH1 0x40 MLOAD PUSH2 0x8CA SWAP2 SWAP1 PUSH2 0x3693 JUMP JUMPDEST PUSH1 0x40 MLOAD DUP1 SWAP2 SUB SWAP1 RETURN JUMPDEST DUP1 PUSH1 0xE PUSH1 0x0 DUP5 DUP2 MSTORE PUSH1 0x20 ADD SWAP1 DUP2 MSTORE PUSH1 0x20 ADD PUSH1 0x0 KECCAK256 PUSH1 0x0 PUSH1 0x2 DUP2 LT PUSH2 0x8FA JUMPI PUSH2 0x8F9 PUSH2 0x3CAA JUMP JUMPDEST JUMPDEST ADD SWAP1 DUP1 MLOAD SWAP1 PUSH1 0x20 ADD SWAP1 PUSH2 0x90E SWAP3 SWAP2 SWAP1 PUSH2 0x2D2D JUMP JUMPDEST POP POP POP JUMP JUMPDEST PUSH1 0xA PUSH1 0x20 MSTORE DUP2 PUSH1 0x0 MSTORE PUSH1 0x40 PUSH1 0x0 KECCAK256 DUP2 PUSH1 0x2 DUP2 LT PUSH2 0x92F JUMPI PUSH1 0x0 DUP1 REVERT JUMPDEST ADD PUSH1 0x0 SWAP2 POP SWAP2 POP POP DUP1 SLOAD PUSH2 0x942 SWAP1 PUSH2 0x3B40 JUMP JUMPDEST DUP1 PUSH1 0x1F ADD PUSH1 0x20 DUP1 SWAP2 DIV MUL PUSH1 0x20 ADD PUSH1 0x40 MLOAD SWAP1 DUP2 ADD PUSH1 0x40 MSTORE DUP1 SWAP3 SWAP2 SWAP1 DUP2 DUP2 MSTORE PUSH1 0x20 ADD DUP3 DUP1 SLOAD PUSH2 0x96E SWAP1 PUSH2 0x3B40 JUMP JUMPDEST DUP1 ISZERO PUSH2 0x9BB JUMPI DUP1 PUSH1 0x1F LT PUSH2 0x990 JUMPI PUSH2 0x100 DUP1 DUP4 SLOAD DIV MUL DUP4 MSTORE SWAP2 PUSH1 0x20 ADD SWAP2 PUSH2 0x9BB JUMP JUMPDEST DUP3 ADD SWAP2 SWAP1 PUSH1 0x0 MSTORE PUSH1 0x20 PUSH1 0x0 KECCAK256 SWAP1 JUMPDEST DUP2 SLOAD DUP2 MSTORE SWAP1 PUSH1 0x1 ADD SWAP1 PUSH1 0x20 ADD DUP1 DUP4 GT PUSH2 0x99E JUMPI DUP3 SWAP1 SUB PUSH1 0x1F AND DUP3 ADD SWAP2 JUMPDEST POP POP POP POP POP DUP2 JUMP JUMPDEST PUSH1 0x60 PUSH1 0x0 JUMPDEST PUSH1 0x3 SLOAD DUP2 LT ISZERO PUSH2 0xAE7 JUMPI DUP3 DUP1 MLOAD SWAP1 PUSH1 0x20 ADD KECCAK256 PUSH1 0x8 PUSH1 0x0 DUP4 DUP2 MSTORE PUSH1 0x20 ADD SWAP1 DUP2 MSTORE PUSH1 0x20 ADD PUSH1 0x0 KECCAK256 PUSH1 0x1 PUSH1 0x2 DUP2 LT PUSH2 0xA00 JUMPI PUSH2 0x9FF PUSH2 0x3CAA JUMP JUMPDEST JUMPDEST ADD PUSH1 0x40 MLOAD PUSH2 0xA0E SWAP2 SWAP1 PUSH2 0x363F JUMP JUMPDEST PUSH1 0x40 MLOAD DUP1 SWAP2 SUB SWAP1 KECCAK256 EQ ISZERO PUSH2 0xAD4 JUMPI PUSH1 0x8 PUSH1 0x0 DUP3 DUP2 MSTORE PUSH1 0x20 ADD SWAP1 DUP2 MSTORE PUSH1 0x20 ADD PUSH1 0x0 KECCAK256 PUSH1 0x0 PUSH1 0x2 DUP2 LT PUSH2 0xA42 JUMPI PUSH2 0xA41 PUSH2 0x3CAA JUMP JUMPDEST JUMPDEST ADD DUP1 SLOAD PUSH2 0xA4E SWAP1 PUSH2 0x3B40 JUMP JUMPDEST DUP1 PUSH1 0x1F ADD PUSH1 0x20 DUP1 SWAP2 DIV MUL PUSH1 0x20 ADD PUSH1 0x40 MLOAD SWAP1 DUP2 ADD PUSH1 0x40 MSTORE DUP1 SWAP3 SWAP2 SWAP1 DUP2 DUP2 MSTORE PUSH1 0x20 ADD DUP3 DUP1 SLOAD PUSH2 0xA7A SWAP1 PUSH2 0x3B40 JUMP JUMPDEST DUP1 ISZERO PUSH2 0xAC7 JUMPI DUP1 PUSH1 0x1F LT PUSH2 0xA9C JUMPI PUSH2 0x100 DUP1 DUP4 SLOAD DIV MUL DUP4 MSTORE SWAP2 PUSH1 0x20 ADD SWAP2 PUSH2 0xAC7 JUMP JUMPDEST DUP3 ADD SWAP2 SWAP1 PUSH1 0x0 MSTORE PUSH1 0x20 PUSH1 0x0 KECCAK256 SWAP1 JUMPDEST DUP2 SLOAD DUP2 MSTORE SWAP1 PUSH1 0x1 ADD SWAP1 PUSH1 0x20 ADD DUP1 DUP4 GT PUSH2 0xAAA JUMPI DUP3 SWAP1 SUB PUSH1 0x1F AND DUP3 ADD SWAP2 JUMPDEST POP POP POP POP POP SWAP2 POP POP PUSH2 0xB21 JUMP JUMPDEST DUP1 DUP1 PUSH2 0xADF SWAP1 PUSH2 0x3BA3 JUMP JUMPDEST SWAP2 POP POP PUSH2 0x9C8 JUMP JUMPDEST POP PUSH1 0x40 MLOAD DUP1 PUSH1 0x40 ADD PUSH1 0x40 MSTORE DUP1 PUSH1 0x4 DUP2 MSTORE PUSH1 0x20 ADD PUSH32 0x6E6F6E6500000000000000000000000000000000000000000000000000000000 DUP2 MSTORE POP SWAP1 POP JUMPDEST SWAP2 SWAP1 POP JUMP JUMPDEST PUSH1 0x6 SLOAD DUP2 JUMP JUMPDEST DUP1 PUSH1 0x10 PUSH1 0x0 DUP5 DUP2 MSTORE PUSH1 0x20 ADD SWAP1 DUP2 MSTORE PUSH1 0x20 ADD PUSH1 0x0 KECCAK256 SWAP1 DUP1 MLOAD SWAP1 PUSH1 0x20 ADD SWAP1 PUSH2 0xB53 SWAP3 SWAP2 SWAP1 PUSH2 0x2D2D JUMP JUMPDEST POP POP POP JUMP JUMPDEST PUSH1 0x0 DUP1 SLOAD SWAP1 POP SWAP1 JUMP JUMPDEST PUSH1 0x60 PUSH1 0x0 DUP1 PUSH1 0x0 JUMPDEST PUSH1 0x2 SLOAD DUP2 LT ISZERO PUSH2 0xBDF JUMPI DUP5 DUP1 MLOAD SWAP1 PUSH1 0x20 ADD KECCAK256 PUSH1 0xF PUSH1 0x0 DUP4 DUP2 MSTORE PUSH1 0x20 ADD SWAP1 DUP2 MSTORE PUSH1 0x20 ADD PUSH1 0x0 KECCAK256 PUSH1 0x0 PUSH1 0x3 DUP2 LT PUSH2 0xBA1 JUMPI PUSH2 0xBA0 PUSH2 0x3CAA JUMP JUMPDEST JUMPDEST ADD PUSH1 0x40 MLOAD PUSH2 0xBAF SWAP2 SWAP1 PUSH2 0x363F JUMP JUMPDEST PUSH1 0x40 MLOAD DUP1 SWAP2 SUB SWAP1 KECCAK256 EQ ISZERO PUSH2 0xBCC JUMPI DUP3 DUP1 PUSH2 0xBC8 SWAP1 PUSH2 0x3BA3 JUMP JUMPDEST SWAP4 POP POP JUMPDEST DUP1 DUP1 PUSH2 0xBD7 SWAP1 PUSH2 0x3BA3 JUMP JUMPDEST SWAP2 POP POP PUSH2 0xB69 JUMP JUMPDEST POP PUSH1 0x0 DUP3 PUSH8 0xFFFFFFFFFFFFFFFF DUP2 GT ISZERO PUSH2 0xBFC JUMPI PUSH2 0xBFB PUSH2 0x3CD9 JUMP JUMPDEST JUMPDEST PUSH1 0x40 MLOAD SWAP1 DUP1 DUP3 MSTORE DUP1 PUSH1 0x20 MUL PUSH1 0x20 ADD DUP3 ADD PUSH1 0x40 MSTORE DUP1 ISZERO PUSH2 0xC2F JUMPI DUP2 PUSH1 0x20 ADD JUMPDEST PUSH1 0x60 DUP2 MSTORE PUSH1 0x20 ADD SWAP1 PUSH1 0x1 SWAP1 SUB SWAP1 DUP2 PUSH2 0xC1A JUMPI SWAP1 POP JUMPDEST POP SWAP1 POP PUSH1 0x0 JUMPDEST PUSH1 0x2 SLOAD DUP2 LT ISZERO PUSH2 0xD79 JUMPI DUP6 DUP1 MLOAD SWAP1 PUSH1 0x20 ADD KECCAK256 PUSH1 0xF PUSH1 0x0 DUP4 DUP2 MSTORE PUSH1 0x20 ADD SWAP1 DUP2 MSTORE PUSH1 0x20 ADD PUSH1 0x0 KECCAK256 PUSH1 0x0 PUSH1 0x3 DUP2 LT PUSH2 0xC6D JUMPI PUSH2 0xC6C PUSH2 0x3CAA JUMP JUMPDEST JUMPDEST ADD PUSH1 0x40 MLOAD PUSH2 0xC7B SWAP2 SWAP1 PUSH2 0x363F JUMP JUMPDEST PUSH1 0x40 MLOAD DUP1 SWAP2 SUB SWAP1 KECCAK256 EQ ISZERO PUSH2 0xD66 JUMPI PUSH1 0xF PUSH1 0x0 DUP3 DUP2 MSTORE PUSH1 0x20 ADD SWAP1 DUP2 MSTORE PUSH1 0x20 ADD PUSH1 0x0 KECCAK256 PUSH1 0x1 PUSH1 0x3 DUP2 LT PUSH2 0xCAF JUMPI PUSH2 0xCAE PUSH2 0x3CAA JUMP JUMPDEST JUMPDEST ADD DUP1 SLOAD PUSH2 0xCBB SWAP1 PUSH2 0x3B40 JUMP JUMPDEST DUP1 PUSH1 0x1F ADD PUSH1 0x20 DUP1 SWAP2 DIV MUL PUSH1 0x20 ADD PUSH1 0x40 MLOAD SWAP1 DUP2 ADD PUSH1 0x40 MSTORE DUP1 SWAP3 SWAP2 SWAP1 DUP2 DUP2 MSTORE PUSH1 0x20 ADD DUP3 DUP1 SLOAD PUSH2 0xCE7 SWAP1 PUSH2 0x3B40 JUMP JUMPDEST DUP1 ISZERO PUSH2 0xD34 JUMPI DUP1 PUSH1 0x1F LT PUSH2 0xD09 JUMPI PUSH2 0x100 DUP1 DUP4 SLOAD DIV MUL DUP4 MSTORE SWAP2 PUSH1 0x20 ADD SWAP2 PUSH2 0xD34 JUMP JUMPDEST DUP3 ADD SWAP2 SWAP1 PUSH1 0x0 MSTORE PUSH1 0x20 PUSH1 0x0 KECCAK256 SWAP1 JUMPDEST DUP2 SLOAD DUP2 MSTORE SWAP1 PUSH1 0x1 ADD SWAP1 PUSH1 0x20 ADD DUP1 DUP4 GT PUSH2 0xD17 JUMPI DUP3 SWAP1 SUB PUSH1 0x1F AND DUP3 ADD SWAP2 JUMPDEST POP POP POP POP POP DUP3 DUP5 DUP2 MLOAD DUP2 LT PUSH2 0xD4C JUMPI PUSH2 0xD4B PUSH2 0x3CAA JUMP JUMPDEST JUMPDEST PUSH1 0x20 MUL PUSH1 0x20 ADD ADD DUP2 SWAP1 MSTORE POP DUP3 DUP1 PUSH2 0xD62 SWAP1 PUSH2 0x3BA3 JUMP JUMPDEST SWAP4 POP POP JUMPDEST DUP1 DUP1 PUSH2 0xD71 SWAP1 PUSH2 0x3BA3 JUMP JUMPDEST SWAP2 POP POP PUSH2 0xC35 JUMP JUMPDEST POP DUP1 SWAP4 POP POP POP POP SWAP2 SWAP1 POP JUMP JUMPDEST PUSH1 0x60 PUSH1 0x0 JUMPDEST PUSH1 0x5 SLOAD DUP2 LT ISZERO PUSH2 0xEA9 JUMPI DUP3 DUP1 MLOAD SWAP1 PUSH1 0x20 ADD KECCAK256 PUSH1 0xA PUSH1 0x0 DUP4 DUP2 MSTORE PUSH1 0x20 ADD SWAP1 DUP2 MSTORE PUSH1 0x20 ADD PUSH1 0x0 KECCAK256 PUSH1 0x0 PUSH1 0x2 DUP2 LT PUSH2 0xDC2 JUMPI PUSH2 0xDC1 PUSH2 0x3CAA JUMP JUMPDEST JUMPDEST ADD PUSH1 0x40 MLOAD PUSH2 0xDD0 SWAP2 SWAP1 PUSH2 0x363F JUMP JUMPDEST PUSH1 0x40 MLOAD DUP1 SWAP2 SUB SWAP1 KECCAK256 EQ ISZERO PUSH2 0xE96 JUMPI PUSH1 0xA PUSH1 0x0 DUP3 DUP2 MSTORE PUSH1 0x20 ADD SWAP1 DUP2 MSTORE PUSH1 0x20 ADD PUSH1 0x0 KECCAK256 PUSH1 0x1 PUSH1 0x2 DUP2 LT PUSH2 0xE04 JUMPI PUSH2 0xE03 PUSH2 0x3CAA JUMP JUMPDEST JUMPDEST ADD DUP1 SLOAD PUSH2 0xE10 SWAP1 PUSH2 0x3B40 JUMP JUMPDEST DUP1 PUSH1 0x1F ADD PUSH1 0x20 DUP1 SWAP2 DIV MUL PUSH1 0x20 ADD PUSH1 0x40 MLOAD SWAP1 DUP2 ADD PUSH1 0x40 MSTORE DUP1 SWAP3 SWAP2 SWAP1 DUP2 DUP2 MSTORE PUSH1 0x20 ADD DUP3 DUP1 SLOAD PUSH2 0xE3C SWAP1 PUSH2 0x3B40 JUMP JUMPDEST DUP1 ISZERO PUSH2 0xE89 JUMPI DUP1 PUSH1 0x1F LT PUSH2 0xE5E JUMPI PUSH2 0x100 DUP1 DUP4 SLOAD DIV MUL DUP4 MSTORE SWAP2 PUSH1 0x20 ADD SWAP2 PUSH2 0xE89 JUMP JUMPDEST DUP3 ADD SWAP2 SWAP1 PUSH1 0x0 MSTORE PUSH1 0x20 PUSH1 0x0 KECCAK256 SWAP1 JUMPDEST DUP2 SLOAD DUP2 MSTORE SWAP1 PUSH1 0x1 ADD SWAP1 PUSH1 0x20 ADD DUP1 DUP4 GT PUSH2 0xE6C JUMPI DUP3 SWAP1 SUB PUSH1 0x1F AND DUP3 ADD SWAP2 JUMPDEST POP POP POP POP POP SWAP2 POP POP PUSH2 0xEE3 JUMP JUMPDEST DUP1 DUP1 PUSH2 0xEA1 SWAP1 PUSH2 0x3BA3 JUMP JUMPDEST SWAP2 POP POP PUSH2 0xD8A JUMP JUMPDEST POP PUSH1 0x40 MLOAD DUP1 PUSH1 0x40 ADD PUSH1 0x40 MSTORE DUP1 PUSH1 0x2 DUP2 MSTORE PUSH1 0x20 ADD PUSH32 0x7B7D000000000000000000000000000000000000000000000000000000000000 DUP2 MSTORE POP SWAP1 POP JUMPDEST SWAP2 SWAP1 POP JUMP JUMPDEST PUSH1 0x0 DUP1 PUSH1 0x0 SWAP1 POP JUMPDEST PUSH1 0x3 SLOAD DUP2 LT ISZERO PUSH2 0xFB5 JUMPI PUSH2 0xF03 DUP5 PUSH2 0x2B3C JUMP JUMPDEST DUP1 MLOAD SWAP1 PUSH1 0x20 ADD KECCAK256 PUSH1 0x8 PUSH1 0x0 DUP4 DUP2 MSTORE PUSH1 0x20 ADD SWAP1 DUP2 MSTORE PUSH1 0x20 ADD PUSH1 0x0 KECCAK256 PUSH1 0x0 PUSH1 0x2 DUP2 LT PUSH2 0xF30 JUMPI PUSH2 0xF2F PUSH2 0x3CAA JUMP JUMPDEST JUMPDEST ADD PUSH1 0x40 MLOAD PUSH2 0xF3E SWAP2 SWAP1 PUSH2 0x363F JUMP JUMPDEST PUSH1 0x40 MLOAD DUP1 SWAP2 SUB SWAP1 KECCAK256 EQ DUP1 ISZERO PUSH2 0xF94 JUMPI POP DUP3 DUP1 MLOAD SWAP1 PUSH1 0x20 ADD KECCAK256 PUSH1 0x8 PUSH1 0x0 DUP4 DUP2 MSTORE PUSH1 0x20 ADD SWAP1 DUP2 MSTORE PUSH1 0x20 ADD PUSH1 0x0 KECCAK256 PUSH1 0x1 PUSH1 0x2 DUP2 LT PUSH2 0xF7C JUMPI PUSH2 0xF7B PUSH2 0x3CAA JUMP JUMPDEST JUMPDEST ADD PUSH1 0x40 MLOAD PUSH2 0xF8A SWAP2 SWAP1 PUSH2 0x363F JUMP JUMPDEST PUSH1 0x40 MLOAD DUP1 SWAP2 SUB SWAP1 KECCAK256 EQ JUMPDEST ISZERO PUSH2 0xFA2 JUMPI DUP1 SWAP2 POP POP PUSH2 0xFBB JUMP JUMPDEST DUP1 DUP1 PUSH2 0xFAD SWAP1 PUSH2 0x3BA3 JUMP JUMPDEST SWAP2 POP POP PUSH2 0xEF0 JUMP JUMPDEST POP PUSH1 0x0 SWAP1 POP JUMPDEST SWAP3 SWAP2 POP POP JUMP JUMPDEST PUSH1 0x0 DUP1 PUSH1 0x0 SWAP1 POP JUMPDEST PUSH1 0x7 SLOAD DUP2 LT ISZERO PUSH2 0x10AA JUMPI DUP3 DUP1 MLOAD SWAP1 PUSH1 0x20 ADD KECCAK256 PUSH1 0xB PUSH1 0x0 DUP4 DUP2 MSTORE PUSH1 0x20 ADD SWAP1 DUP2 MSTORE PUSH1 0x20 ADD PUSH1 0x0 KECCAK256 PUSH1 0x1 PUSH1 0x3 DUP2 LT PUSH2 0x1001 JUMPI PUSH2 0x1000 PUSH2 0x3CAA JUMP JUMPDEST JUMPDEST ADD PUSH1 0x40 MLOAD PUSH2 0x100F SWAP2 SWAP1 PUSH2 0x363F JUMP JUMPDEST PUSH1 0x40 MLOAD DUP1 SWAP2 SUB SWAP1 KECCAK256 EQ ISZERO PUSH2 0x1097 JUMPI PUSH1 0x40 MLOAD DUP1 PUSH1 0x40 ADD PUSH1 0x40 MSTORE DUP1 PUSH1 0x5 DUP2 MSTORE PUSH1 0x20 ADD PUSH32 0x46616C7365000000000000000000000000000000000000000000000000000000 DUP2 MSTORE POP PUSH1 0xB PUSH1 0x0 DUP4 DUP2 MSTORE PUSH1 0x20 ADD SWAP1 DUP2 MSTORE PUSH1 0x20 ADD PUSH1 0x0 KECCAK256 PUSH1 0x2 PUSH1 0x3 DUP2 LT PUSH2 0x1079 JUMPI PUSH2 0x1078 PUSH2 0x3CAA JUMP JUMPDEST JUMPDEST ADD SWAP1 DUP1 MLOAD SWAP1 PUSH1 0x20 ADD SWAP1 PUSH2 0x108D SWAP3 SWAP2 SWAP1 PUSH2 0x2D2D JUMP JUMPDEST POP DUP1 SWAP2 POP POP PUSH2 0x10B1 JUMP JUMPDEST DUP1 DUP1 PUSH2 0x10A2 SWAP1 PUSH2 0x3BA3 JUMP JUMPDEST SWAP2 POP POP PUSH2 0xFC9 JUMP JUMPDEST POP PUSH1 0x7 SLOAD SWAP1 POP JUMPDEST SWAP2 SWAP1 POP JUMP JUMPDEST PUSH1 0x0 PUSH2 0x10C4 PUSH1 0x0 SLOAD DUP5 PUSH2 0x8D3 JUMP JUMPDEST PUSH2 0x10D1 PUSH1 0x3 SLOAD DUP4 DUP6 PUSH2 0x110C JUMP JUMPDEST PUSH1 0x0 DUP1 DUP2 SLOAD DUP1 SWAP3 SWAP2 SWAP1 PUSH2 0x10E3 SWAP1 PUSH2 0x3BA3 JUMP JUMPDEST SWAP2 SWAP1 POP SSTORE POP PUSH1 0x3 PUSH1 0x0 DUP2 SLOAD DUP1 SWAP3 SWAP2 SWAP1 PUSH2 0x10FB SWAP1 PUSH2 0x3BA3 JUMP JUMPDEST SWAP2 SWAP1 POP SSTORE POP PUSH1 0x0 SLOAD SWAP1 POP SWAP4 SWAP3 POP POP POP JUMP JUMPDEST PUSH1 0x40 MLOAD DUP1 PUSH1 0x40 ADD PUSH1 0x40 MSTORE DUP1 PUSH2 0x1120 DUP5 PUSH2 0x2B3C JUMP JUMPDEST DUP2 MSTORE PUSH1 0x20 ADD DUP3 DUP2 MSTORE POP PUSH1 0x8 PUSH1 0x0 DUP6 DUP2 MSTORE PUSH1 0x20 ADD SWAP1 DUP2 MSTORE PUSH1 0x20 ADD PUSH1 0x0 KECCAK256 SWAP1 PUSH1 0x2 PUSH2 0x114A SWAP3 SWAP2 SWAP1 PUSH2 0x2DB3 JUMP JUMPDEST POP POP POP POP JUMP JUMPDEST PUSH1 0x0 PUSH2 0x115B DUP3 PUSH2 0x23EB JUMP JUMPDEST SWAP1 POP PUSH1 0x0 JUMPDEST PUSH1 0x6 SLOAD DUP2 LT ISZERO PUSH2 0x12DD JUMPI PUSH1 0x0 PUSH2 0x118F DUP4 DUP4 DUP2 MLOAD DUP2 LT PUSH2 0x1182 JUMPI PUSH2 0x1181 PUSH2 0x3CAA JUMP JUMPDEST JUMPDEST PUSH1 0x20 MUL PUSH1 0x20 ADD ADD MLOAD PUSH2 0x184E JUMP JUMPDEST SWAP1 POP PUSH1 0x0 PUSH1 0xE PUSH1 0x0 DUP4 DUP2 MSTORE PUSH1 0x20 ADD SWAP1 DUP2 MSTORE PUSH1 0x20 ADD PUSH1 0x0 KECCAK256 PUSH1 0x1 PUSH1 0x2 DUP2 LT PUSH2 0x11B9 JUMPI PUSH2 0x11B8 PUSH2 0x3CAA JUMP JUMPDEST JUMPDEST ADD DUP1 SLOAD PUSH2 0x11C5 SWAP1 PUSH2 0x3B40 JUMP JUMPDEST DUP1 PUSH1 0x1F ADD PUSH1 0x20 DUP1 SWAP2 DIV MUL PUSH1 0x20 ADD PUSH1 0x40 MLOAD SWAP1 DUP2 ADD PUSH1 0x40 MSTORE DUP1 SWAP3 SWAP2 SWAP1 DUP2 DUP2 MSTORE PUSH1 0x20 ADD DUP3 DUP1 SLOAD PUSH2 0x11F1 SWAP1 PUSH2 0x3B40 JUMP JUMPDEST DUP1 ISZERO PUSH2 0x123E JUMPI DUP1 PUSH1 0x1F LT PUSH2 0x1213 JUMPI PUSH2 0x100 DUP1 DUP4 SLOAD DIV MUL DUP4 MSTORE SWAP2 PUSH1 0x20 ADD SWAP2 PUSH2 0x123E JUMP JUMPDEST DUP3 ADD SWAP2 SWAP1 PUSH1 0x0 MSTORE PUSH1 0x20 PUSH1 0x0 KECCAK256 SWAP1 JUMPDEST DUP2 SLOAD DUP2 MSTORE SWAP1 PUSH1 0x1 ADD SWAP1 PUSH1 0x20 ADD DUP1 DUP4 GT PUSH2 0x1221 JUMPI DUP3 SWAP1 SUB PUSH1 0x1F AND DUP3 ADD SWAP2 JUMPDEST POP POP POP POP POP SWAP1 POP PUSH2 0x1257 DUP2 PUSH2 0x1252 DUP5 PUSH2 0x2B3C JUMP JUMPDEST PUSH2 0x2C9D JUMP JUMPDEST PUSH1 0x40 MLOAD DUP1 PUSH1 0x40 ADD PUSH1 0x40 MSTORE DUP1 PUSH1 0x8 DUP2 MSTORE PUSH1 0x20 ADD PUSH32 0x46696E6973686564000000000000000000000000000000000000000000000000 DUP2 MSTORE POP PUSH1 0xF PUSH1 0x0 DUP8 DUP2 MSTORE PUSH1 0x20 ADD SWAP1 DUP2 MSTORE PUSH1 0x20 ADD PUSH1 0x0 KECCAK256 PUSH1 0x2 PUSH1 0x3 DUP2 LT PUSH2 0x12B3 JUMPI PUSH2 0x12B2 PUSH2 0x3CAA JUMP JUMPDEST JUMPDEST ADD SWAP1 DUP1 MLOAD SWAP1 PUSH1 0x20 ADD SWAP1 PUSH2 0x12C7 SWAP3 SWAP2 SWAP1 PUSH2 0x2D2D JUMP JUMPDEST POP POP POP DUP1 DUP1 PUSH2 0x12D5 SWAP1 PUSH2 0x3BA3 JUMP JUMPDEST SWAP2 POP POP PUSH2 0x1160 JUMP JUMPDEST POP POP POP JUMP JUMPDEST PUSH1 0x60 PUSH1 0xD PUSH1 0x0 DUP4 DUP2 MSTORE PUSH1 0x20 ADD SWAP1 DUP2 MSTORE PUSH1 0x20 ADD PUSH1 0x0 KECCAK256 DUP1 SLOAD PUSH2 0x1302 SWAP1 PUSH2 0x3B40 JUMP JUMPDEST DUP1 PUSH1 0x1F ADD PUSH1 0x20 DUP1 SWAP2 DIV MUL PUSH1 0x20 ADD PUSH1 0x40 MLOAD SWAP1 DUP2 ADD PUSH1 0x40 MSTORE DUP1 SWAP3 SWAP2 SWAP1 DUP2 DUP2 MSTORE PUSH1 0x20 ADD DUP3 DUP1 SLOAD PUSH2 0x132E SWAP1 PUSH2 0x3B40 JUMP JUMPDEST DUP1 ISZERO PUSH2 0x137B JUMPI DUP1 PUSH1 0x1F LT PUSH2 0x1350 JUMPI PUSH2 0x100 DUP1 DUP4 SLOAD DIV MUL DUP4 MSTORE SWAP2 PUSH1 0x20 ADD SWAP2 PUSH2 0x137B JUMP JUMPDEST DUP3 ADD SWAP2 SWAP1 PUSH1 0x0 MSTORE PUSH1 0x20 PUSH1 0x0 KECCAK256 SWAP1 JUMPDEST DUP2 SLOAD DUP2 MSTORE SWAP1 PUSH1 0x1 ADD SWAP1 PUSH1 0x20 ADD DUP1 DUP4 GT PUSH2 0x135E JUMPI DUP3 SWAP1 SUB PUSH1 0x1F AND DUP3 ADD SWAP2 JUMPDEST POP POP POP POP POP SWAP1 POP SWAP2 SWAP1 POP JUMP JUMPDEST PUSH1 0x60 PUSH1 0x10 PUSH1 0x0 DUP4 DUP2 MSTORE PUSH1 0x20 ADD SWAP1 DUP2 MSTORE PUSH1 0x20 ADD PUSH1 0x0 KECCAK256 DUP1 SLOAD PUSH2 0x13A7 SWAP1 PUSH2 0x3B40 JUMP JUMPDEST DUP1 PUSH1 0x1F ADD PUSH1 0x20 DUP1 SWAP2 DIV MUL PUSH1 0x20 ADD PUSH1 0x40 MLOAD SWAP1 DUP2 ADD PUSH1 0x40 MSTORE DUP1 SWAP3 SWAP2 SWAP1 DUP2 DUP2 MSTORE PUSH1 0x20 ADD DUP3 DUP1 SLOAD PUSH2 0x13D3 SWAP1 PUSH2 0x3B40 JUMP JUMPDEST DUP1 ISZERO PUSH2 0x1420 JUMPI DUP1 PUSH1 0x1F LT PUSH2 0x13F5 JUMPI PUSH2 0x100 DUP1 DUP4 SLOAD DIV MUL DUP4 MSTORE SWAP2 PUSH1 0x20 ADD SWAP2 PUSH2 0x1420 JUMP JUMPDEST DUP3 ADD SWAP2 SWAP1 PUSH1 0x0 MSTORE PUSH1 0x20 PUSH1 0x0 KECCAK256 SWAP1 JUMPDEST DUP2 SLOAD DUP2 MSTORE SWAP1 PUSH1 0x1 ADD SWAP1 PUSH1 0x20 ADD DUP1 DUP4 GT PUSH2 0x1403 JUMPI DUP3 SWAP1 SUB PUSH1 0x1F AND DUP3 ADD SWAP2 JUMPDEST POP POP POP POP POP SWAP1 POP SWAP2 SWAP1 POP JUMP JUMPDEST PUSH1 0x60 PUSH1 0x0 PUSH1 0xA PUSH8 0xFFFFFFFFFFFFFFFF DUP2 GT ISZERO PUSH2 0x144B JUMPI PUSH2 0x144A PUSH2 0x3CD9 JUMP JUMPDEST JUMPDEST PUSH1 0x40 MLOAD SWAP1 DUP1 DUP3 MSTORE DUP1 PUSH1 0x20 MUL PUSH1 0x20 ADD DUP3 ADD PUSH1 0x40 MSTORE DUP1 ISZERO PUSH2 0x147E JUMPI DUP2 PUSH1 0x20 ADD JUMPDEST PUSH1 0x60 DUP2 MSTORE PUSH1 0x20 ADD SWAP1 PUSH1 0x1 SWAP1 SUB SWAP1 DUP2 PUSH2 0x1469 JUMPI SWAP1 POP JUMPDEST POP SWAP1 POP PUSH1 0x0 DUP1 JUMPDEST PUSH1 0x4 SLOAD DUP2 LT ISZERO PUSH2 0x15D1 JUMPI PUSH2 0x1498 DUP6 PUSH2 0x2B3C JUMP JUMPDEST DUP1 MLOAD SWAP1 PUSH1 0x20 ADD KECCAK256 PUSH1 0x9 PUSH1 0x0 DUP4 DUP2 MSTORE PUSH1 0x20 ADD SWAP1 DUP2 MSTORE PUSH1 0x20 ADD PUSH1 0x0 KECCAK256 PUSH1 0x0 PUSH1 0x2 DUP2 LT PUSH2 0x14C5 JUMPI PUSH2 0x14C4 PUSH2 0x3CAA JUMP JUMPDEST JUMPDEST ADD PUSH1 0x40 MLOAD PUSH2 0x14D3 SWAP2 SWAP1 PUSH2 0x363F JUMP JUMPDEST PUSH1 0x40 MLOAD DUP1 SWAP2 SUB SWAP1 KECCAK256 EQ ISZERO PUSH2 0x15BE JUMPI PUSH1 0x9 PUSH1 0x0 DUP3 DUP2 MSTORE PUSH1 0x20 ADD SWAP1 DUP2 MSTORE PUSH1 0x20 ADD PUSH1 0x0 KECCAK256 PUSH1 0x1 PUSH1 0x2 DUP2 LT PUSH2 0x1507 JUMPI PUSH2 0x1506 PUSH2 0x3CAA JUMP JUMPDEST JUMPDEST ADD DUP1 SLOAD PUSH2 0x1513 SWAP1 PUSH2 0x3B40 JUMP JUMPDEST DUP1 PUSH1 0x1F ADD PUSH1 0x20 DUP1 SWAP2 DIV MUL PUSH1 0x20 ADD PUSH1 0x40 MLOAD SWAP1 DUP2 ADD PUSH1 0x40 MSTORE DUP1 SWAP3 SWAP2 SWAP1 DUP2 DUP2 MSTORE PUSH1 0x20 ADD DUP3 DUP1 SLOAD PUSH2 0x153F SWAP1 PUSH2 0x3B40 JUMP JUMPDEST DUP1 ISZERO PUSH2 0x158C JUMPI DUP1 PUSH1 0x1F LT PUSH2 0x1561 JUMPI PUSH2 0x100 DUP1 DUP4 SLOAD DIV MUL DUP4 MSTORE SWAP2 PUSH1 0x20 ADD SWAP2 PUSH2 0x158C JUMP JUMPDEST DUP3 ADD SWAP2 SWAP1 PUSH1 0x0 MSTORE PUSH1 0x20 PUSH1 0x0 KECCAK256 SWAP1 JUMPDEST DUP2 SLOAD DUP2 MSTORE SWAP1 PUSH1 0x1 ADD SWAP1 PUSH1 0x20 ADD DUP1 DUP4 GT PUSH2 0x156F JUMPI DUP3 SWAP1 SUB PUSH1 0x1F AND DUP3 ADD SWAP2 JUMPDEST POP POP POP POP POP DUP4 DUP4 DUP2 MLOAD DUP2 LT PUSH2 0x15A4 JUMPI PUSH2 0x15A3 PUSH2 0x3CAA JUMP JUMPDEST JUMPDEST PUSH1 0x20 MUL PUSH1 0x20 ADD ADD DUP2 SWAP1 MSTORE POP DUP2 DUP1 PUSH2 0x15BA SWAP1 PUSH2 0x3BA3 JUMP JUMPDEST SWAP3 POP POP JUMPDEST DUP1 DUP1 PUSH2 0x15C9 SWAP1 PUSH2 0x3BA3 JUMP JUMPDEST SWAP2 POP POP PUSH2 0x1485 JUMP JUMPDEST POP DUP2 SWAP3 POP POP POP SWAP2 SWAP1 POP JUMP JUMPDEST PUSH1 0x40 MLOAD DUP1 PUSH1 0x60 ADD PUSH1 0x40 MSTORE DUP1 DUP4 DUP2 MSTORE PUSH1 0x20 ADD DUP3 DUP2 MSTORE PUSH1 0x20 ADD PUSH1 0x40 MLOAD DUP1 PUSH1 0x40 ADD PUSH1 0x40 MSTORE DUP1 PUSH1 0x5 DUP2 MSTORE PUSH1 0x20 ADD PUSH32 0x46616C7365000000000000000000000000000000000000000000000000000000 DUP2 MSTORE POP DUP2 MSTORE POP PUSH1 0xF PUSH1 0x0 DUP6 DUP2 MSTORE PUSH1 0x20 ADD SWAP1 DUP2 MSTORE PUSH1 0x20 ADD PUSH1 0x0 KECCAK256 SWAP1 PUSH1 0x3 PUSH2 0x164D SWAP3 SWAP2 SWAP1 PUSH2 0x2E06 JUMP JUMPDEST POP POP POP POP JUMP JUMPDEST PUSH1 0x0 DUP1 PUSH1 0x0 SWAP1 POP JUMPDEST PUSH1 0x5 SLOAD DUP2 LT ISZERO PUSH2 0x1707 JUMPI DUP4 DUP1 MLOAD SWAP1 PUSH1 0x20 ADD KECCAK256 PUSH1 0xA PUSH1 0x0 DUP4 DUP2 MSTORE PUSH1 0x20 ADD SWAP1 DUP2 MSTORE PUSH1 0x20 ADD PUSH1 0x0 KECCAK256 PUSH1 0x0 PUSH1 0x2 DUP2 LT PUSH2 0x1693 JUMPI PUSH2 0x1692 PUSH2 0x3CAA JUMP JUMPDEST JUMPDEST ADD PUSH1 0x40 MLOAD PUSH2 0x16A1 SWAP2 SWAP1 PUSH2 0x363F JUMP JUMPDEST PUSH1 0x40 MLOAD DUP1 SWAP2 SUB SWAP1 KECCAK256 EQ ISZERO PUSH2 0x16F4 JUMPI DUP3 PUSH1 0xA PUSH1 0x0 DUP4 DUP2 MSTORE PUSH1 0x20 ADD SWAP1 DUP2 MSTORE PUSH1 0x20 ADD PUSH1 0x0 KECCAK256 PUSH1 0x1 PUSH1 0x2 DUP2 LT PUSH2 0x16D6 JUMPI PUSH2 0x16D5 PUSH2 0x3CAA JUMP JUMPDEST JUMPDEST ADD SWAP1 DUP1 MLOAD SWAP1 PUSH1 0x20 ADD SWAP1 PUSH2 0x16EA SWAP3 SWAP2 SWAP1 PUSH2 0x2D2D JUMP JUMPDEST POP DUP1 SWAP2 POP POP PUSH2 0x175F JUMP JUMPDEST DUP1 DUP1 PUSH2 0x16FF SWAP1 PUSH2 0x3BA3 JUMP JUMPDEST SWAP2 POP POP PUSH2 0x165B JUMP JUMPDEST POP PUSH1 0x40 MLOAD DUP1 PUSH1 0x40 ADD PUSH1 0x40 MSTORE DUP1 DUP5 DUP2 MSTORE PUSH1 0x20 ADD DUP4 DUP2 MSTORE POP PUSH1 0xA PUSH1 0x0 PUSH1 0x5 SLOAD DUP2 MSTORE PUSH1 0x20 ADD SWAP1 DUP2 MSTORE PUSH1 0x20 ADD PUSH1 0x0 KECCAK256 SWAP1 PUSH1 0x2 PUSH2 0x1740 SWAP3 SWAP2 SWAP1 PUSH2 0x2DB3 JUMP JUMPDEST POP PUSH1 0x5 PUSH1 0x0 DUP2 SLOAD DUP1 SWAP3 SWAP2 SWAP1 PUSH2 0x1754 SWAP1 PUSH2 0x3BA3 JUMP JUMPDEST SWAP2 SWAP1 POP SSTORE POP PUSH1 0x5 SLOAD SWAP1 POP JUMPDEST SWAP3 SWAP2 POP POP JUMP JUMPDEST PUSH1 0x60 PUSH1 0xC PUSH1 0x0 DUP4 DUP2 MSTORE PUSH1 0x20 ADD SWAP1 DUP2 MSTORE PUSH1 0x20 ADD PUSH1 0x0 KECCAK256 PUSH1 0x0 PUSH1 0x2 DUP2 LT PUSH2 0x178D JUMPI PUSH2 0x178C PUSH2 0x3CAA JUMP JUMPDEST JUMPDEST ADD DUP1 SLOAD PUSH2 0x1799 SWAP1 PUSH2 0x3B40 JUMP JUMPDEST DUP1 PUSH1 0x1F ADD PUSH1 0x20 DUP1 SWAP2 DIV MUL PUSH1 0x20 ADD PUSH1 0x40 MLOAD SWAP1 DUP2 ADD PUSH1 0x40 MSTORE DUP1 SWAP3 SWAP2 SWAP1 DUP2 DUP2 MSTORE PUSH1 0x20 ADD DUP3 DUP1 SLOAD PUSH2 0x17C5 SWAP1 PUSH2 0x3B40 JUMP JUMPDEST DUP1 ISZERO PUSH2 0x1812 JUMPI DUP1 PUSH1 0x1F LT PUSH2 0x17E7 JUMPI PUSH2 0x100 DUP1 DUP4 SLOAD DIV MUL DUP4 MSTORE SWAP2 PUSH1 0x20 ADD SWAP2 PUSH2 0x1812 JUMP JUMPDEST DUP3 ADD SWAP2 SWAP1 PUSH1 0x0 MSTORE PUSH1 0x20 PUSH1 0x0 KECCAK256 SWAP1 JUMPDEST DUP2 SLOAD DUP2 MSTORE SWAP1 PUSH1 0x1 ADD SWAP1 PUSH1 0x20 ADD DUP1 DUP4 GT PUSH2 0x17F5 JUMPI DUP3 SWAP1 SUB PUSH1 0x1F AND DUP3 ADD SWAP2 JUMPDEST POP POP POP POP POP SWAP1 POP SWAP2 SWAP1 POP JUMP JUMPDEST PUSH1 0x0 PUSH1 0x2 SLOAD SWAP1 POP SWAP1 JUMP JUMPDEST PUSH1 0x12 PUSH1 0x0 SWAP1 SLOAD SWAP1 PUSH2 0x100 EXP SWAP1 DIV PUSH20 0xFFFFFFFFFFFFFFFFFFFFFFFFFFFFFFFFFFFFFFFF AND DUP2 JUMP JUMPDEST PUSH1 0x0 DUP1 PUSH1 0x0 SWAP1 POP JUMPDEST PUSH1 0x0 SLOAD DUP2 LT ISZERO PUSH2 0x18C6 JUMPI DUP3 DUP1 MLOAD SWAP1 PUSH1 0x20 ADD KECCAK256 PUSH1 0xE PUSH1 0x0 DUP4 DUP2 MSTORE PUSH1 0x20 ADD SWAP1 DUP2 MSTORE PUSH1 0x20 ADD PUSH1 0x0 KECCAK256 PUSH1 0x0 PUSH1 0x2 DUP2 LT PUSH2 0x188E JUMPI PUSH2 0x188D PUSH2 0x3CAA JUMP JUMPDEST JUMPDEST ADD PUSH1 0x40 MLOAD PUSH2 0x189C SWAP2 SWAP1 PUSH2 0x363F JUMP JUMPDEST PUSH1 0x40 MLOAD DUP1 SWAP2 SUB SWAP1 KECCAK256 EQ ISZERO PUSH2 0x18B3 JUMPI DUP1 SWAP2 POP POP PUSH2 0x18CC JUMP JUMPDEST DUP1 DUP1 PUSH2 0x18BE SWAP1 PUSH2 0x3BA3 JUMP JUMPDEST SWAP2 POP POP PUSH2 0x1856 JUMP JUMPDEST POP PUSH1 0x0 SWAP1 POP JUMPDEST SWAP2 SWAP1 POP JUMP JUMPDEST PUSH1 0x0 PUSH2 0x198C DUP4 PUSH1 0xE PUSH1 0x0 DUP11 DUP2 MSTORE PUSH1 0x20 ADD SWAP1 DUP2 MSTORE PUSH1 0x20 ADD PUSH1 0x0 KECCAK256 PUSH1 0x0 PUSH1 0x2 DUP2 LT PUSH2 0x18FD JUMPI PUSH2 0x18FC PUSH2 0x3CAA JUMP JUMPDEST JUMPDEST ADD DUP1 SLOAD PUSH2 0x1909 SWAP1 PUSH2 0x3B40 JUMP JUMPDEST DUP1 PUSH1 0x1F ADD PUSH1 0x20 DUP1 SWAP2 DIV MUL PUSH1 0x20 ADD PUSH1 0x40 MLOAD SWAP1 DUP2 ADD PUSH1 0x40 MSTORE DUP1 SWAP3 SWAP2 SWAP1 DUP2 DUP2 MSTORE PUSH1 0x20 ADD DUP3 DUP1 SLOAD PUSH2 0x1935 SWAP1 PUSH2 0x3B40 JUMP JUMPDEST DUP1 ISZERO PUSH2 0x1982 JUMPI DUP1 PUSH1 0x1F LT PUSH2 0x1957 JUMPI PUSH2 0x100 DUP1 DUP4 SLOAD DIV MUL DUP4 MSTORE SWAP2 PUSH1 0x20 ADD SWAP2 PUSH2 0x1982 JUMP JUMPDEST DUP3 ADD SWAP2 SWAP1 PUSH1 0x0 MSTORE PUSH1 0x20 PUSH1 0x0 KECCAK256 SWAP1 JUMPDEST DUP2 SLOAD DUP2 MSTORE SWAP1 PUSH1 0x1 ADD SWAP1 PUSH1 0x20 ADD DUP1 DUP4 GT PUSH2 0x1965 JUMPI DUP3 SWAP1 SUB PUSH1 0x1F AND DUP3 ADD SWAP2 JUMPDEST POP POP POP POP POP PUSH2 0xEE8 JUMP JUMPDEST SWAP1 POP DUP5 PUSH1 0xE PUSH1 0x0 DUP10 DUP2 MSTORE PUSH1 0x20 ADD SWAP1 DUP2 MSTORE PUSH1 0x20 ADD PUSH1 0x0 KECCAK256 PUSH1 0x0 PUSH1 0x2 DUP2 LT PUSH2 0x19B5 JUMPI PUSH2 0x19B4 PUSH2 0x3CAA JUMP JUMPDEST JUMPDEST ADD SWAP1 DUP1 MLOAD SWAP1 PUSH1 0x20 ADD SWAP1 PUSH2 0x19C9 SWAP3 SWAP2 SWAP1 PUSH2 0x2D2D JUMP JUMPDEST POP DUP4 PUSH1 0xE PUSH1 0x0 DUP10 DUP2 MSTORE PUSH1 0x20 ADD SWAP1 DUP2 MSTORE PUSH1 0x20 ADD PUSH1 0x0 KECCAK256 PUSH1 0x1 PUSH1 0x2 DUP2 LT PUSH2 0x19F1 JUMPI PUSH2 0x19F0 PUSH2 0x3CAA JUMP JUMPDEST JUMPDEST ADD SWAP1 DUP1 MLOAD SWAP1 PUSH1 0x20 ADD SWAP1 PUSH2 0x1A05 SWAP3 SWAP2 SWAP1 PUSH2 0x2D2D JUMP JUMPDEST POP PUSH2 0x1A11 DUP2 DUP5 DUP8 PUSH2 0x110C JUMP JUMPDEST PUSH2 0x1A1B DUP4 DUP4 PUSH2 0xB2C JUMP JUMPDEST PUSH2 0x1A28 PUSH1 0x4 SLOAD DUP9 DUP9 PUSH2 0x23A7 JUMP JUMPDEST PUSH1 0x4 PUSH1 0x0 DUP2 SLOAD DUP1 SWAP3 SWAP2 SWAP1 PUSH2 0x1A3B SWAP1 PUSH2 0x3BA3 JUMP JUMPDEST SWAP2 SWAP1 POP SSTORE POP PUSH1 0x1 PUSH1 0x0 DUP2 SLOAD DUP1 SWAP3 SWAP2 SWAP1 PUSH2 0x1A53 SWAP1 PUSH2 0x3BA3 JUMP JUMPDEST SWAP2 SWAP1 POP SSTORE POP POP POP POP POP POP POP POP JUMP JUMPDEST PUSH1 0xB PUSH1 0x20 MSTORE DUP2 PUSH1 0x0 MSTORE PUSH1 0x40 PUSH1 0x0 KECCAK256 DUP2 PUSH1 0x3 DUP2 LT PUSH2 0x1A7D JUMPI PUSH1 0x0 DUP1 REVERT JUMPDEST ADD PUSH1 0x0 SWAP2 POP SWAP2 POP POP DUP1 SLOAD PUSH2 0x1A90 SWAP1 PUSH2 0x3B40 JUMP JUMPDEST DUP1 PUSH1 0x1F ADD PUSH1 0x20 DUP1 SWAP2 DIV MUL PUSH1 0x20 ADD PUSH1 0x40 MLOAD SWAP1 DUP2 ADD PUSH1 0x40 MSTORE DUP1 SWAP3 SWAP2 SWAP1 DUP2 DUP2 MSTORE PUSH1 0x20 ADD DUP3 DUP1 SLOAD PUSH2 0x1ABC SWAP1 PUSH2 0x3B40 JUMP JUMPDEST DUP1 ISZERO PUSH2 0x1B09 JUMPI DUP1 PUSH1 0x1F LT PUSH2 0x1ADE JUMPI PUSH2 0x100 DUP1 DUP4 SLOAD DIV MUL DUP4 MSTORE SWAP2 PUSH1 0x20 ADD SWAP2 PUSH2 0x1B09 JUMP JUMPDEST DUP3 ADD SWAP2 SWAP1 PUSH1 0x0 MSTORE PUSH1 0x20 PUSH1 0x0 KECCAK256 SWAP1 JUMPDEST DUP2 SLOAD DUP2 MSTORE SWAP1 PUSH1 0x1 ADD SWAP1 PUSH1 0x20 ADD DUP1 DUP4 GT PUSH2 0x1AEC JUMPI DUP3 SWAP1 SUB PUSH1 0x1F AND DUP3 ADD SWAP2 JUMPDEST POP POP POP POP POP DUP2 JUMP JUMPDEST PUSH2 0x1B19 PUSH2 0x2E59 JUMP JUMPDEST PUSH1 0xF PUSH1 0x0 DUP4 DUP2 MSTORE PUSH1 0x20 ADD SWAP1 DUP2 MSTORE PUSH1 0x20 ADD PUSH1 0x0 KECCAK256 PUSH1 0x3 DUP1 PUSH1 0x20 MUL PUSH1 0x40 MLOAD SWAP1 DUP2 ADD PUSH1 0x40 MSTORE DUP1 SWAP3 SWAP2 SWAP1 PUSH1 0x0 SWAP1 JUMPDEST DUP3 DUP3 LT ISZERO PUSH2 0x1BE6 JUMPI DUP4 DUP3 ADD DUP1 SLOAD PUSH2 0x1B59 SWAP1 PUSH2 0x3B40 JUMP JUMPDEST DUP1 PUSH1 0x1F ADD PUSH1 0x20 DUP1 SWAP2 DIV MUL PUSH1 0x20 ADD PUSH1 0x40 MLOAD SWAP1 DUP2 ADD PUSH1 0x40 MSTORE DUP1 SWAP3 SWAP2 SWAP1 DUP2 DUP2 MSTORE PUSH1 0x20 ADD DUP3 DUP1 SLOAD PUSH2 0x1B85 SWAP1 PUSH2 0x3B40 JUMP JUMPDEST DUP1 ISZERO PUSH2 0x1BD2 JUMPI DUP1 PUSH1 0x1F LT PUSH2 0x1BA7 JUMPI PUSH2 0x100 DUP1 DUP4 SLOAD DIV MUL DUP4 MSTORE SWAP2 PUSH1 0x20 ADD SWAP2 PUSH2 0x1BD2 JUMP JUMPDEST DUP3 ADD SWAP2 SWAP1 PUSH1 0x0 MSTORE PUSH1 0x20 PUSH1 0x0 KECCAK256 SWAP1 JUMPDEST DUP2 SLOAD DUP2 MSTORE SWAP1 PUSH1 0x1 ADD SWAP1 PUSH1 0x20 ADD DUP1 DUP4 GT PUSH2 0x1BB5 JUMPI DUP3 SWAP1 SUB PUSH1 0x1F AND DUP3 ADD SWAP2 JUMPDEST POP POP POP POP POP DUP2 MSTORE PUSH1 0x20 ADD SWAP1 PUSH1 0x1 ADD SWAP1 PUSH2 0x1B43 JUMP JUMPDEST POP POP POP POP SWAP1 POP SWAP2 SWAP1 POP JUMP JUMPDEST PUSH1 0x60 PUSH1 0x0 PUSH1 0xA PUSH8 0xFFFFFFFFFFFFFFFF DUP2 GT ISZERO PUSH2 0x1C10 JUMPI PUSH2 0x1C0F PUSH2 0x3CD9 JUMP JUMPDEST JUMPDEST PUSH1 0x40 MLOAD SWAP1 DUP1 DUP3 MSTORE DUP1 PUSH1 0x20 MUL PUSH1 0x20 ADD DUP3 ADD PUSH1 0x40 MSTORE DUP1 ISZERO PUSH2 0x1C43 JUMPI DUP2 PUSH1 0x20 ADD JUMPDEST PUSH1 0x60 DUP2 MSTORE PUSH1 0x20 ADD SWAP1 PUSH1 0x1 SWAP1 SUB SWAP1 DUP2 PUSH2 0x1C2E JUMPI SWAP1 POP JUMPDEST POP SWAP1 POP PUSH1 0x0 DUP1 JUMPDEST PUSH1 0x4 SLOAD DUP2 LT ISZERO PUSH2 0x1D96 JUMPI PUSH2 0x1C5D DUP6 PUSH2 0x2B3C JUMP JUMPDEST DUP1 MLOAD SWAP1 PUSH1 0x20 ADD KECCAK256 PUSH1 0x9 PUSH1 0x0 DUP4 DUP2 MSTORE PUSH1 0x20 ADD SWAP1 DUP2 MSTORE PUSH1 0x20 ADD PUSH1 0x0 KECCAK256 PUSH1 0x0 PUSH1 0x2 DUP2 LT PUSH2 0x1C8A JUMPI PUSH2 0x1C89 PUSH2 0x3CAA JUMP JUMPDEST JUMPDEST ADD PUSH1 0x40 MLOAD PUSH2 0x1C98 SWAP2 SWAP1 PUSH2 0x363F JUMP JUMPDEST PUSH1 0x40 MLOAD DUP1 SWAP2 SUB SWAP1 KECCAK256 EQ ISZERO PUSH2 0x1D83 JUMPI PUSH1 0x9 PUSH1 0x0 DUP3 DUP2 MSTORE PUSH1 0x20 ADD SWAP1 DUP2 MSTORE PUSH1 0x20 ADD PUSH1 0x0 KECCAK256 PUSH1 0x1 PUSH1 0x2 DUP2 LT PUSH2 0x1CCC JUMPI PUSH2 0x1CCB PUSH2 0x3CAA JUMP JUMPDEST JUMPDEST ADD DUP1 SLOAD PUSH2 0x1CD8 SWAP1 PUSH2 0x3B40 JUMP JUMPDEST DUP1 PUSH1 0x1F ADD PUSH1 0x20 DUP1 SWAP2 DIV MUL PUSH1 0x20 ADD PUSH1 0x40 MLOAD SWAP1 DUP2 ADD PUSH1 0x40 MSTORE DUP1 SWAP3 SWAP2 SWAP1 DUP2 DUP2 MSTORE PUSH1 0x20 ADD DUP3 DUP1 SLOAD PUSH2 0x1D04 SWAP1 PUSH2 0x3B40 JUMP JUMPDEST DUP1 ISZERO PUSH2 0x1D51 JUMPI DUP1 PUSH1 0x1F LT PUSH2 0x1D26 JUMPI PUSH2 0x100 DUP1 DUP4 SLOAD DIV MUL DUP4 MSTORE SWAP2 PUSH1 0x20 ADD SWAP2 PUSH2 0x1D51 JUMP JUMPDEST DUP3 ADD SWAP2 SWAP1 PUSH1 0x0 MSTORE PUSH1 0x20 PUSH1 0x0 KECCAK256 SWAP1 JUMPDEST DUP2 SLOAD DUP2 MSTORE SWAP1 PUSH1 0x1 ADD SWAP1 PUSH1 0x20 ADD DUP1 DUP4 GT PUSH2 0x1D34 JUMPI DUP3 SWAP1 SUB PUSH1 0x1F AND DUP3 ADD SWAP2 JUMPDEST POP POP POP POP POP DUP4 DUP4 DUP2 MLOAD DUP2 LT PUSH2 0x1D69 JUMPI PUSH2 0x1D68 PUSH2 0x3CAA JUMP JUMPDEST JUMPDEST PUSH1 0x20 MUL PUSH1 0x20 ADD ADD DUP2 SWAP1 MSTORE POP DUP2 DUP1 PUSH2 0x1D7F SWAP1 PUSH2 0x3BA3 JUMP JUMPDEST SWAP3 POP POP JUMPDEST DUP1 DUP1 PUSH2 0x1D8E SWAP1 PUSH2 0x3BA3 JUMP JUMPDEST SWAP2 POP POP PUSH2 0x1C4A JUMP JUMPDEST POP DUP2 SWAP3 POP POP POP SWAP2 SWAP1 POP JUMP JUMPDEST PUSH1 0xC PUSH1 0x20 MSTORE DUP2 PUSH1 0x0 MSTORE PUSH1 0x40 PUSH1 0x0 KECCAK256 DUP2 PUSH1 0x2 DUP2 LT PUSH2 0x1DBD JUMPI PUSH1 0x0 DUP1 REVERT JUMPDEST ADD PUSH1 0x0 SWAP2 POP SWAP2 POP POP DUP1 SLOAD PUSH2 0x1DD0 SWAP1 PUSH2 0x3B40 JUMP JUMPDEST DUP1 PUSH1 0x1F ADD PUSH1 0x20 DUP1 SWAP2 DIV MUL PUSH1 0x20 ADD PUSH1 0x40 MLOAD SWAP1 DUP2 ADD PUSH1 0x40 MSTORE DUP1 SWAP3 SWAP2 SWAP1 DUP2 DUP2 MSTORE PUSH1 0x20 ADD DUP3 DUP1 SLOAD PUSH2 0x1DFC SWAP1 PUSH2 0x3B40 JUMP JUMPDEST DUP1 ISZERO PUSH2 0x1E49 JUMPI DUP1 PUSH1 0x1F LT PUSH2 0x1E1E JUMPI PUSH2 0x100 DUP1 DUP4 SLOAD DIV MUL DUP4 MSTORE SWAP2 PUSH1 0x20 ADD SWAP2 PUSH2 0x1E49 JUMP JUMPDEST DUP3 ADD SWAP2 SWAP1 PUSH1 0x0 MSTORE PUSH1 0x20 PUSH1 0x0 KECCAK256 SWAP1 JUMPDEST DUP2 SLOAD DUP2 MSTORE SWAP1 PUSH1 0x1 ADD SWAP1 PUSH1 0x20 ADD DUP1 DUP4 GT PUSH2 0x1E2C JUMPI DUP3 SWAP1 SUB PUSH1 0x1F AND DUP3 ADD SWAP2 JUMPDEST POP POP POP POP POP DUP2 JUMP JUMPDEST PUSH1 0x60 PUSH1 0x0 JUMPDEST PUSH1 0x7 SLOAD DUP2 LT ISZERO PUSH2 0x1F75 JUMPI DUP3 DUP1 MLOAD SWAP1 PUSH1 0x20 ADD KECCAK256 PUSH1 0xB PUSH1 0x0 DUP4 DUP2 MSTORE PUSH1 0x20 ADD SWAP1 DUP2 MSTORE PUSH1 0x20 ADD PUSH1 0x0 KECCAK256 PUSH1 0x1 PUSH1 0x3 DUP2 LT PUSH2 0x1E8E JUMPI PUSH2 0x1E8D PUSH2 0x3CAA JUMP JUMPDEST JUMPDEST ADD PUSH1 0x40 MLOAD PUSH2 0x1E9C SWAP2 SWAP1 PUSH2 0x363F JUMP JUMPDEST PUSH1 0x40 MLOAD DUP1 SWAP2 SUB SWAP1 KECCAK256 EQ ISZERO PUSH2 0x1F62 JUMPI PUSH1 0xB PUSH1 0x0 DUP3 DUP2 MSTORE PUSH1 0x20 ADD SWAP1 DUP2 MSTORE PUSH1 0x20 ADD PUSH1 0x0 KECCAK256 PUSH1 0x2 PUSH1 0x3 DUP2 LT PUSH2 0x1ED0 JUMPI PUSH2 0x1ECF PUSH2 0x3CAA JUMP JUMPDEST JUMPDEST ADD DUP1 SLOAD PUSH2 0x1EDC SWAP1 PUSH2 0x3B40 JUMP JUMPDEST DUP1 PUSH1 0x1F ADD PUSH1 0x20 DUP1 SWAP2 DIV MUL PUSH1 0x20 ADD PUSH1 0x40 MLOAD SWAP1 DUP2 ADD PUSH1 0x40 MSTORE DUP1 SWAP3 SWAP2 SWAP1 DUP2 DUP2 MSTORE PUSH1 0x20 ADD DUP3 DUP1 SLOAD PUSH2 0x1F08 SWAP1 PUSH2 0x3B40 JUMP JUMPDEST DUP1 ISZERO PUSH2 0x1F55 JUMPI DUP1 PUSH1 0x1F LT PUSH2 0x1F2A JUMPI PUSH2 0x100 DUP1 DUP4 SLOAD DIV MUL DUP4 MSTORE SWAP2 PUSH1 0x20 ADD SWAP2 PUSH2 0x1F55 JUMP JUMPDEST DUP3 ADD SWAP2 SWAP1 PUSH1 0x0 MSTORE PUSH1 0x20 PUSH1 0x0 KECCAK256 SWAP1 JUMPDEST DUP2 SLOAD DUP2 MSTORE SWAP1 PUSH1 0x1 ADD SWAP1 PUSH1 0x20 ADD DUP1 DUP4 GT PUSH2 0x1F38 JUMPI DUP3 SWAP1 SUB PUSH1 0x1F AND DUP3 ADD SWAP2 JUMPDEST POP POP POP POP POP SWAP2 POP POP PUSH2 0x1FAF JUMP JUMPDEST DUP1 DUP1 PUSH2 0x1F6D SWAP1 PUSH2 0x3BA3 JUMP JUMPDEST SWAP2 POP POP PUSH2 0x1E56 JUMP JUMPDEST POP PUSH1 0x40 MLOAD DUP1 PUSH1 0x40 ADD PUSH1 0x40 MSTORE DUP1 PUSH1 0x5 DUP2 MSTORE PUSH1 0x20 ADD PUSH32 0x46616C7365000000000000000000000000000000000000000000000000000000 DUP2 MSTORE POP SWAP1 POP JUMPDEST SWAP2 SWAP1 POP JUMP JUMPDEST PUSH1 0x0 DUP1 PUSH1 0x0 SWAP1 POP JUMPDEST DUP3 MLOAD DUP2 LT ISZERO PUSH2 0x20C0 JUMPI PUSH1 0x0 PUSH1 0x30 DUP5 DUP4 DUP2 MLOAD DUP2 LT PUSH2 0x1FDC JUMPI PUSH2 0x1FDB PUSH2 0x3CAA JUMP JUMPDEST JUMPDEST PUSH1 0x20 ADD ADD MLOAD PUSH1 0xF8 SHR PUSH1 0xF8 SHL PUSH1 0xF8 SHR PUSH2 0x1FF4 SWAP2 SWAP1 PUSH2 0x3A81 JUMP JUMPDEST PUSH1 0xFF AND LT DUP1 PUSH2 0x2032 JUMPI POP PUSH1 0x9 PUSH1 0x30 DUP5 DUP4 DUP2 MLOAD DUP2 LT PUSH2 0x2015 JUMPI PUSH2 0x2014 PUSH2 0x3CAA JUMP JUMPDEST JUMPDEST PUSH1 0x20 ADD ADD MLOAD PUSH1 0xF8 SHR PUSH1 0xF8 SHL PUSH1 0xF8 SHR PUSH2 0x202D SWAP2 SWAP1 PUSH2 0x3A81 JUMP JUMPDEST PUSH1 0xFF AND GT JUMPDEST ISZERO PUSH2 0x2041 JUMPI PUSH1 0x0 SWAP2 POP POP PUSH2 0x20C2 JUMP JUMPDEST PUSH1 0x1 DUP2 DUP5 MLOAD PUSH2 0x2050 SWAP2 SWAP1 PUSH2 0x3A4D JUMP JUMPDEST PUSH2 0x205A SWAP2 SWAP1 PUSH2 0x3A4D JUMP JUMPDEST PUSH1 0xA PUSH2 0x2066 SWAP2 SWAP1 PUSH2 0x38D5 JUMP JUMPDEST PUSH1 0x30 DUP5 DUP4 DUP2 MLOAD DUP2 LT PUSH2 0x207B JUMPI PUSH2 0x207A PUSH2 0x3CAA JUMP JUMPDEST JUMPDEST PUSH1 0x20 ADD ADD MLOAD PUSH1 0xF8 SHR PUSH1 0xF8 SHL PUSH1 0xF8 SHR PUSH2 0x2093 SWAP2 SWAP1 PUSH2 0x3A81 JUMP JUMPDEST PUSH1 0xFF AND PUSH2 0x20A0 SWAP2 SWAP1 PUSH2 0x39F3 JUMP JUMPDEST DUP3 PUSH2 0x20AB SWAP2 SWAP1 PUSH2 0x37FB JUMP JUMPDEST SWAP2 POP DUP1 DUP1 PUSH2 0x20B8 SWAP1 PUSH2 0x3BA3 JUMP JUMPDEST SWAP2 POP POP PUSH2 0x1FBC JUMP JUMPDEST POP JUMPDEST SWAP2 SWAP1 POP JUMP JUMPDEST PUSH1 0x60 PUSH1 0xE PUSH1 0x0 DUP4 DUP2 MSTORE PUSH1 0x20 ADD SWAP1 DUP2 MSTORE PUSH1 0x20 ADD PUSH1 0x0 KECCAK256 PUSH1 0x0 PUSH1 0x2 DUP2 LT PUSH2 0x20EF JUMPI PUSH2 0x20EE PUSH2 0x3CAA JUMP JUMPDEST JUMPDEST ADD DUP1 SLOAD PUSH2 0x20FB SWAP1 PUSH2 0x3B40 JUMP JUMPDEST DUP1 PUSH1 0x1F ADD PUSH1 0x20 DUP1 SWAP2 DIV MUL PUSH1 0x20 ADD PUSH1 0x40 MLOAD SWAP1 DUP2 ADD PUSH1 0x40 MSTORE DUP1 SWAP3 SWAP2 SWAP1 DUP2 DUP2 MSTORE PUSH1 0x20 ADD DUP3 DUP1 SLOAD PUSH2 0x2127 SWAP1 PUSH2 0x3B40 JUMP JUMPDEST DUP1 ISZERO PUSH2 0x2174 JUMPI DUP1 PUSH1 0x1F LT PUSH2 0x2149 JUMPI PUSH2 0x100 DUP1 DUP4 SLOAD DIV MUL DUP4 MSTORE SWAP2 PUSH1 0x20 ADD SWAP2 PUSH2 0x2174 JUMP JUMPDEST DUP3 ADD SWAP2 SWAP1 PUSH1 0x0 MSTORE PUSH1 0x20 PUSH1 0x0 KECCAK256 SWAP1 JUMPDEST DUP2 SLOAD DUP2 MSTORE SWAP1 PUSH1 0x1 ADD SWAP1 PUSH1 0x20 ADD DUP1 DUP4 GT PUSH2 0x2157 JUMPI DUP3 SWAP1 SUB PUSH1 0x1F AND DUP3 ADD SWAP2 JUMPDEST POP POP POP POP POP SWAP1 POP SWAP2 SWAP1 POP JUMP JUMPDEST PUSH1 0x0 DUP1 PUSH1 0x0 SWAP1 POP JUMPDEST PUSH1 0x2 SLOAD DUP2 LT ISZERO PUSH2 0x21F8 JUMPI DUP3 DUP1 MLOAD SWAP1 PUSH1 0x20 ADD KECCAK256 PUSH1 0xF PUSH1 0x0 DUP4 DUP2 MSTORE PUSH1 0x20 ADD SWAP1 DUP2 MSTORE PUSH1 0x20 ADD PUSH1 0x0 KECCAK256 PUSH1 0x1 PUSH1 0x3 DUP2 LT PUSH2 0x21C0 JUMPI PUSH2 0x21BF PUSH2 0x3CAA JUMP JUMPDEST JUMPDEST ADD PUSH1 0x40 MLOAD PUSH2 0x21CE SWAP2 SWAP1 PUSH2 0x363F JUMP JUMPDEST PUSH1 0x40 MLOAD DUP1 SWAP2 SUB SWAP1 KECCAK256 EQ ISZERO PUSH2 0x21E5 JUMPI DUP1 SWAP2 POP POP PUSH2 0x21FE JUMP JUMPDEST DUP1 DUP1 PUSH2 0x21F0 SWAP1 PUSH2 0x3BA3 JUMP JUMPDEST SWAP2 POP POP PUSH2 0x2188 JUMP JUMPDEST POP PUSH1 0x0 SWAP1 POP JUMPDEST SWAP2 SWAP1 POP JUMP JUMPDEST PUSH1 0x0 DUP1 PUSH1 0x0 SWAP1 POP JUMPDEST PUSH1 0x7 SLOAD DUP2 LT ISZERO PUSH2 0x2320 JUMPI DUP5 DUP1 MLOAD SWAP1 PUSH1 0x20 ADD KECCAK256 PUSH1 0xB PUSH1 0x0 DUP4 DUP2 MSTORE PUSH1 0x20 ADD SWAP1 DUP2 MSTORE PUSH1 0x20 ADD PUSH1 0x0 KECCAK256 PUSH1 0x1 PUSH1 0x3 DUP2 LT PUSH2 0x2243 JUMPI PUSH2 0x2242 PUSH2 0x3CAA JUMP JUMPDEST JUMPDEST ADD PUSH1 0x40 MLOAD PUSH2 0x2251 SWAP2 SWAP1 PUSH2 0x363F JUMP JUMPDEST PUSH1 0x40 MLOAD DUP1 SWAP2 SUB SWAP1 KECCAK256 EQ ISZERO PUSH2 0x230D JUMPI DUP4 PUSH1 0xB PUSH1 0x0 DUP4 DUP2 MSTORE PUSH1 0x20 ADD SWAP1 DUP2 MSTORE PUSH1 0x20 ADD PUSH1 0x0 KECCAK256 PUSH1 0x0 PUSH1 0x3 DUP2 LT PUSH2 0x2286 JUMPI PUSH2 0x2285 PUSH2 0x3CAA JUMP JUMPDEST JUMPDEST ADD SWAP1 DUP1 MLOAD SWAP1 PUSH1 0x20 ADD SWAP1 PUSH2 0x229A SWAP3 SWAP2 SWAP1 PUSH2 0x2D2D JUMP JUMPDEST POP PUSH1 0x40 MLOAD DUP1 PUSH1 0x40 ADD PUSH1 0x40 MSTORE DUP1 PUSH1 0x4 DUP2 MSTORE PUSH1 0x20 ADD PUSH32 0x5472756500000000000000000000000000000000000000000000000000000000 DUP2 MSTORE POP PUSH1 0xB PUSH1 0x0 DUP4 DUP2 MSTORE PUSH1 0x20 ADD SWAP1 DUP2 MSTORE PUSH1 0x20 ADD PUSH1 0x0 KECCAK256 PUSH1 0x2 PUSH1 0x3 DUP2 LT PUSH2 0x22F7 JUMPI PUSH2 0x22F6 PUSH2 0x3CAA JUMP JUMPDEST JUMPDEST ADD SWAP1 DUP1 MLOAD SWAP1 PUSH1 0x20 ADD SWAP1 PUSH2 0x230B SWAP3 SWAP2 SWAP1 PUSH2 0x2D2D JUMP JUMPDEST POP JUMPDEST DUP1 DUP1 PUSH2 0x2318 SWAP1 PUSH2 0x3BA3 JUMP JUMPDEST SWAP2 POP POP PUSH2 0x220B JUMP JUMPDEST POP PUSH2 0x232B DUP5 DUP4 PUSH2 0x1653 JUMP JUMPDEST POP PUSH1 0x5 SLOAD SWAP1 POP SWAP4 SWAP3 POP POP POP JUMP JUMPDEST PUSH1 0x0 DUP1 PUSH1 0x0 SWAP1 POP JUMPDEST PUSH1 0x1 SLOAD DUP2 LT ISZERO PUSH2 0x239C JUMPI DUP3 DUP1 MLOAD SWAP1 PUSH1 0x20 ADD KECCAK256 PUSH1 0xD PUSH1 0x0 DUP4 DUP2 MSTORE PUSH1 0x20 ADD SWAP1 DUP2 MSTORE PUSH1 0x20 ADD PUSH1 0x0 KECCAK256 PUSH1 0x40 MLOAD PUSH2 0x2372 SWAP2 SWAP1 PUSH2 0x363F JUMP JUMPDEST PUSH1 0x40 MLOAD DUP1 SWAP2 SUB SWAP1 KECCAK256 EQ ISZERO PUSH2 0x2389 JUMPI DUP1 SWAP2 POP POP PUSH2 0x23A2 JUMP JUMPDEST DUP1 DUP1 PUSH2 0x2394 SWAP1 PUSH2 0x3BA3 JUMP JUMPDEST SWAP2 POP POP PUSH2 0x2340 JUMP JUMPDEST POP PUSH1 0x0 SWAP1 POP JUMPDEST SWAP2 SWAP1 POP JUMP JUMPDEST PUSH1 0x40 MLOAD DUP1 PUSH1 0x40 ADD PUSH1 0x40 MSTORE DUP1 PUSH2 0x23BB DUP5 PUSH2 0x2B3C JUMP JUMPDEST DUP2 MSTORE PUSH1 0x20 ADD DUP3 DUP2 MSTORE POP PUSH1 0x9 PUSH1 0x0 DUP6 DUP2 MSTORE PUSH1 0x20 ADD SWAP1 DUP2 MSTORE PUSH1 0x20 ADD PUSH1 0x0 KECCAK256 SWAP1 PUSH1 0x2 PUSH2 0x23E5 SWAP3 SWAP2 SWAP1 PUSH2 0x2DB3 JUMP JUMPDEST POP POP POP POP JUMP JUMPDEST PUSH1 0x60 PUSH1 0x0 DUP1 JUMPDEST PUSH1 0x3 SLOAD DUP2 LT ISZERO PUSH2 0x246F JUMPI PUSH2 0x2404 DUP5 PUSH2 0x2B3C JUMP JUMPDEST DUP1 MLOAD SWAP1 PUSH1 0x20 ADD KECCAK256 PUSH1 0x8 PUSH1 0x0 DUP4 DUP2 MSTORE PUSH1 0x20 ADD SWAP1 DUP2 MSTORE PUSH1 0x20 ADD PUSH1 0x0 KECCAK256 PUSH1 0x0 PUSH1 0x2 DUP2 LT PUSH2 0x2431 JUMPI PUSH2 0x2430 PUSH2 0x3CAA JUMP JUMPDEST JUMPDEST ADD PUSH1 0x40 MLOAD PUSH2 0x243F SWAP2 SWAP1 PUSH2 0x363F JUMP JUMPDEST PUSH1 0x40 MLOAD DUP1 SWAP2 SUB SWAP1 KECCAK256 EQ ISZERO PUSH2 0x245C JUMPI DUP2 DUP1 PUSH2 0x2458 SWAP1 PUSH2 0x3BA3 JUMP JUMPDEST SWAP3 POP POP JUMPDEST DUP1 DUP1 PUSH2 0x2467 SWAP1 PUSH2 0x3BA3 JUMP JUMPDEST SWAP2 POP POP PUSH2 0x23F1 JUMP JUMPDEST POP PUSH1 0x0 DUP2 PUSH8 0xFFFFFFFFFFFFFFFF DUP2 GT ISZERO PUSH2 0x248C JUMPI PUSH2 0x248B PUSH2 0x3CD9 JUMP JUMPDEST JUMPDEST PUSH1 0x40 MLOAD SWAP1 DUP1 DUP3 MSTORE DUP1 PUSH1 0x20 MUL PUSH1 0x20 ADD DUP3 ADD PUSH1 0x40 MSTORE DUP1 ISZERO PUSH2 0x24BF JUMPI DUP2 PUSH1 0x20 ADD JUMPDEST PUSH1 0x60 DUP2 MSTORE PUSH1 0x20 ADD SWAP1 PUSH1 0x1 SWAP1 SUB SWAP1 DUP2 PUSH2 0x24AA JUMPI SWAP1 POP JUMPDEST POP SWAP1 POP PUSH1 0x0 PUSH1 0x6 DUP2 SWAP1 SSTORE POP PUSH1 0x0 JUMPDEST PUSH1 0x3 SLOAD DUP2 LT ISZERO PUSH2 0x2625 JUMPI PUSH2 0x24E0 DUP6 PUSH2 0x2B3C JUMP JUMPDEST DUP1 MLOAD SWAP1 PUSH1 0x20 ADD KECCAK256 PUSH1 0x8 PUSH1 0x0 DUP4 DUP2 MSTORE PUSH1 0x20 ADD SWAP1 DUP2 MSTORE PUSH1 0x20 ADD PUSH1 0x0 KECCAK256 PUSH1 0x0 PUSH1 0x2 DUP2 LT PUSH2 0x250D JUMPI PUSH2 0x250C PUSH2 0x3CAA JUMP JUMPDEST JUMPDEST ADD PUSH1 0x40 MLOAD PUSH2 0x251B SWAP2 SWAP1 PUSH2 0x363F JUMP JUMPDEST PUSH1 0x40 MLOAD DUP1 SWAP2 SUB SWAP1 KECCAK256 EQ ISZERO PUSH2 0x2612 JUMPI PUSH1 0x8 PUSH1 0x0 DUP3 DUP2 MSTORE PUSH1 0x20 ADD SWAP1 DUP2 MSTORE PUSH1 0x20 ADD PUSH1 0x0 KECCAK256 PUSH1 0x1 PUSH1 0x2 DUP2 LT PUSH2 0x254F JUMPI PUSH2 0x254E PUSH2 0x3CAA JUMP JUMPDEST JUMPDEST ADD DUP1 SLOAD PUSH2 0x255B SWAP1 PUSH2 0x3B40 JUMP JUMPDEST DUP1 PUSH1 0x1F ADD PUSH1 0x20 DUP1 SWAP2 DIV MUL PUSH1 0x20 ADD PUSH1 0x40 MLOAD SWAP1 DUP2 ADD PUSH1 0x40 MSTORE DUP1 SWAP3 SWAP2 SWAP1 DUP2 DUP2 MSTORE PUSH1 0x20 ADD DUP3 DUP1 SLOAD PUSH2 0x2587 SWAP1 PUSH2 0x3B40 JUMP JUMPDEST DUP1 ISZERO PUSH2 0x25D4 JUMPI DUP1 PUSH1 0x1F LT PUSH2 0x25A9 JUMPI PUSH2 0x100 DUP1 DUP4 SLOAD DIV MUL DUP4 MSTORE SWAP2 PUSH1 0x20 ADD SWAP2 PUSH2 0x25D4 JUMP JUMPDEST DUP3 ADD SWAP2 SWAP1 PUSH1 0x0 MSTORE PUSH1 0x20 PUSH1 0x0 KECCAK256 SWAP1 JUMPDEST DUP2 SLOAD DUP2 MSTORE SWAP1 PUSH1 0x1 ADD SWAP1 PUSH1 0x20 ADD DUP1 DUP4 GT PUSH2 0x25B7 JUMPI DUP3 SWAP1 SUB PUSH1 0x1F AND DUP3 ADD SWAP2 JUMPDEST POP POP POP POP POP DUP3 PUSH1 0x6 SLOAD DUP2 MLOAD DUP2 LT PUSH2 0x25EE JUMPI PUSH2 0x25ED PUSH2 0x3CAA JUMP JUMPDEST JUMPDEST PUSH1 0x20 MUL PUSH1 0x20 ADD ADD DUP2 SWAP1 MSTORE POP PUSH1 0x6 PUSH1 0x0 DUP2 SLOAD DUP1 SWAP3 SWAP2 SWAP1 PUSH2 0x260C SWAP1 PUSH2 0x3BA3 JUMP JUMPDEST SWAP2 SWAP1 POP SSTORE POP JUMPDEST DUP1 DUP1 PUSH2 0x261D SWAP1 PUSH2 0x3BA3 JUMP JUMPDEST SWAP2 POP POP PUSH2 0x24CD JUMP JUMPDEST POP DUP1 SWAP3 POP POP POP SWAP2 SWAP1 POP JUMP JUMPDEST DUP1 PUSH1 0xD PUSH1 0x0 DUP5 DUP2 MSTORE PUSH1 0x20 ADD SWAP1 DUP2 MSTORE PUSH1 0x20 ADD PUSH1 0x0 KECCAK256 SWAP1 DUP1 MLOAD SWAP1 PUSH1 0x20 ADD SWAP1 PUSH2 0x2657 SWAP3 SWAP2 SWAP1 PUSH2 0x2D2D JUMP JUMPDEST POP POP POP JUMP JUMPDEST PUSH1 0x60 PUSH1 0x0 DUP1 PUSH1 0x0 JUMPDEST PUSH1 0x7 SLOAD DUP2 LT ISZERO PUSH2 0x26DA JUMPI DUP5 DUP1 MLOAD SWAP1 PUSH1 0x20 ADD KECCAK256 PUSH1 0xB PUSH1 0x0 DUP4 DUP2 MSTORE PUSH1 0x20 ADD SWAP1 DUP2 MSTORE PUSH1 0x20 ADD PUSH1 0x0 KECCAK256 PUSH1 0x0 PUSH1 0x3 DUP2 LT PUSH2 0x269C JUMPI PUSH2 0x269B PUSH2 0x3CAA JUMP JUMPDEST JUMPDEST ADD PUSH1 0x40 MLOAD PUSH2 0x26AA SWAP2 SWAP1 PUSH2 0x363F JUMP JUMPDEST PUSH1 0x40 MLOAD DUP1 SWAP2 SUB SWAP1 KECCAK256 EQ ISZERO PUSH2 0x26C7 JUMPI DUP3 DUP1 PUSH2 0x26C3 SWAP1 PUSH2 0x3BA3 JUMP JUMPDEST SWAP4 POP POP JUMPDEST DUP1 DUP1 PUSH2 0x26D2 SWAP1 PUSH2 0x3BA3 JUMP JUMPDEST SWAP2 POP POP PUSH2 0x2664 JUMP JUMPDEST POP PUSH1 0x0 DUP3 PUSH8 0xFFFFFFFFFFFFFFFF DUP2 GT ISZERO PUSH2 0x26F7 JUMPI PUSH2 0x26F6 PUSH2 0x3CD9 JUMP JUMPDEST JUMPDEST PUSH1 0x40 MLOAD SWAP1 DUP1 DUP3 MSTORE DUP1 PUSH1 0x20 MUL PUSH1 0x20 ADD DUP3 ADD PUSH1 0x40 MSTORE DUP1 ISZERO PUSH2 0x272A JUMPI DUP2 PUSH1 0x20 ADD JUMPDEST PUSH1 0x60 DUP2 MSTORE PUSH1 0x20 ADD SWAP1 PUSH1 0x1 SWAP1 SUB SWAP1 DUP2 PUSH2 0x2715 JUMPI SWAP1 POP JUMPDEST POP SWAP1 POP PUSH1 0x0 JUMPDEST PUSH1 0x7 SLOAD DUP2 LT ISZERO PUSH2 0x2884 JUMPI DUP6 DUP1 MLOAD SWAP1 PUSH1 0x20 ADD KECCAK256 PUSH1 0xB PUSH1 0x0 DUP4 DUP2 MSTORE PUSH1 0x20 ADD SWAP1 DUP2 MSTORE PUSH1 0x20 ADD PUSH1 0x0 KECCAK256 PUSH1 0x0 PUSH1 0x3 DUP2 LT PUSH2 0x2768 JUMPI PUSH2 0x2767 PUSH2 0x3CAA JUMP JUMPDEST JUMPDEST ADD PUSH1 0x40 MLOAD PUSH2 0x2776 SWAP2 SWAP1 PUSH2 0x363F JUMP JUMPDEST PUSH1 0x40 MLOAD DUP1 SWAP2 SUB SWAP1 KECCAK256 EQ ISZERO PUSH2 0x2871 JUMPI PUSH2 0x2844 PUSH2 0x283F PUSH1 0xB PUSH1 0x0 DUP5 DUP2 MSTORE PUSH1 0x20 ADD SWAP1 DUP2 MSTORE PUSH1 0x20 ADD PUSH1 0x0 KECCAK256 PUSH1 0x1 PUSH1 0x3 DUP2 LT PUSH2 0x27B0 JUMPI PUSH2 0x27AF PUSH2 0x3CAA JUMP JUMPDEST JUMPDEST ADD DUP1 SLOAD PUSH2 0x27BC SWAP1 PUSH2 0x3B40 JUMP JUMPDEST DUP1 PUSH1 0x1F ADD PUSH1 0x20 DUP1 SWAP2 DIV MUL PUSH1 0x20 ADD PUSH1 0x40 MLOAD SWAP1 DUP2 ADD PUSH1 0x40 MSTORE DUP1 SWAP3 SWAP2 SWAP1 DUP2 DUP2 MSTORE PUSH1 0x20 ADD DUP3 DUP1 SLOAD PUSH2 0x27E8 SWAP1 PUSH2 0x3B40 JUMP JUMPDEST DUP1 ISZERO PUSH2 0x2835 JUMPI DUP1 PUSH1 0x1F LT PUSH2 0x280A JUMPI PUSH2 0x100 DUP1 DUP4 SLOAD DIV MUL DUP4 MSTORE SWAP2 PUSH1 0x20 ADD SWAP2 PUSH2 0x2835 JUMP JUMPDEST DUP3 ADD SWAP2 SWAP1 PUSH1 0x0 MSTORE PUSH1 0x20 PUSH1 0x0 KECCAK256 SWAP1 JUMPDEST DUP2 SLOAD DUP2 MSTORE SWAP1 PUSH1 0x1 ADD SWAP1 PUSH1 0x20 ADD DUP1 DUP4 GT PUSH2 0x2818 JUMPI DUP3 SWAP1 SUB PUSH1 0x1F AND DUP3 ADD SWAP2 JUMPDEST POP POP POP POP POP PUSH2 0x1FB4 JUMP JUMPDEST PUSH2 0x20C7 JUMP JUMPDEST DUP3 DUP5 DUP2 MLOAD DUP2 LT PUSH2 0x2857 JUMPI PUSH2 0x2856 PUSH2 0x3CAA JUMP JUMPDEST JUMPDEST PUSH1 0x20 MUL PUSH1 0x20 ADD ADD DUP2 SWAP1 MSTORE POP DUP3 DUP1 PUSH2 0x286D SWAP1 PUSH2 0x3BA3 JUMP JUMPDEST SWAP4 POP POP JUMPDEST DUP1 DUP1 PUSH2 0x287C SWAP1 PUSH2 0x3BA3 JUMP JUMPDEST SWAP2 POP POP PUSH2 0x2730 JUMP JUMPDEST POP DUP1 SWAP4 POP POP POP POP SWAP2 SWAP1 POP JUMP JUMPDEST PUSH1 0x0 PUSH2 0x289F PUSH1 0x2 SLOAD DUP5 DUP5 PUSH2 0x15DC JUMP JUMPDEST PUSH2 0x28E0 PUSH1 0x2 SLOAD PUSH1 0x40 MLOAD DUP1 PUSH1 0x40 ADD PUSH1 0x40 MSTORE DUP1 PUSH1 0x1 DUP2 MSTORE PUSH1 0x20 ADD PUSH32 0x3000000000000000000000000000000000000000000000000000000000000000 DUP2 MSTORE POP PUSH2 0xB2C JUMP JUMPDEST PUSH1 0x2 PUSH1 0x0 DUP2 SLOAD DUP1 SWAP3 SWAP2 SWAP1 PUSH2 0x28F3 SWAP1 PUSH2 0x3BA3 JUMP JUMPDEST SWAP2 SWAP1 POP SSTORE POP PUSH1 0x2 SLOAD SWAP1 POP SWAP3 SWAP2 POP POP JUMP JUMPDEST PUSH1 0x7 SLOAD DUP2 JUMP JUMPDEST PUSH1 0x60 PUSH1 0x0 DUP1 JUMPDEST PUSH1 0x3 SLOAD DUP2 LT ISZERO PUSH2 0x298D JUMPI PUSH2 0x2922 DUP5 PUSH2 0x2B3C JUMP JUMPDEST DUP1 MLOAD SWAP1 PUSH1 0x20 ADD KECCAK256 PUSH1 0x8 PUSH1 0x0 DUP4 DUP2 MSTORE PUSH1 0x20 ADD SWAP1 DUP2 MSTORE PUSH1 0x20 ADD PUSH1 0x0 KECCAK256 PUSH1 0x0 PUSH1 0x2 DUP2 LT PUSH2 0x294F JUMPI PUSH2 0x294E PUSH2 0x3CAA JUMP JUMPDEST JUMPDEST ADD PUSH1 0x40 MLOAD PUSH2 0x295D SWAP2 SWAP1 PUSH2 0x363F JUMP JUMPDEST PUSH1 0x40 MLOAD DUP1 SWAP2 SUB SWAP1 KECCAK256 EQ ISZERO PUSH2 0x297A JUMPI DUP2 DUP1 PUSH2 0x2976 SWAP1 PUSH2 0x3BA3 JUMP JUMPDEST SWAP3 POP POP JUMPDEST DUP1 DUP1 PUSH2 0x2985 SWAP1 PUSH2 0x3BA3 JUMP JUMPDEST SWAP2 POP POP PUSH2 0x290F JUMP JUMPDEST POP PUSH1 0x0 DUP2 PUSH8 0xFFFFFFFFFFFFFFFF DUP2 GT ISZERO PUSH2 0x29AA JUMPI PUSH2 0x29A9 PUSH2 0x3CD9 JUMP JUMPDEST JUMPDEST PUSH1 0x40 MLOAD SWAP1 DUP1 DUP3 MSTORE DUP1 PUSH1 0x20 MUL PUSH1 0x20 ADD DUP3 ADD PUSH1 0x40 MSTORE DUP1 ISZERO PUSH2 0x29DD JUMPI DUP2 PUSH1 0x20 ADD JUMPDEST PUSH1 0x60 DUP2 MSTORE PUSH1 0x20 ADD SWAP1 PUSH1 0x1 SWAP1 SUB SWAP1 DUP2 PUSH2 0x29C8 JUMPI SWAP1 POP JUMPDEST POP SWAP1 POP PUSH1 0x0 DUP1 JUMPDEST PUSH1 0x3 SLOAD DUP2 LT ISZERO PUSH2 0x2B30 JUMPI PUSH2 0x29F7 DUP7 PUSH2 0x2B3C JUMP JUMPDEST DUP1 MLOAD SWAP1 PUSH1 0x20 ADD KECCAK256 PUSH1 0x8 PUSH1 0x0 DUP4 DUP2 MSTORE PUSH1 0x20 ADD SWAP1 DUP2 MSTORE PUSH1 0x20 ADD PUSH1 0x0 KECCAK256 PUSH1 0x0 PUSH1 0x2 DUP2 LT PUSH2 0x2A24 JUMPI PUSH2 0x2A23 PUSH2 0x3CAA JUMP JUMPDEST JUMPDEST ADD PUSH1 0x40 MLOAD PUSH2 0x2A32 SWAP2 SWAP1 PUSH2 0x363F JUMP JUMPDEST PUSH1 0x40 MLOAD DUP1 SWAP2 SUB SWAP1 KECCAK256 EQ ISZERO PUSH2 0x2B1D JUMPI PUSH1 0x8 PUSH1 0x0 DUP3 DUP2 MSTORE PUSH1 0x20 ADD SWAP1 DUP2 MSTORE PUSH1 0x20 ADD PUSH1 0x0 KECCAK256 PUSH1 0x1 PUSH1 0x2 DUP2 LT PUSH2 0x2A66 JUMPI PUSH2 0x2A65 PUSH2 0x3CAA JUMP JUMPDEST JUMPDEST ADD DUP1 SLOAD PUSH2 0x2A72 SWAP1 PUSH2 0x3B40 JUMP JUMPDEST DUP1 PUSH1 0x1F ADD PUSH1 0x20 DUP1 SWAP2 DIV MUL PUSH1 0x20 ADD PUSH1 0x40 MLOAD SWAP1 DUP2 ADD PUSH1 0x40 MSTORE DUP1 SWAP3 SWAP2 SWAP1 DUP2 DUP2 MSTORE PUSH1 0x20 ADD DUP3 DUP1 SLOAD PUSH2 0x2A9E SWAP1 PUSH2 0x3B40 JUMP JUMPDEST DUP1 ISZERO PUSH2 0x2AEB JUMPI DUP1 PUSH1 0x1F LT PUSH2 0x2AC0 JUMPI PUSH2 0x100 DUP1 DUP4 SLOAD DIV MUL DUP4 MSTORE SWAP2 PUSH1 0x20 ADD SWAP2 PUSH2 0x2AEB JUMP JUMPDEST DUP3 ADD SWAP2 SWAP1 PUSH1 0x0 MSTORE PUSH1 0x20 PUSH1 0x0 KECCAK256 SWAP1 JUMPDEST DUP2 SLOAD DUP2 MSTORE SWAP1 PUSH1 0x1 ADD SWAP1 PUSH1 0x20 ADD DUP1 DUP4 GT PUSH2 0x2ACE JUMPI DUP3 SWAP1 SUB PUSH1 0x1F AND DUP3 ADD SWAP2 JUMPDEST POP POP POP POP POP DUP4 DUP4 DUP2 MLOAD DUP2 LT PUSH2 0x2B03 JUMPI PUSH2 0x2B02 PUSH2 0x3CAA JUMP JUMPDEST JUMPDEST PUSH1 0x20 MUL PUSH1 0x20 ADD ADD DUP2 SWAP1 MSTORE POP DUP2 DUP1 PUSH2 0x2B19 SWAP1 PUSH2 0x3BA3 JUMP JUMPDEST SWAP3 POP POP JUMPDEST DUP1 DUP1 PUSH2 0x2B28 SWAP1 PUSH2 0x3BA3 JUMP JUMPDEST SWAP2 POP POP PUSH2 0x29E4 JUMP JUMPDEST POP DUP2 SWAP4 POP POP POP POP SWAP2 SWAP1 POP JUMP JUMPDEST PUSH1 0x60 PUSH1 0x0 DUP3 EQ ISZERO PUSH2 0x2B84 JUMPI PUSH1 0x40 MLOAD DUP1 PUSH1 0x40 ADD PUSH1 0x40 MSTORE DUP1 PUSH1 0x1 DUP2 MSTORE PUSH1 0x20 ADD PUSH32 0x3000000000000000000000000000000000000000000000000000000000000000 DUP2 MSTORE POP SWAP1 POP PUSH2 0x2C98 JUMP JUMPDEST PUSH1 0x0 DUP3 SWAP1 POP PUSH1 0x0 JUMPDEST PUSH1 0x0 DUP3 EQ PUSH2 0x2BB6 JUMPI DUP1 DUP1 PUSH2 0x2B9F SWAP1 PUSH2 0x3BA3 JUMP JUMPDEST SWAP2 POP POP PUSH1 0xA DUP3 PUSH2 0x2BAF SWAP2 SWAP1 PUSH2 0x3851 JUMP JUMPDEST SWAP2 POP PUSH2 0x2B8C JUMP JUMPDEST PUSH1 0x0 DUP2 PUSH8 0xFFFFFFFFFFFFFFFF DUP2 GT ISZERO PUSH2 0x2BD2 JUMPI PUSH2 0x2BD1 PUSH2 0x3CD9 JUMP JUMPDEST JUMPDEST PUSH1 0x40 MLOAD SWAP1 DUP1 DUP3 MSTORE DUP1 PUSH1 0x1F ADD PUSH1 0x1F NOT AND PUSH1 0x20 ADD DUP3 ADD PUSH1 0x40 MSTORE DUP1 ISZERO PUSH2 0x2C04 JUMPI DUP2 PUSH1 0x20 ADD PUSH1 0x1 DUP3 MUL DUP1 CALLDATASIZE DUP4 CALLDATACOPY DUP1 DUP3 ADD SWAP2 POP POP SWAP1 POP JUMPDEST POP SWAP1 POP JUMPDEST PUSH1 0x0 DUP6 EQ PUSH2 0x2C91 JUMPI PUSH1 0x1 DUP3 PUSH2 0x2C1D SWAP2 SWAP1 PUSH2 0x3A4D JUMP JUMPDEST SWAP2 POP PUSH1 0xA DUP6 PUSH2 0x2C2C SWAP2 SWAP1 PUSH2 0x3BEC JUMP JUMPDEST PUSH1 0x30 PUSH2 0x2C38 SWAP2 SWAP1 PUSH2 0x37FB JUMP JUMPDEST PUSH1 0xF8 SHL DUP2 DUP4 DUP2 MLOAD DUP2 LT PUSH2 0x2C4E JUMPI PUSH2 0x2C4D PUSH2 0x3CAA JUMP JUMPDEST JUMPDEST PUSH1 0x20 ADD ADD SWAP1 PUSH31 0xFFFFFFFFFFFFFFFFFFFFFFFFFFFFFFFFFFFFFFFFFFFFFFFFFFFFFFFFFFFFFF NOT AND SWAP1 DUP2 PUSH1 0x0 BYTE SWAP1 MSTORE8 POP PUSH1 0xA DUP6 PUSH2 0x2C8A SWAP2 SWAP1 PUSH2 0x3851 JUMP JUMPDEST SWAP5 POP PUSH2 0x2C08 JUMP JUMPDEST DUP1 SWAP4 POP POP POP POP JUMPDEST SWAP2 SWAP1 POP JUMP JUMPDEST PUSH1 0x40 MLOAD DUP1 PUSH1 0x60 ADD PUSH1 0x40 MSTORE DUP1 DUP4 DUP2 MSTORE PUSH1 0x20 ADD DUP3 DUP2 MSTORE PUSH1 0x20 ADD PUSH1 0x40 MLOAD DUP1 PUSH1 0x40 ADD PUSH1 0x40 MSTORE DUP1 PUSH1 0x5 DUP2 MSTORE PUSH1 0x20 ADD PUSH32 0x46616C7365000000000000000000000000000000000000000000000000000000 DUP2 MSTORE POP DUP2 MSTORE POP PUSH1 0xB PUSH1 0x0 PUSH1 0x7 SLOAD DUP2 MSTORE PUSH1 0x20 ADD SWAP1 DUP2 MSTORE PUSH1 0x20 ADD PUSH1 0x0 KECCAK256 SWAP1 PUSH1 0x3 PUSH2 0x2D10 SWAP3 SWAP2 SWAP1 PUSH2 0x2E06 JUMP JUMPDEST POP PUSH1 0x7 PUSH1 0x0 DUP2 SLOAD DUP1 SWAP3 SWAP2 SWAP1 PUSH2 0x2D24 SWAP1 PUSH2 0x3BA3 JUMP JUMPDEST SWAP2 SWAP1 POP SSTORE POP POP POP JUMP JUMPDEST DUP3 DUP1 SLOAD PUSH2 0x2D39 SWAP1 PUSH2 0x3B40 JUMP JUMPDEST SWAP1 PUSH1 0x0 MSTORE PUSH1 0x20 PUSH1 0x0 KECCAK256 SWAP1 PUSH1 0x1F ADD PUSH1 0x20 SWAP1 DIV DUP2 ADD SWAP3 DUP3 PUSH2 0x2D5B JUMPI PUSH1 0x0 DUP6 SSTORE PUSH2 0x2DA2 JUMP JUMPDEST DUP3 PUSH1 0x1F LT PUSH2 0x2D74 JUMPI DUP1 MLOAD PUSH1 0xFF NOT AND DUP4 DUP1 ADD OR DUP6 SSTORE PUSH2 0x2DA2 JUMP JUMPDEST DUP3 DUP1 ADD PUSH1 0x1 ADD DUP6 SSTORE DUP3 ISZERO PUSH2 0x2DA2 JUMPI SWAP2 DUP3 ADD JUMPDEST DUP3 DUP2 GT ISZERO PUSH2 0x2DA1 JUMPI DUP3 MLOAD DUP3 SSTORE SWAP2 PUSH1 0x20 ADD SWAP2 SWAP1 PUSH1 0x1 ADD SWAP1 PUSH2 0x2D86 JUMP JUMPDEST JUMPDEST POP SWAP1 POP PUSH2 0x2DAF SWAP2 SWAP1 PUSH2 0x2E80 JUMP JUMPDEST POP SWAP1 JUMP JUMPDEST DUP3 PUSH1 0x2 DUP2 ADD SWAP3 DUP3 ISZERO PUSH2 0x2DF5 JUMPI SWAP2 PUSH1 0x20 MUL DUP3 ADD JUMPDEST DUP3 DUP2 GT ISZERO PUSH2 0x2DF4 JUMPI DUP3 MLOAD DUP3 SWAP1 DUP1 MLOAD SWAP1 PUSH1 0x20 ADD SWAP1 PUSH2 0x2DE4 SWAP3 SWAP2 SWAP1 PUSH2 0x2D2D JUMP JUMPDEST POP SWAP2 PUSH1 0x20 ADD SWAP2 SWAP1 PUSH1 0x1 ADD SWAP1 PUSH2 0x2DC6 JUMP JUMPDEST JUMPDEST POP SWAP1 POP PUSH2 0x2E02 SWAP2 SWAP1 PUSH2 0x2E9D JUMP JUMPDEST POP SWAP1 JUMP JUMPDEST DUP3 PUSH1 0x3 DUP2 ADD SWAP3 DUP3 ISZERO PUSH2 0x2E48 JUMPI SWAP2 PUSH1 0x20 MUL DUP3 ADD JUMPDEST DUP3 DUP2 GT ISZERO PUSH2 0x2E47 JUMPI DUP3 MLOAD DUP3 SWAP1 DUP1 MLOAD SWAP1 PUSH1 0x20 ADD SWAP1 PUSH2 0x2E37 SWAP3 SWAP2 SWAP1 PUSH2 0x2D2D JUMP JUMPDEST POP SWAP2 PUSH1 0x20 ADD SWAP2 SWAP1 PUSH1 0x1 ADD SWAP1 PUSH2 0x2E19 JUMP JUMPDEST JUMPDEST POP SWAP1 POP PUSH2 0x2E55 SWAP2 SWAP1 PUSH2 0x2E9D JUMP JUMPDEST POP SWAP1 JUMP JUMPDEST PUSH1 0x40 MLOAD DUP1 PUSH1 0x60 ADD PUSH1 0x40 MSTORE DUP1 PUSH1 0x3 SWAP1 JUMPDEST PUSH1 0x60 DUP2 MSTORE PUSH1 0x20 ADD SWAP1 PUSH1 0x1 SWAP1 SUB SWAP1 DUP2 PUSH2 0x2E68 JUMPI SWAP1 POP POP SWAP1 JUMP JUMPDEST JUMPDEST DUP1 DUP3 GT ISZERO PUSH2 0x2E99 JUMPI PUSH1 0x0 DUP2 PUSH1 0x0 SWAP1 SSTORE POP PUSH1 0x1 ADD PUSH2 0x2E81 JUMP JUMPDEST POP SWAP1 JUMP JUMPDEST JUMPDEST DUP1 DUP3 GT ISZERO PUSH2 0x2EBD JUMPI PUSH1 0x0 DUP2 DUP2 PUSH2 0x2EB4 SWAP2 SWAP1 PUSH2 0x2EC1 JUMP JUMPDEST POP PUSH1 0x1 ADD PUSH2 0x2E9E JUMP JUMPDEST POP SWAP1 JUMP JUMPDEST POP DUP1 SLOAD PUSH2 0x2ECD SWAP1 PUSH2 0x3B40 JUMP JUMPDEST PUSH1 0x0 DUP3 SSTORE DUP1 PUSH1 0x1F LT PUSH2 0x2EDF JUMPI POP PUSH2 0x2EFE JUMP JUMPDEST PUSH1 0x1F ADD PUSH1 0x20 SWAP1 DIV SWAP1 PUSH1 0x0 MSTORE PUSH1 0x20 PUSH1 0x0 KECCAK256 SWAP1 DUP2 ADD SWAP1 PUSH2 0x2EFD SWAP2 SWAP1 PUSH2 0x2E80 JUMP JUMPDEST JUMPDEST POP JUMP JUMPDEST PUSH1 0x0 PUSH2 0x2F14 PUSH2 0x2F0F DUP5 PUSH2 0x3717 JUMP JUMPDEST PUSH2 0x36F2 JUMP JUMPDEST SWAP1 POP DUP3 DUP2 MSTORE PUSH1 0x20 DUP2 ADD DUP5 DUP5 DUP5 ADD GT ISZERO PUSH2 0x2F30 JUMPI PUSH2 0x2F2F PUSH2 0x3D0D JUMP JUMPDEST JUMPDEST PUSH2 0x2F3B DUP5 DUP3 DUP6 PUSH2 0x3AFE JUMP JUMPDEST POP SWAP4 SWAP3 POP POP POP JUMP JUMPDEST PUSH1 0x0 DUP2 CALLDATALOAD SWAP1 POP PUSH2 0x2F52 DUP2 PUSH2 0x3D3A JUMP JUMPDEST SWAP3 SWAP2 POP POP JUMP JUMPDEST PUSH1 0x0 DUP3 PUSH1 0x1F DUP4 ADD SLT PUSH2 0x2F6D JUMPI PUSH2 0x2F6C PUSH2 0x3D08 JUMP JUMPDEST JUMPDEST DUP2 CALLDATALOAD PUSH2 0x2F7D DUP5 DUP3 PUSH1 0x20 DUP7 ADD PUSH2 0x2F01 JUMP JUMPDEST SWAP2 POP POP SWAP3 SWAP2 POP POP JUMP JUMPDEST PUSH1 0x0 DUP2 CALLDATALOAD SWAP1 POP PUSH2 0x2F95 DUP2 PUSH2 0x3D51 JUMP JUMPDEST SWAP3 SWAP2 POP POP JUMP JUMPDEST PUSH1 0x0 DUP1 PUSH1 0x0 PUSH1 0x60 DUP5 DUP7 SUB SLT ISZERO PUSH2 0x2FB4 JUMPI PUSH2 0x2FB3 PUSH2 0x3D17 JUMP JUMPDEST JUMPDEST PUSH1 0x0 PUSH2 0x2FC2 DUP7 DUP3 DUP8 ADD PUSH2 0x2F43 JUMP JUMPDEST SWAP4 POP POP PUSH1 0x20 DUP5 ADD CALLDATALOAD PUSH8 0xFFFFFFFFFFFFFFFF DUP2 GT ISZERO PUSH2 0x2FE3 JUMPI PUSH2 0x2FE2 PUSH2 0x3D12 JUMP JUMPDEST JUMPDEST PUSH2 0x2FEF DUP7 DUP3 DUP8 ADD PUSH2 0x2F58 JUMP JUMPDEST SWAP3 POP POP PUSH1 0x40 PUSH2 0x3000 DUP7 DUP3 DUP8 ADD PUSH2 0x2F86 JUMP JUMPDEST SWAP2 POP POP SWAP3 POP SWAP3 POP SWAP3 JUMP JUMPDEST PUSH1 0x0 PUSH1 0x20 DUP3 DUP5 SUB SLT ISZERO PUSH2 0x3020 JUMPI PUSH2 0x301F PUSH2 0x3D17 JUMP JUMPDEST JUMPDEST PUSH1 0x0 DUP3 ADD CALLDATALOAD PUSH8 0xFFFFFFFFFFFFFFFF DUP2 GT ISZERO PUSH2 0x303E JUMPI PUSH2 0x303D PUSH2 0x3D12 JUMP JUMPDEST JUMPDEST PUSH2 0x304A DUP5 DUP3 DUP6 ADD PUSH2 0x2F58 JUMP JUMPDEST SWAP2 POP POP SWAP3 SWAP2 POP POP JUMP JUMPDEST PUSH1 0x0 DUP1 PUSH1 0x40 DUP4 DUP6 SUB SLT ISZERO PUSH2 0x306A JUMPI PUSH2 0x3069 PUSH2 0x3D17 JUMP JUMPDEST JUMPDEST PUSH1 0x0 DUP4 ADD CALLDATALOAD PUSH8 0xFFFFFFFFFFFFFFFF DUP2 GT ISZERO PUSH2 0x3088 JUMPI PUSH2 0x3087 PUSH2 0x3D12 JUMP JUMPDEST JUMPDEST PUSH2 0x3094 DUP6 DUP3 DUP7 ADD PUSH2 0x2F58 JUMP JUMPDEST SWAP3 POP POP PUSH1 0x20 DUP4 ADD CALLDATALOAD PUSH8 0xFFFFFFFFFFFFFFFF DUP2 GT ISZERO PUSH2 0x30B5 JUMPI PUSH2 0x30B4 PUSH2 0x3D12 JUMP JUMPDEST JUMPDEST PUSH2 0x30C1 DUP6 DUP3 DUP7 ADD PUSH2 0x2F58 JUMP JUMPDEST SWAP2 POP POP SWAP3 POP SWAP3 SWAP1 POP JUMP JUMPDEST PUSH1 0x0 DUP1 PUSH1 0x0 PUSH1 0x60 DUP5 DUP7 SUB SLT ISZERO PUSH2 0x30E4 JUMPI PUSH2 0x30E3 PUSH2 0x3D17 JUMP JUMPDEST JUMPDEST PUSH1 0x0 DUP5 ADD CALLDATALOAD PUSH8 0xFFFFFFFFFFFFFFFF DUP2 GT ISZERO PUSH2 0x3102 JUMPI PUSH2 0x3101 PUSH2 0x3D12 JUMP JUMPDEST JUMPDEST PUSH2 0x310E DUP7 DUP3 DUP8 ADD PUSH2 0x2F58 JUMP JUMPDEST SWAP4 POP POP PUSH1 0x20 DUP5 ADD CALLDATALOAD PUSH8 0xFFFFFFFFFFFFFFFF DUP2 GT ISZERO PUSH2 0x312F JUMPI PUSH2 0x312E PUSH2 0x3D12 JUMP JUMPDEST JUMPDEST PUSH2 0x313B DUP7 DUP3 DUP8 ADD PUSH2 0x2F58 JUMP JUMPDEST SWAP3 POP POP PUSH1 0x40 DUP5 ADD CALLDATALOAD PUSH8 0xFFFFFFFFFFFFFFFF DUP2 GT ISZERO PUSH2 0x315C JUMPI PUSH2 0x315B PUSH2 0x3D12 JUMP JUMPDEST JUMPDEST PUSH2 0x3168 DUP7 DUP3 DUP8 ADD PUSH2 0x2F58 JUMP JUMPDEST SWAP2 POP POP SWAP3 POP SWAP3 POP SWAP3 JUMP JUMPDEST PUSH1 0x0 PUSH1 0x20 DUP3 DUP5 SUB SLT ISZERO PUSH2 0x3188 JUMPI PUSH2 0x3187 PUSH2 0x3D17 JUMP JUMPDEST JUMPDEST PUSH1 0x0 PUSH2 0x3196 DUP5 DUP3 DUP6 ADD PUSH2 0x2F86 JUMP JUMPDEST SWAP2 POP POP SWAP3 SWAP2 POP POP JUMP JUMPDEST PUSH1 0x0 DUP1 PUSH1 0x40 DUP4 DUP6 SUB SLT ISZERO PUSH2 0x31B6 JUMPI PUSH2 0x31B5 PUSH2 0x3D17 JUMP JUMPDEST JUMPDEST PUSH1 0x0 PUSH2 0x31C4 DUP6 DUP3 DUP7 ADD PUSH2 0x2F86 JUMP JUMPDEST SWAP3 POP POP PUSH1 0x20 DUP4 ADD CALLDATALOAD PUSH8 0xFFFFFFFFFFFFFFFF DUP2 GT ISZERO PUSH2 0x31E5 JUMPI PUSH2 0x31E4 PUSH2 0x3D12 JUMP JUMPDEST JUMPDEST PUSH2 0x31F1 DUP6 DUP3 DUP7 ADD PUSH2 0x2F58 JUMP JUMPDEST SWAP2 POP POP SWAP3 POP SWAP3 SWAP1 POP JUMP JUMPDEST PUSH1 0x0 DUP1 PUSH1 0x0 PUSH1 0x60 DUP5 DUP7 SUB SLT ISZERO PUSH2 0x3214 JUMPI PUSH2 0x3213 PUSH2 0x3D17 JUMP JUMPDEST JUMPDEST PUSH1 0x0 PUSH2 0x3222 DUP7 DUP3 DUP8 ADD PUSH2 0x2F86 JUMP JUMPDEST SWAP4 POP POP PUSH1 0x20 DUP5 ADD CALLDATALOAD PUSH8 0xFFFFFFFFFFFFFFFF DUP2 GT ISZERO PUSH2 0x3243 JUMPI PUSH2 0x3242 PUSH2 0x3D12 JUMP JUMPDEST JUMPDEST PUSH2 0x324F DUP7 DUP3 DUP8 ADD PUSH2 0x2F58 JUMP JUMPDEST SWAP3 POP POP PUSH1 0x40 DUP5 ADD CALLDATALOAD PUSH8 0xFFFFFFFFFFFFFFFF DUP2 GT ISZERO PUSH2 0x3270 JUMPI PUSH2 0x326F PUSH2 0x3D12 JUMP JUMPDEST JUMPDEST PUSH2 0x327C DUP7 DUP3 DUP8 ADD PUSH2 0x2F58 JUMP JUMPDEST SWAP2 POP POP SWAP3 POP SWAP3 POP SWAP3 JUMP JUMPDEST PUSH1 0x0 DUP1 PUSH1 0x0 DUP1 PUSH1 0x0 DUP1 PUSH1 0xC0 DUP8 DUP10 SUB SLT ISZERO PUSH2 0x32A3 JUMPI PUSH2 0x32A2 PUSH2 0x3D17 JUMP JUMPDEST JUMPDEST PUSH1 0x0 PUSH2 0x32B1 DUP10 DUP3 DUP11 ADD PUSH2 0x2F86 JUMP JUMPDEST SWAP7 POP POP PUSH1 0x20 DUP8 ADD CALLDATALOAD PUSH8 0xFFFFFFFFFFFFFFFF DUP2 GT ISZERO PUSH2 0x32D2 JUMPI PUSH2 0x32D1 PUSH2 0x3D12 JUMP JUMPDEST JUMPDEST PUSH2 0x32DE DUP10 DUP3 DUP11 ADD PUSH2 0x2F58 JUMP JUMPDEST SWAP6 POP POP PUSH1 0x40 DUP8 ADD CALLDATALOAD PUSH8 0xFFFFFFFFFFFFFFFF DUP2 GT ISZERO PUSH2 0x32FF JUMPI PUSH2 0x32FE PUSH2 0x3D12 JUMP JUMPDEST JUMPDEST PUSH2 0x330B DUP10 DUP3 DUP11 ADD PUSH2 0x2F58 JUMP JUMPDEST SWAP5 POP POP PUSH1 0x60 DUP8 ADD CALLDATALOAD PUSH8 0xFFFFFFFFFFFFFFFF DUP2 GT ISZERO PUSH2 0x332C JUMPI PUSH2 0x332B PUSH2 0x3D12 JUMP JUMPDEST JUMPDEST PUSH2 0x3338 DUP10 DUP3 DUP11 ADD PUSH2 0x2F58 JUMP JUMPDEST SWAP4 POP POP PUSH1 0x80 PUSH2 0x3349 DUP10 DUP3 DUP11 ADD PUSH2 0x2F86 JUMP JUMPDEST SWAP3 POP POP PUSH1 0xA0 DUP8 ADD CALLDATALOAD PUSH8 0xFFFFFFFFFFFFFFFF DUP2 GT ISZERO PUSH2 0x336A JUMPI PUSH2 0x3369 PUSH2 0x3D12 JUMP JUMPDEST JUMPDEST PUSH2 0x3376 DUP10 DUP3 DUP11 ADD PUSH2 0x2F58 JUMP JUMPDEST SWAP2 POP POP SWAP3 SWAP6 POP SWAP3 SWAP6 POP SWAP3 SWAP6 JUMP JUMPDEST PUSH1 0x0 DUP1 PUSH1 0x40 DUP4 DUP6 SUB SLT ISZERO PUSH2 0x339A JUMPI PUSH2 0x3399 PUSH2 0x3D17 JUMP JUMPDEST JUMPDEST PUSH1 0x0 PUSH2 0x33A8 DUP6 DUP3 DUP7 ADD PUSH2 0x2F86 JUMP JUMPDEST SWAP3 POP POP PUSH1 0x20 PUSH2 0x33B9 DUP6 DUP3 DUP7 ADD PUSH2 0x2F86 JUMP JUMPDEST SWAP2 POP POP SWAP3 POP SWAP3 SWAP1 POP JUMP JUMPDEST PUSH1 0x0 DUP1 PUSH1 0x0 PUSH1 0x60 DUP5 DUP7 SUB SLT ISZERO PUSH2 0x33DC JUMPI PUSH2 0x33DB PUSH2 0x3D17 JUMP JUMPDEST JUMPDEST PUSH1 0x0 PUSH2 0x33EA DUP7 DUP3 DUP8 ADD PUSH2 0x2F86 JUMP JUMPDEST SWAP4 POP POP PUSH1 0x20 PUSH2 0x33FB DUP7 DUP3 DUP8 ADD PUSH2 0x2F86 JUMP JUMPDEST SWAP3 POP POP PUSH1 0x40 DUP5 ADD CALLDATALOAD PUSH8 0xFFFFFFFFFFFFFFFF DUP2 GT ISZERO PUSH2 0x341C JUMPI PUSH2 0x341B PUSH2 0x3D12 JUMP JUMPDEST JUMPDEST PUSH2 0x3428 DUP7 DUP3 DUP8 ADD PUSH2 0x2F58 JUMP JUMPDEST SWAP2 POP POP SWAP3 POP SWAP3 POP SWAP3 JUMP JUMPDEST PUSH1 0x0 PUSH2 0x343E DUP4 DUP4 PUSH2 0x35BE JUMP JUMPDEST SWAP1 POP SWAP3 SWAP2 POP POP JUMP JUMPDEST PUSH2 0x344F DUP2 PUSH2 0x3AB5 JUMP JUMPDEST DUP3 MSTORE POP POP JUMP JUMPDEST PUSH1 0x0 PUSH2 0x3460 DUP3 PUSH2 0x3777 JUMP JUMPDEST PUSH2 0x346A DUP2 DUP6 PUSH2 0x37B2 JUMP JUMPDEST SWAP4 POP DUP4 PUSH1 0x20 DUP3 MUL DUP6 ADD PUSH2 0x347C DUP6 PUSH2 0x3748 JUMP JUMPDEST DUP1 PUSH1 0x0 JUMPDEST DUP6 DUP2 LT ISZERO PUSH2 0x34B8 JUMPI DUP5 DUP5 SUB DUP10 MSTORE DUP2 MLOAD PUSH2 0x3499 DUP6 DUP3 PUSH2 0x3432 JUMP JUMPDEST SWAP5 POP PUSH2 0x34A4 DUP4 PUSH2 0x3798 JUMP JUMPDEST SWAP3 POP PUSH1 0x20 DUP11 ADD SWAP10 POP POP PUSH1 0x1 DUP2 ADD SWAP1 POP PUSH2 0x3480 JUMP JUMPDEST POP DUP3 SWAP8 POP DUP8 SWAP6 POP POP POP POP POP POP SWAP3 SWAP2 POP POP JUMP JUMPDEST PUSH1 0x0 PUSH2 0x34D5 DUP3 PUSH2 0x3782 JUMP JUMPDEST PUSH2 0x34DF DUP2 DUP6 PUSH2 0x37BD JUMP JUMPDEST SWAP4 POP DUP4 PUSH1 0x20 DUP3 MUL DUP6 ADD PUSH2 0x34F1 DUP6 PUSH2 0x3752 JUMP JUMPDEST DUP1 PUSH1 0x0 JUMPDEST DUP6 DUP2 LT ISZERO PUSH2 0x352D JUMPI DUP5 DUP5 SUB DUP10 MSTORE DUP2 MLOAD PUSH2 0x350E DUP6 DUP3 PUSH2 0x3432 JUMP JUMPDEST SWAP5 POP PUSH2 0x3519 DUP4 PUSH2 0x37A5 JUMP JUMPDEST SWAP3 POP PUSH1 0x20 DUP11 ADD SWAP10 POP POP PUSH1 0x1 DUP2 ADD SWAP1 POP PUSH2 0x34F5 JUMP JUMPDEST POP DUP3 SWAP8 POP DUP8 SWAP6 POP POP POP POP POP POP SWAP3 SWAP2 POP POP JUMP JUMPDEST PUSH1 0x0 DUP2 SLOAD PUSH2 0x354C DUP2 PUSH2 0x3B40 JUMP JUMPDEST PUSH2 0x3556 DUP2 DUP7 PUSH2 0x37CE JUMP JUMPDEST SWAP5 POP PUSH1 0x1 DUP3 AND PUSH1 0x0 DUP2 EQ PUSH2 0x3571 JUMPI PUSH1 0x1 DUP2 EQ PUSH2 0x3582 JUMPI PUSH2 0x35B5 JUMP JUMPDEST PUSH1 0xFF NOT DUP4 AND DUP7 MSTORE DUP2 DUP7 ADD SWAP4 POP PUSH2 0x35B5 JUMP JUMPDEST PUSH2 0x358B DUP6 PUSH2 0x3762 JUMP JUMPDEST PUSH1 0x0 JUMPDEST DUP4 DUP2 LT ISZERO PUSH2 0x35AD JUMPI DUP2 SLOAD DUP2 DUP10 ADD MSTORE PUSH1 0x1 DUP3 ADD SWAP2 POP PUSH1 0x20 DUP2 ADD SWAP1 POP PUSH2 0x358E JUMP JUMPDEST DUP4 DUP9 ADD SWAP6 POP POP POP JUMPDEST POP POP POP SWAP3 SWAP2 POP POP JUMP JUMPDEST PUSH1 0x0 PUSH2 0x35C9 DUP3 PUSH2 0x378D JUMP JUMPDEST PUSH2 0x35D3 DUP2 DUP6 PUSH2 0x37D9 JUMP JUMPDEST SWAP4 POP PUSH2 0x35E3 DUP2 DUP6 PUSH1 0x20 DUP7 ADD PUSH2 0x3B0D JUMP JUMPDEST PUSH2 0x35EC DUP2 PUSH2 0x3D1C JUMP JUMPDEST DUP5 ADD SWAP2 POP POP SWAP3 SWAP2 POP POP JUMP JUMPDEST PUSH1 0x0 PUSH2 0x3602 DUP3 PUSH2 0x378D JUMP JUMPDEST PUSH2 0x360C DUP2 DUP6 PUSH2 0x37EA JUMP JUMPDEST SWAP4 POP PUSH2 0x361C DUP2 DUP6 PUSH1 0x20 DUP7 ADD PUSH2 0x3B0D JUMP JUMPDEST PUSH2 0x3625 DUP2 PUSH2 0x3D1C JUMP JUMPDEST DUP5 ADD SWAP2 POP POP SWAP3 SWAP2 POP POP JUMP JUMPDEST PUSH2 0x3639 DUP2 PUSH2 0x3AE7 JUMP JUMPDEST DUP3 MSTORE POP POP JUMP JUMPDEST PUSH1 0x0 PUSH2 0x364B DUP3 DUP5 PUSH2 0x353F JUMP JUMPDEST SWAP2 POP DUP2 SWAP1 POP SWAP3 SWAP2 POP POP JUMP JUMPDEST PUSH1 0x0 PUSH1 0x20 DUP3 ADD SWAP1 POP PUSH2 0x366B PUSH1 0x0 DUP4 ADD DUP5 PUSH2 0x3446 JUMP JUMPDEST SWAP3 SWAP2 POP POP JUMP JUMPDEST PUSH1 0x0 PUSH1 0x20 DUP3 ADD SWAP1 POP DUP2 DUP2 SUB PUSH1 0x0 DUP4 ADD MSTORE PUSH2 0x368B DUP2 DUP5 PUSH2 0x3455 JUMP JUMPDEST SWAP1 POP SWAP3 SWAP2 POP POP JUMP JUMPDEST PUSH1 0x0 PUSH1 0x20 DUP3 ADD SWAP1 POP DUP2 DUP2 SUB PUSH1 0x0 DUP4 ADD MSTORE PUSH2 0x36AD DUP2 DUP5 PUSH2 0x34CA JUMP JUMPDEST SWAP1 POP SWAP3 SWAP2 POP POP JUMP JUMPDEST PUSH1 0x0 PUSH1 0x20 DUP3 ADD SWAP1 POP DUP2 DUP2 SUB PUSH1 0x0 DUP4 ADD MSTORE PUSH2 0x36CF DUP2 DUP5 PUSH2 0x35F7 JUMP JUMPDEST SWAP1 POP SWAP3 SWAP2 POP POP JUMP JUMPDEST PUSH1 0x0 PUSH1 0x20 DUP3 ADD SWAP1 POP PUSH2 0x36EC PUSH1 0x0 DUP4 ADD DUP5 PUSH2 0x3630 JUMP JUMPDEST SWAP3 SWAP2 POP POP JUMP JUMPDEST PUSH1 0x0 PUSH2 0x36FC PUSH2 0x370D JUMP JUMPDEST SWAP1 POP PUSH2 0x3708 DUP3 DUP3 PUSH2 0x3B72 JUMP JUMPDEST SWAP2 SWAP1 POP JUMP JUMPDEST PUSH1 0x0 PUSH1 0x40 MLOAD SWAP1 POP SWAP1 JUMP JUMPDEST PUSH1 0x0 PUSH8 0xFFFFFFFFFFFFFFFF DUP3 GT ISZERO PUSH2 0x3732 JUMPI PUSH2 0x3731 PUSH2 0x3CD9 JUMP JUMPDEST JUMPDEST PUSH2 0x373B DUP3 PUSH2 0x3D1C JUMP JUMPDEST SWAP1 POP PUSH1 0x20 DUP2 ADD SWAP1 POP SWAP2 SWAP1 POP JUMP JUMPDEST PUSH1 0x0 DUP2 SWAP1 POP SWAP2 SWAP1 POP JUMP JUMPDEST PUSH1 0x0 DUP2 SWAP1 POP PUSH1 0x20 DUP3 ADD SWAP1 POP SWAP2 SWAP1 POP JUMP JUMPDEST PUSH1 0x0 DUP2 SWAP1 POP DUP2 PUSH1 0x0 MSTORE PUSH1 0x20 PUSH1 0x0 KECCAK256 SWAP1 POP SWAP2 SWAP1 POP JUMP JUMPDEST PUSH1 0x0 PUSH1 0x3 SWAP1 POP SWAP2 SWAP1 POP JUMP JUMPDEST PUSH1 0x0 DUP2 MLOAD SWAP1 POP SWAP2 SWAP1 POP JUMP JUMPDEST PUSH1 0x0 DUP2 MLOAD SWAP1 POP SWAP2 SWAP1 POP JUMP JUMPDEST PUSH1 0x0 PUSH1 0x20 DUP3 ADD SWAP1 POP SWAP2 SWAP1 POP JUMP JUMPDEST PUSH1 0x0 PUSH1 0x20 DUP3 ADD SWAP1 POP SWAP2 SWAP1 POP JUMP JUMPDEST PUSH1 0x0 DUP2 SWAP1 POP SWAP3 SWAP2 POP POP JUMP JUMPDEST PUSH1 0x0 DUP3 DUP3 MSTORE PUSH1 0x20 DUP3 ADD SWAP1 POP SWAP3 SWAP2 POP POP JUMP JUMPDEST PUSH1 0x0 DUP2 SWAP1 POP SWAP3 SWAP2 POP POP JUMP JUMPDEST PUSH1 0x0 DUP3 DUP3 MSTORE PUSH1 0x20 DUP3 ADD SWAP1 POP SWAP3 SWAP2 POP POP JUMP JUMPDEST PUSH1 0x0 DUP3 DUP3 MSTORE PUSH1 0x20 DUP3 ADD SWAP1 POP SWAP3 SWAP2 POP POP JUMP JUMPDEST PUSH1 0x0 PUSH2 0x3806 DUP3 PUSH2 0x3AE7 JUMP JUMPDEST SWAP2 POP PUSH2 0x3811 DUP4 PUSH2 0x3AE7 JUMP JUMPDEST SWAP3 POP DUP3 PUSH32 0xFFFFFFFFFFFFFFFFFFFFFFFFFFFFFFFFFFFFFFFFFFFFFFFFFFFFFFFFFFFFFFFF SUB DUP3 GT ISZERO PUSH2 0x3846 JUMPI PUSH2 0x3845 PUSH2 0x3C1D JUMP JUMPDEST JUMPDEST DUP3 DUP3 ADD SWAP1 POP SWAP3 SWAP2 POP POP JUMP JUMPDEST PUSH1 0x0 PUSH2 0x385C DUP3 PUSH2 0x3AE7 JUMP JUMPDEST SWAP2 POP PUSH2 0x3867 DUP4 PUSH2 0x3AE7 JUMP JUMPDEST SWAP3 POP DUP3 PUSH2 0x3877 JUMPI PUSH2 0x3876 PUSH2 0x3C4C JUMP JUMPDEST JUMPDEST DUP3 DUP3 DIV SWAP1 POP SWAP3 SWAP2 POP POP JUMP JUMPDEST PUSH1 0x0 DUP1 DUP3 SWAP2 POP DUP4 SWAP1 POP JUMPDEST PUSH1 0x1 DUP6 GT ISZERO PUSH2 0x38CC JUMPI DUP1 DUP7 DIV DUP2 GT ISZERO PUSH2 0x38A8 JUMPI PUSH2 0x38A7 PUSH2 0x3C1D JUMP JUMPDEST JUMPDEST PUSH1 0x1 DUP6 AND ISZERO PUSH2 0x38B7 JUMPI DUP1 DUP3 MUL SWAP2 POP JUMPDEST DUP1 DUP2 MUL SWAP1 POP PUSH2 0x38C5 DUP6 PUSH2 0x3D2D JUMP JUMPDEST SWAP5 POP PUSH2 0x388C JUMP JUMPDEST SWAP5 POP SWAP5 SWAP3 POP POP POP JUMP JUMPDEST PUSH1 0x0 PUSH2 0x38E0 DUP3 PUSH2 0x3AE7 JUMP JUMPDEST SWAP2 POP PUSH2 0x38EB DUP4 PUSH2 0x3AE7 JUMP JUMPDEST SWAP3 POP PUSH2 0x3918 PUSH32 0xFFFFFFFFFFFFFFFFFFFFFFFFFFFFFFFFFFFFFFFFFFFFFFFFFFFFFFFFFFFFFFFF DUP5 DUP5 PUSH2 0x3920 JUMP JUMPDEST SWAP1 POP SWAP3 SWAP2 POP POP JUMP JUMPDEST PUSH1 0x0 DUP3 PUSH2 0x3930 JUMPI PUSH1 0x1 SWAP1 POP PUSH2 0x39EC JUMP JUMPDEST DUP2 PUSH2 0x393E JUMPI PUSH1 0x0 SWAP1 POP PUSH2 0x39EC JUMP JUMPDEST DUP2 PUSH1 0x1 DUP2 EQ PUSH2 0x3954 JUMPI PUSH1 0x2 DUP2 EQ PUSH2 0x395E JUMPI PUSH2 0x398D JUMP JUMPDEST PUSH1 0x1 SWAP2 POP POP PUSH2 0x39EC JUMP JUMPDEST PUSH1 0xFF DUP5 GT ISZERO PUSH2 0x3970 JUMPI PUSH2 0x396F PUSH2 0x3C1D JUMP JUMPDEST JUMPDEST DUP4 PUSH1 0x2 EXP SWAP2 POP DUP5 DUP3 GT ISZERO PUSH2 0x3987 JUMPI PUSH2 0x3986 PUSH2 0x3C1D JUMP JUMPDEST JUMPDEST POP PUSH2 0x39EC JUMP JUMPDEST POP PUSH1 0x20 DUP4 LT PUSH2 0x133 DUP4 LT AND PUSH1 0x4E DUP5 LT PUSH1 0xB DUP5 LT AND OR ISZERO PUSH2 0x39C2 JUMPI DUP3 DUP3 EXP SWAP1 POP DUP4 DUP2 GT ISZERO PUSH2 0x39BD JUMPI PUSH2 0x39BC PUSH2 0x3C1D JUMP JUMPDEST JUMPDEST PUSH2 0x39EC JUMP JUMPDEST PUSH2 0x39CF DUP5 DUP5 DUP5 PUSH1 0x1 PUSH2 0x3882 JUMP JUMPDEST SWAP3 POP SWAP1 POP DUP2 DUP5 DIV DUP2 GT ISZERO PUSH2 0x39E6 JUMPI PUSH2 0x39E5 PUSH2 0x3C1D JUMP JUMPDEST JUMPDEST DUP2 DUP2 MUL SWAP1 POP JUMPDEST SWAP4 SWAP3 POP POP POP JUMP JUMPDEST PUSH1 0x0 PUSH2 0x39FE DUP3 PUSH2 0x3AE7 JUMP JUMPDEST SWAP2 POP PUSH2 0x3A09 DUP4 PUSH2 0x3AE7 JUMP JUMPDEST SWAP3 POP DUP2 PUSH32 0xFFFFFFFFFFFFFFFFFFFFFFFFFFFFFFFFFFFFFFFFFFFFFFFFFFFFFFFFFFFFFFFF DIV DUP4 GT DUP3 ISZERO ISZERO AND ISZERO PUSH2 0x3A42 JUMPI PUSH2 0x3A41 PUSH2 0x3C1D JUMP JUMPDEST JUMPDEST DUP3 DUP3 MUL SWAP1 POP SWAP3 SWAP2 POP POP JUMP JUMPDEST PUSH1 0x0 PUSH2 0x3A58 DUP3 PUSH2 0x3AE7 JUMP JUMPDEST SWAP2 POP PUSH2 0x3A63 DUP4 PUSH2 0x3AE7 JUMP JUMPDEST SWAP3 POP DUP3 DUP3 LT ISZERO PUSH2 0x3A76 JUMPI PUSH2 0x3A75 PUSH2 0x3C1D JUMP JUMPDEST JUMPDEST DUP3 DUP3 SUB SWAP1 POP SWAP3 SWAP2 POP POP JUMP JUMPDEST PUSH1 0x0 PUSH2 0x3A8C DUP3 PUSH2 0x3AF1 JUMP JUMPDEST SWAP2 POP PUSH2 0x3A97 DUP4 PUSH2 0x3AF1 JUMP JUMPDEST SWAP3 POP DUP3 DUP3 LT ISZERO PUSH2 0x3AAA JUMPI PUSH2 0x3AA9 PUSH2 0x3C1D JUMP JUMPDEST JUMPDEST DUP3 DUP3 SUB SWAP1 POP SWAP3 SWAP2 POP POP JUMP JUMPDEST PUSH1 0x0 PUSH2 0x3AC0 DUP3 PUSH2 0x3AC7 JUMP JUMPDEST SWAP1 POP SWAP2 SWAP1 POP JUMP JUMPDEST PUSH1 0x0 PUSH20 0xFFFFFFFFFFFFFFFFFFFFFFFFFFFFFFFFFFFFFFFF DUP3 AND SWAP1 POP SWAP2 SWAP1 POP JUMP JUMPDEST PUSH1 0x0 DUP2 SWAP1 POP SWAP2 SWAP1 POP JUMP JUMPDEST PUSH1 0x0 PUSH1 0xFF DUP3 AND SWAP1 POP SWAP2 SWAP1 POP JUMP JUMPDEST DUP3 DUP2 DUP4 CALLDATACOPY PUSH1 0x0 DUP4 DUP4 ADD MSTORE POP POP POP JUMP JUMPDEST PUSH1 0x0 JUMPDEST DUP4 DUP2 LT ISZERO PUSH2 0x3B2B JUMPI DUP1 DUP3 ADD MLOAD DUP2 DUP5 ADD MSTORE PUSH1 0x20 DUP2 ADD SWAP1 POP PUSH2 0x3B10 JUMP JUMPDEST DUP4 DUP2 GT ISZERO PUSH2 0x3B3A JUMPI PUSH1 0x0 DUP5 DUP5 ADD MSTORE JUMPDEST POP POP POP POP JUMP JUMPDEST PUSH1 0x0 PUSH1 0x2 DUP3 DIV SWAP1 POP PUSH1 0x1 DUP3 AND DUP1 PUSH2 0x3B58 JUMPI PUSH1 0x7F DUP3 AND SWAP2 POP JUMPDEST PUSH1 0x20 DUP3 LT DUP2 EQ ISZERO PUSH2 0x3B6C JUMPI PUSH2 0x3B6B PUSH2 0x3C7B JUMP JUMPDEST JUMPDEST POP SWAP2 SWAP1 POP JUMP JUMPDEST PUSH2 0x3B7B DUP3 PUSH2 0x3D1C JUMP JUMPDEST DUP2 ADD DUP2 DUP2 LT PUSH8 0xFFFFFFFFFFFFFFFF DUP3 GT OR ISZERO PUSH2 0x3B9A JUMPI PUSH2 0x3B99 PUSH2 0x3CD9 JUMP JUMPDEST JUMPDEST DUP1 PUSH1 0x40 MSTORE POP POP POP JUMP JUMPDEST PUSH1 0x0 PUSH2 0x3BAE DUP3 PUSH2 0x3AE7 JUMP JUMPDEST SWAP2 POP PUSH32 0xFFFFFFFFFFFFFFFFFFFFFFFFFFFFFFFFFFFFFFFFFFFFFFFFFFFFFFFFFFFFFFFF DUP3 EQ ISZERO PUSH2 0x3BE1 JUMPI PUSH2 0x3BE0 PUSH2 0x3C1D JUMP JUMPDEST JUMPDEST PUSH1 0x1 DUP3 ADD SWAP1 POP SWAP2 SWAP1 POP JUMP JUMPDEST PUSH1 0x0 PUSH2 0x3BF7 DUP3 PUSH2 0x3AE7 JUMP JUMPDEST SWAP2 POP PUSH2 0x3C02 DUP4 PUSH2 0x3AE7 JUMP JUMPDEST SWAP3 POP DUP3 PUSH2 0x3C12 JUMPI PUSH2 0x3C11 PUSH2 0x3C4C JUMP JUMPDEST JUMPDEST DUP3 DUP3 MOD SWAP1 POP SWAP3 SWAP2 POP POP JUMP JUMPDEST PUSH32 0x4E487B7100000000000000000000000000000000000000000000000000000000 PUSH1 0x0 MSTORE PUSH1 0x11 PUSH1 0x4 MSTORE PUSH1 0x24 PUSH1 0x0 REVERT JUMPDEST PUSH32 0x4E487B7100000000000000000000000000000000000000000000000000000000 PUSH1 0x0 MSTORE PUSH1 0x12 PUSH1 0x4 MSTORE PUSH1 0x24 PUSH1 0x0 REVERT JUMPDEST PUSH32 0x4E487B7100000000000000000000000000000000000000000000000000000000 PUSH1 0x0 MSTORE PUSH1 0x22 PUSH1 0x4 MSTORE PUSH1 0x24 PUSH1 0x0 REVERT JUMPDEST PUSH32 0x4E487B7100000000000000000000000000000000000000000000000000000000 PUSH1 0x0 MSTORE PUSH1 0x32 PUSH1 0x4 MSTORE PUSH1 0x24 PUSH1 0x0 REVERT JUMPDEST PUSH32 0x4E487B7100000000000000000000000000000000000000000000000000000000 PUSH1 0x0 MSTORE PUSH1 0x41 PUSH1 0x4 MSTORE PUSH1 0x24 PUSH1 0x0 REVERT JUMPDEST PUSH1 0x0 DUP1 REVERT JUMPDEST PUSH1 0x0 DUP1 REVERT JUMPDEST PUSH1 0x0 DUP1 REVERT JUMPDEST PUSH1 0x0 DUP1 REVERT JUMPDEST PUSH1 0x0 PUSH1 0x1F NOT PUSH1 0x1F DUP4 ADD AND SWAP1 POP SWAP2 SWAP1 POP JUMP JUMPDEST PUSH1 0x0 DUP2 PUSH1 0x1 SHR SWAP1 POP SWAP2 SWAP1 POP JUMP JUMPDEST PUSH2 0x3D43 DUP2 PUSH2 0x3AB5 JUMP JUMPDEST DUP2 EQ PUSH2 0x3D4E JUMPI PUSH1 0x0 DUP1 REVERT JUMPDEST POP JUMP JUMPDEST PUSH2 0x3D5A DUP2 PUSH2 0x3AE7 JUMP JUMPDEST DUP2 EQ PUSH2 0x3D65 JUMPI PUSH1 0x0 DUP1 REVERT JUMPDEST POP JUMP INVALID LOG2 PUSH5 0x6970667358 0x22 SLT KECCAK256 0xB4 ADDMOD PUSH16 0x36F4F546C2217A09A2CFB8EB19FFD7E5 0xB6 PUSH30 0xFE6B591289FAFF829D3A7064736F6C634300080600330000000000000000 "
        },
        "gasEstimates": {
          "creation": {
            "codeDepositCost": "3154800",
            "executionCost": "3483",
            "totalCost": "3158283"
          },
          "external": {
            "AllTokensGift(uint256,uint256)": "infinite",
            "AllUserToken(uint256,uint256)": "infinite",
            "BidURI(uint256)": "infinite",
            "DistributeToken(uint256)": "infinite",
            "GetGiftURIFromToken(string)": "infinite",
            "GetGiftedFromToken(string)": "infinite",
            "GetNFTsByUserAddrs(string)": "infinite",
            "UnWrapGift(string)": "infinite",
            "_EventTokenSearchIds()": "2542",
            "_SearchedStore(uint256,uint256)": "infinite",
            "_SetGift(string,string)": "infinite",
            "_UserTokenIds()": "2539",
            "_getSearchedTokenURI(uint256)": "infinite",
            "_setBidURI(uint256,string)": "infinite",
            "_setEventRaised(uint256,string)": "infinite",
            "_setEventURI(uint256,string,string)": "infinite",
            "_setTokenBid(uint256,uint256,string)": "infinite",
            "_setTokenEvent(uint256,uint256,string)": "infinite",
            "_setTokenURI(uint256,string)": "infinite",
            "claimToken(address,string,uint256)": "infinite",
            "createBid(uint256,string,string,string,uint256,string)": "infinite",
            "createEvent(string,string)": "infinite",
            "createTokenGift(string,string,string)": "infinite",
            "eventURI(uint256)": "infinite",
            "getBidIdByUri(string)": "infinite",
            "getBidsSearchToken(uint256)": "infinite",
            "getEventRaised(uint256)": "infinite",
            "getGetEventsTokenID(uint256,string)": "infinite",
            "getSearchEventbyWallet(string)": "infinite",
            "getTokensSearchEvent(uint256)": "infinite",
            "getTotalBid(uint256)": "infinite",
            "geteventIdByUri(string)": "infinite",
            "geteventIdFromTokenURI(string)": "infinite",
            "gettokenIdByUri(string)": "infinite",
            "gettokenSearchEventTotal(uint256)": "infinite",
            "owner()": "2560",
            "strToUint(string)": "infinite",
            "tokenURI(uint256)": "infinite",
            "totalEvent()": "2570",
            "totalSupply()": "2483"
          },
          "internal": {
            "createUserToken(string memory,string memory)": "infinite"
          }
        },
        "methodIdentifiers": {
          "AllTokensGift(uint256,uint256)": "06d9a55c",
          "AllUserToken(uint256,uint256)": "9f9b376f",
          "BidURI(uint256)": "446a92e3",
          "DistributeToken(uint256)": "3d4089c9",
          "GetGiftURIFromToken(string)": "209d72e6",
          "GetGiftedFromToken(string)": "b5dd0f5b",
          "GetNFTsByUserAddrs(string)": "e1af189e",
          "UnWrapGift(string)": "29ccdcad",
          "_EventTokenSearchIds()": "144cbca6",
          "_SearchedStore(uint256,uint256)": "b10a5dfa",
          "_SetGift(string,string)": "7411c4bb",
          "_UserTokenIds()": "e8736f40",
          "_getSearchedTokenURI(uint256)": "7cedbc1e",
          "_setBidURI(uint256,string)": "e08033d3",
          "_setEventRaised(uint256,string)": "1677bf08",
          "_setEventURI(uint256,string,string)": "61958158",
          "_setTokenBid(uint256,uint256,string)": "d654e993",
          "_setTokenEvent(uint256,uint256,string)": "3592dd80",
          "_setTokenURI(uint256,string)": "01538868",
          "claimToken(address,string,uint256)": "35011d90",
          "createBid(uint256,string,string,string,uint256,string)": "9dace298",
          "createEvent(string,string)": "e257a94c",
          "createTokenGift(string,string,string)": "ce917591",
          "eventURI(uint256)": "a0fd0c6a",
          "getBidIdByUri(string)": "d45fc516",
          "getBidsSearchToken(uint256)": "aed47961",
          "getEventRaised(uint256)": "4eb083ec",
          "getGetEventsTokenID(uint256,string)": "28520ab7",
          "getSearchEventbyWallet(string)": "1e65e117",
          "getTokensSearchEvent(uint256)": "d8c23d34",
          "getTotalBid(uint256)": "5154380a",
          "geteventIdByUri(string)": "cd62ca1a",
          "geteventIdFromTokenURI(string)": "0e1e27dd",
          "gettokenIdByUri(string)": "932a196b",
          "gettokenSearchEventTotal(uint256)": "eb1d234d",
          "owner()": "8da5cb5b",
          "strToUint(string)": "c5ef3ec5",
          "tokenURI(uint256)": "c87b56dd",
          "totalEvent()": "7eadfa6a",
          "totalSupply()": "18160ddd"
        }
      },
      "storageLayout": {
        "storage": [
          {
            "astId": 207,
            "contract": "contracts/ERC725.sol:CeloERC725",
            "label": "_tokenIds",
            "offset": 0,
            "slot": "0",
            "type": "t_uint256"
          },
          {
            "astId": 209,
            "contract": "contracts/ERC725.sol:CeloERC725",
            "label": "_bidIds",
            "offset": 0,
            "slot": "1",
            "type": "t_uint256"
          },
          {
            "astId": 211,
            "contract": "contracts/ERC725.sol:CeloERC725",
            "label": "_eventIds",
            "offset": 0,
            "slot": "2",
            "type": "t_uint256"
          },
          {
            "astId": 213,
            "contract": "contracts/ERC725.sol:CeloERC725",
            "label": "_EventTokenIds",
            "offset": 0,
            "slot": "3",
            "type": "t_uint256"
          },
          {
            "astId": 215,
            "contract": "contracts/ERC725.sol:CeloERC725",
            "label": "_TokenBidIds",
            "offset": 0,
            "slot": "4",
            "type": "t_uint256"
          },
          {
            "astId": 217,
            "contract": "contracts/ERC725.sol:CeloERC725",
            "label": "_TokenGiftIds",
            "offset": 0,
            "slot": "5",
            "type": "t_uint256"
          },
          {
            "astId": 219,
            "contract": "contracts/ERC725.sol:CeloERC725",
            "label": "_EventTokenSearchIds",
            "offset": 0,
            "slot": "6",
            "type": "t_uint256"
          },
          {
            "astId": 221,
            "contract": "contracts/ERC725.sol:CeloERC725",
            "label": "_UserTokenIds",
            "offset": 0,
            "slot": "7",
            "type": "t_uint256"
          },
          {
            "astId": 227,
            "contract": "contracts/ERC725.sol:CeloERC725",
            "label": "AllEventTokens",
            "offset": 0,
            "slot": "8",
            "type": "t_mapping(t_uint256,t_array(t_string_storage)2_storage)"
          },
          {
            "astId": 233,
            "contract": "contracts/ERC725.sol:CeloERC725",
            "label": "AllTokensBids",
            "offset": 0,
            "slot": "9",
            "type": "t_mapping(t_uint256,t_array(t_string_storage)2_storage)"
          },
          {
            "astId": 239,
            "contract": "contracts/ERC725.sol:CeloERC725",
            "label": "AllTokensGift",
            "offset": 0,
            "slot": "10",
            "type": "t_mapping(t_uint256,t_array(t_string_storage)2_storage)"
          },
          {
            "astId": 245,
            "contract": "contracts/ERC725.sol:CeloERC725",
            "label": "AllUserToken",
            "offset": 0,
            "slot": "11",
            "type": "t_mapping(t_uint256,t_array(t_string_storage)3_storage)"
          },
          {
            "astId": 251,
            "contract": "contracts/ERC725.sol:CeloERC725",
            "label": "_SearchedStore",
            "offset": 0,
            "slot": "12",
            "type": "t_mapping(t_uint256,t_array(t_string_storage)2_storage)"
          },
          {
            "astId": 255,
            "contract": "contracts/ERC725.sol:CeloERC725",
            "label": "_bidURIs",
            "offset": 0,
            "slot": "13",
            "type": "t_mapping(t_uint256,t_string_storage)"
          },
          {
            "astId": 261,
            "contract": "contracts/ERC725.sol:CeloERC725",
            "label": "_tokenURIs",
            "offset": 0,
            "slot": "14",
            "type": "t_mapping(t_uint256,t_array(t_string_storage)2_storage)"
          },
          {
            "astId": 267,
            "contract": "contracts/ERC725.sol:CeloERC725",
            "label": "_eventURIs",
            "offset": 0,
            "slot": "15",
            "type": "t_mapping(t_uint256,t_array(t_string_storage)3_storage)"
          },
          {
            "astId": 271,
            "contract": "contracts/ERC725.sol:CeloERC725",
            "label": "_eventRaised",
            "offset": 0,
            "slot": "16",
            "type": "t_mapping(t_uint256,t_string_storage)"
          },
          {
            "astId": 275,
            "contract": "contracts/ERC725.sol:CeloERC725",
            "label": "_eventTokens",
            "offset": 0,
            "slot": "17",
            "type": "t_mapping(t_string_memory_ptr,t_string_storage)"
          },
          {
            "astId": 277,
            "contract": "contracts/ERC725.sol:CeloERC725",
            "label": "owner",
            "offset": 0,
            "slot": "18",
            "type": "t_address"
          }
        ],
        "types": {
          "t_address": {
            "encoding": "inplace",
            "label": "address",
            "numberOfBytes": "20"
          },
          "t_array(t_string_storage)2_storage": {
            "base": "t_string_storage",
            "encoding": "inplace",
            "label": "string[2]",
            "numberOfBytes": "64"
          },
          "t_array(t_string_storage)3_storage": {
            "base": "t_string_storage",
            "encoding": "inplace",
            "label": "string[3]",
            "numberOfBytes": "96"
          },
          "t_mapping(t_string_memory_ptr,t_string_storage)": {
            "encoding": "mapping",
            "key": "t_string_memory_ptr",
            "label": "mapping(string => string)",
            "numberOfBytes": "32",
            "value": "t_string_storage"
          },
          "t_mapping(t_uint256,t_array(t_string_storage)2_storage)": {
            "encoding": "mapping",
            "key": "t_uint256",
            "label": "mapping(uint256 => string[2])",
            "numberOfBytes": "32",
            "value": "t_array(t_string_storage)2_storage"
          },
          "t_mapping(t_uint256,t_array(t_string_storage)3_storage)": {
            "encoding": "mapping",
            "key": "t_uint256",
            "label": "mapping(uint256 => string[3])",
            "numberOfBytes": "32",
            "value": "t_array(t_string_storage)3_storage"
          },
          "t_mapping(t_uint256,t_string_storage)": {
            "encoding": "mapping",
            "key": "t_uint256",
            "label": "mapping(uint256 => string)",
            "numberOfBytes": "32",
            "value": "t_string_storage"
          },
          "t_string_memory_ptr": {
            "encoding": "bytes",
            "label": "string",
            "numberOfBytes": "32"
          },
          "t_string_storage": {
            "encoding": "bytes",
            "label": "string",
            "numberOfBytes": "32"
          },
          "t_uint256": {
            "encoding": "inplace",
            "label": "uint256",
            "numberOfBytes": "32"
          }
        }
      },
      "userdoc": {
        "kind": "user",
        "methods": {},
        "version": 1
      }
    }
  }
}